:10142A00D7A8D2B5B5E7D7D3C2DBCCB300777777E5
:10143A002E646F666C79652E6E657400D7A8D2B576
:10144A00BFAAB7A2B0E500BAC6EBE0B5E7D7D3BFEB
:04145A00C6BCBC0050
:100F7E00120DC174FFFFFE1213E1750E00750F40C6
:100F8E0075100575111FE4FBFA7D78FCFFFE121338
:100F9E003C750E00750F40E4F510F511FBFA7DF06F
:100FAE00FC7F78FE12133C750E00750F8074FFF5F2
:100FBE0010F5117B407A007D787C00E4FFFE121361
:100FCE003C750E00750F8075100075111F7B407AF1
:100FDE00007DF07C007F787E0012133C750E00754C
:100FEE000FC07510F87511007B807A007D787C003B
:100FFE00E4FFFE12133C750E00750FC07510F875E8
:10100E00111F7B807A007DF07C007F787E001213AA
:10101E003C750E01750F007510077511E07BC07AD7
:10102E00007D787C00E4FFFE12133C750E01750FF7
:10103E000075107F7511FF7BC07A007DF07C007FFC
:10104E00787E0012133C750E01750F407510FF75FA
:10105E0011E07B007A017D787C00E4FFFE12133CE8
:10106E00750E01750F407510F87511007B007A0131
:10107E007DF07C007F787E0012133C7BFF7A147922
:10108E002A74FFF50FF51075110575121FE4FDFC9E
:10109E00FFFE1211DB7BFF7A14793774FFF50FF523
:1010AE001075110575121F7D107C00E4FFFE1211E4
:1010BE00DB7BFF7A14794674FFF50FF51075110579
:1010CE0075121F7D207C00E4FFFE1211DB7BFF7A80
:1010DE0014795174FFF50FF51075110575121F7DFA
:0B10EE00307C00E4FFFE1211DB80FEEE
:1000030000000000000000000000000000000000ED
:1000130000000000000000000000000000000000DD
:1000230000000000000000000000000000000000CD
:1000330000000000000000000000000000000000BD
:10021300000000101010101010001010000000005B
:10022300000000242424000000000000000000005F
:1002330000000024247E2424247E242400000000C3
:10024300000000107C90907C12127C1000000000D3
:100253000000000062640810204C8C0000000000C5
:1002630000000000182420508A844A300000000057
:10027300000000101020000000000000000000003B
:10028300000008102020202020202010080000005B
:1002930000002010080808080808081020000000C3
:1002A3000000000000105438385410000000000013
:1002B300000000000010107C10100000000000007F
:1002C30000000000000000000000101020000000EB
:1002D300000000000000007C00000000000000009F
:1002E30000000000000000000000001000000000FB
:1002F300000000000002040810204000000000007D
:100303000000003844444C54644444380000000066
:100313000000001030101010101010380000000002
:1003230000000038440404081020407C0000000052
:100333000000007C04081038040404780000000066
:1003430000000008182848487C080808000000003E
:100353000000007C40404078040404780000000062
:100363000000003C40404078444444380000000012
:100373000000007C0404081020202020000000005E
:10038300000000384444443844444438000000002A
:10039300000000384444443C0404043800000000D6
:1003A300000000000000001000001000000000002A
:1003B30000000000000000001000101020000000EA
:1003C30000000000000408102010080400000000D2
:1003D300000000000000007C007C00000000000022
:1003E3000000000000201008040810200000000096
:1003F30000003844440408101000101000000000EE
:10040300000000000038445C545C403C00000000E5
:10041300000018244242427E424242420000000051
:1004230000007C4242427C424242427C0000000087
:1004330000003C42404040404040423C000000003D
:1004430000007C42424242424242427C00000000A1
:1004530000007E40404078404040407E0000000065
:1004630000007E4040407840404040400000000093
:1004730000003C4240405E424242423C00000000D9
:100483000000424242427E42424242420000000099
:100493000000381010101010101010380000000069
:1004A30000001C080808080808084830000000007D
:1004B300000042444850606050484442000000003D
:1004C30000004040404040404040407E000000006B
:1004D30000008282C6C6AAAA92928282000000000D
:1004E300000042626252524A4A46464200000000FD
:1004F30000003C42424242424242423C0000000071
:1005030000007C424242427C4040404000000000E8
:1005130000003C424242424242424A3C0E0000003A
:1005230000007C424242427C5048444200000000AA
:1005330000003C4240403C020202423C00000000FA
:1005430000007C101010101010101010000000009C
:1005530000004242424242424242423C000000000A
:1005630000004444444428282810101000000000D0
:1005730000008282828254545428282800000000FC
:1005830000004242241818182424424200000000AC
:1005930000004444444428281010101000000000B8
:1005A30000007E02020408102040407E000000008C
:1005B30000003820202020202020203800000000C8
:1005C30000000000000040201008040200000000AA
:1005D30000001C04040404040404041C00000000C0
:1005E300000000001028440000000000000000008C
:1005F300000000000000000000000000FF000000F9
:1006030000000010100800000000000000000000BF
:10061300000000000078043C4444443A0000000019
:1006230000004040405C62424242625C00000000C5
:1006330000000000003C42404040423C00000000FB
:1006430000000202023A46424242463A00000000DB
:1006530000000000003C42427E40423C000000009B
:1006630000000E1010103C101010101000000000BD
:1006730000000000003E424242423E02023C0000B3
:1006830000004040405C624242424242000000009F
:100693000000000800080808080808080000000017
:1006A30000000004000404040404040444380000AB
:1006B300000040404042444850684442000000006B
:1006C3000000101010101010101010100000000087
:1006D3000000000000EC92929292929200000000BF
:1006E30000000000007C42424242424200000000FF
:1006F30000000000003C42424242423C0000000035
:1007030000000000005C62424242625C4040000024
:1007130000000000003A46424242463A020200000C
:1007230000000000005C62404040404000000000C8
:1007330000000000003C42403C02423C000000003C
:1007430000000020207820202020221C0000000030
:1007530000000000004242424242423E00000000CC
:100763000000000000424242424224180000000000
:1007730000000000008282829292AA4400000000DE
:1007830000000000004242241824424200000000FE
:10079300000000000042424242423E02023C00008E
:1007A30000000000007E02041820407E00000000CC
:1007B3000000081010102040201010100800000046
:1007C3000010101010101010101010101010100046
:1007D3000000201010100804081010102000000062
:1007E3000000000000002254880000000000000008
:1007F30000000000000000000000000000000000F6
:10080300C9CF000000010001000100010001000147
:10081300F801000100010001000100010001047F53
:10082300FE0000BAA3002100110011FE020097F898
:100833005288524812082FFE2288E248220823FEDB
:10084300200820282010BAC6002040104012400380
:10085300FC8A404C40504017FE10002000E3FC226D
:10086300042204220423FC2204EBE00000007FFEA8
:1008730048404888798C4E5048A049307A704CA83B
:1008830049284A264C244820A8A09040B5E70001F7
:1008930000010001003FF8210821083FF821082149
:1008A3000821083FF821080102010200FE0000D7D9
:1008B300D30000003FF00020004000800100010051
:1008C3000104FFFE01000100010001000100050019
:1008D3000200BFC6000608788808480848FE0818C2
:1008E300881C482A48280E48788B88080808080876
:1008F3000808080808BCBC00102010201020FDFECA
:100903001020142019FC3108D0881090106010605A
:100913001090110E56042000D3D000010001007F77
:10092300FE020004000FF0181028104FF088100882
:10093300100FF00810089008700820CFDE000000A8
:10094300FBF8920893F8A208A20893F88A808A48D1
:10095300AA50922082208210828E83048200B9AB37
:10096300000000044006400440082008101018222C
:100973000E430402000420081011F83F1810100061
:1009830000CBBE0000003FFC000400047FE4000431
:1009930000043FC4204420443FC4204420040014E6
:1009A30000080000D7A800010001003FF802000280
:1009B30000FFFE040008200FF00020004002800129
:1009C30000008000400000D2B50004400440044011
:1009D30004444446244C244814501C5014600440DE
:1009E30004400444FFFE00000000BFAA0000007F93
:1009F300FE0420042004200420FFFE04200420041D
:100A030020082008201020202040200000B7A2004A
:100A130002002240223022107FFE2400040007E05F
:100A23000C200A200A20114020804160861C1808EF
:100A3300B0E500101C11E011001100FD0011FC399C
:100A430084354855485230921012301448108E1194
:100A5300040000BCBC00102010201020FDFE10205C
:100A6300142019FC3108D088109010601060109089
:100A7300110E56042000CAF50001000120011001E7
:100A830000FFFE0100038005400520091011182115
:100A93000EC104010001000000D6A70001000100FF
:100AA30001007FFE010001001FF80810042004204C
:100AB3000240018002400C30700E0004B3D60010D7
:100AC30040104013FCFC40104017FE141018103760
:100AD300FED010111010D01090101050502020C2D2
:100AE300DB004040204030A0209001080206E504CE
:100AF3002110213821C0210025002904310420FCC4
:100B03000000CCB300000011FC100010001000FC2A
:100B13000013FE1040106010801C883104C27E0751
:100B2300C602040000B5B1000080109008980C9034
:100B330008A000803FFC000400041FFC0004000424
:100B430000043FFC00040000C7B0000810061804AE
:100B530020FFFE00003E0822483E48224822483E2D
:100B630048224822482A0824280010C8D50000003B
:100B73001FF010101010101010101FF01010101094
:100B83001010101010101FF0101000000000C6DA33
:100B9300002200227C7F4422443E44227C3E4422A5
:100BA300442244FF7C0044248422844314810800AB
:100BB30000CAB100001000107C10441047FE44101E
:100BC3007C104510449044907C10001000100010DD
:100BD30000500020BCE400200013FC100440044734
:100BE300E44424442447E44424442447E4400440A4
:100BF30004400440144008CEC200400027F02410F3
:100C030007F09410541017F020002FFCC924492436
:100C13004924492449245FFE4000B6C8000100006E
:100C2300803FFE222022202FFC222023E0200027C9
:100C3300F82210212020C04130460E9804A3BA00A8
:100C430000000000000000000000000000000000A1
:100C530000003000300000003000300000000000D1
:100C6300A1E600700053F4740C080408041000108B
:100C7300001000100010001000080408040408030A
:100C8300F00000D0C70000001FF810081FF810087C
:100C93001FF8010011001FFC210021004FF8010083
:100CA30001007FFE0000C6DA002200227C7F44227E
:100CB300443E44227C3E4422442244FF7C0044249C
:100CC300842284431481080000D2BB00000000008A
:100CD300000000000000000000047FFE0000000090
:100CE300000000000000000000000000B6FE00004D
:100CF3000000103FF80000000000000000000000AA
:100D0300000000000000047FFE000000000000C897
:100D1300FD00000000007FFC000000000000000058
:100D23003FF8000000000000000000007FFE00000C
:100D33000000CBC40000007FFC448444844484440A
:100D430084448444844884487C5004600440047F81
:100D5300FC40040000CEE50000007FF80200020022
:100D63000200020002203FF004200420042004209B
:100D73000424FFFE00000000C1F900040003000189
:100D8300800100FFFE0000000004800640042008EC
:100D9300100818100C200C40080000C6DF000000EB
:100DA300010001000100010001FE7F0001000100BC
:0E0DB3000100010001040104010400F8000029
:0413E1008E088F09DA
:1013E500753101753240E4FBFA7DF0FCFFFE121207
:1013F500F3E4F50AF50BE4F50CF50DAF09AE0812AB
:1014050014D8050DE50D7002050CC394F0E50C9498
:101415000040E8050BE50B7002050AC39440E50A98
:04142500940140D21C
:0114290022A0
:061264008B218D828C83BA
:0B126A00EF24071212E0E4F526F52740
:10127500AF21EF3395E0FEEFC4F8540FC868FFEED9
:10128500C454F048FEE5272FFFE5263EFE74032FE4
:10129500F58274003EF583E493F52AE4F528F529F3
:1012A500E52A30E706AF23AE228004AF25AE24122F
:1012B50014D8E52A25E0F52A0529E529700205282F
:0912C500C39408E528940040D709
:1012CE000527E52770020526C39410E526940040F5
:0112DE009679
:0112DF0022EC
:0F14BD00851922851A23851B24851C250212649C
:0A10F9008B188A19891A8D828C83E6
:10110300EF240F1212E0E4F523F524AB18AA19A972
:101113001A12138FFF90080375F023E5241213D5D9
:10112300E52375F023A42583F583E4936F6003021D
:1011330011C69000011213A8FF90080475F023E56F
:10114300241213D5E52375F023A42583F583E493B3
:071153006F7070F51FF5201D
:10115A0090080675F023E5241213D5E52375F023CC
:10116A00A42583F583E5822520F582E583351FF5DD
:10117A0083E493752500F526E4F521F522E526306A
:10118A00E706AF1CAE1B8004AF1EAE1D1214D8E5D5
:10119A002625E0F526E52533F5250522E522700208
:0B11AA000521C39408E521940040D209
:1011B5000520E5207002051FC39420E51F9400401B
:1011C500940524E52470020523C39440E523940087
:0511D500500302110EA1
:0111DA0022F2
:0E11DB008E088F098C0A8D0B8B0C8A0D890EE5
:1011E900E4F513AB0CAA0DA90E12138F606CC3940E
:1011F90080E51375F008502FA42509FFE50835F09F
:10120900FE12138FFB850F1985101A85111B851284
:101219001CAD0BAC0A1214BD7401250EF50EE43594
:101229000DF50D051380BCA42509FFE50835F0FE71
:10123900AB0CAA0DA90E850F1B85101C85111D85E8
:10124900121EAD0BAC0A1210F97402250EF50EE44C
:0A125900350DF50D0513051380890E
:011263002268
:0C133C008E088F098C0A8D0B8A0C8B0D1B
:10134800850E31850F321212F3850C12850D13D3D9
:10135800E513950FE512950E502C8508148509158F
:10136800D3E515950BE514950A5011AF11AE10127F
:1013780014D80515E51570E8051480E40513E51380
:0613880070CD051280C9C2
:01138E00223C
:03147E00E4FDFC8E
:06148100AB05AA04AD0753
:101487008A338B34E4FF121497AD34AF330214AAB6
:0414D800AD07AC06AA
:0514DC00AF040214AA98
:10149700C2A2C2A48F80C2A5D2A58D80C2A5D2A5A3
:0314A700D2A222AC
:1014AA00C2A2D2A48F80C2A5D2A58D80C2A5D2A580
:0314BA00D2A22299
:10145E00E4FDFCC3ED9FEC9E5015E4FBFA0BBB00C4
:0F146E00010ABA01F8BB04F50DBD00010C80E4C2
:01147D00224C
:100DC100D2A27F057E0012145EC2A112145ED2A1CE
:100DD1007F3212145E7D007C017F011214817D003F
:100DE1007C077F021214817D307C107F03121481F5
:100DF1007F0412147E7D077C027F081214817F0913
:100E010012147EE4FDFC7F0A121481E4FDFC7F0CC8
:100E1100121481E4FDFC7F0D121481E4FDFC7F0FAF
:100E2100121481E4FDFC7F101214817D077C007F88
:100E310011121481E4FDFC7F12121481E4FDFC7F88
:100E4100131214817D907C127F101214817D277CF6
:100E5100027F111214817D1D7C007F121214817D8D
:100E6100007C157F131214817D187C007F291214D8
:100E7100817D0D7C007F2B1214817D047C007F30ED
:100E81001214817D077C037F311214817D027C0065
:100E91007F321214817D067C027F351214817D0818
:100EA1007C047F361214817D077C057F3712148103
:100EB1007D047C027F381214817407FDFC7F391296
:100EC10014817D057C047F3C1214817D027C0F7F9F
:100ED1003D121481E4FDFC7F501214817DEF7C00F2
:100EE1007F51121481E4FDFC7F521214817D3F7CFD
:100EF100017F531214817D007CA77F601214817DD4
:100F0100017C007F61121481E4FDFC7F6A1214816F
:100F1100E4FDFC7F80121481E4FDFC7F81121481C9
:100F2100E4FDFC7F82121481E4FDFC7F83121481B5
:100F3100E4FDFC7F84121481E4FDFC7F85121481A1
:100F41007D107C007F901214817D007C067F9212BF
:100F510014817D037C007F931214817D107C017FBD
:100F610095121481E4FDFC7F97121481E4FDFC7F4E
:0D0F7100981214817D337C017F07021481EA
:1012E000FDE43EFCAB82AA83E582240FF532E435AF
:0312F00083F53152
:1012F3008E2B8F2C8C2D8D2E8A2F8B30AD2CAC2BDF
:101303007F50121481AD2EAC2D7F51121481AD305C
:10131300AC2F7F52121481AD32AC317F5312148142
:10132300AD2CAC2B7F20121481AD30AC2F7F21125A
:0913330014817D22E4FF021497ED
:030000000214CC1B
:0C14CC00787FE4F6D8FD758134020F7EB5
:10138F00BB010689828A83E0225002E722BBFE025C
:09139F00E32289828A83E493228F
:1013A800BB010CE58229F582E5833AF583E02250FA
:1013B80006E92582F8E622BBFE06E92582F8E22244
:0D13C800E58229F582E5833AF583E493225E
:0C13D500A42582F582E5F03583F5832223
:00000001FF
