:0404E5008E2E8F2F99
:1004E900751C01751D40E4FBFA7DF0FCFFFE120549
:1004F9002EE4F530F531E4F532F533AF2FAE2E1297
:1005090006450533E53370020532C394F0E53294AC
:100519000040E80531E53170020530C39440E5300B
:04052900940140D227
:01052D0022AB
:0305D100E4FDFC4A
:0605D400AB05AA04AD070F
:1005DA008A1E8B1FE4FF120600AD1FAF1E02061310
:04064500AD07AC064B
:05064900AF04020613DE
:10060000C2A2C2A48F80C2A5D2A58D80C2A5D2A548
:03061000D2A22251
:10061300C2A2D2A48F80C2A5D2A58D80C2A5D2A525
:03062300D2A2223E
:10057700E4FDFCC3ED9FEC9E5015E4FBFA0BBB00BA
:0F058700010ABA01F8BB04F50DBD00010C80E4B8
:010596002242
:100003007F327E001205777D007C017F011205D4CB
:100013007D007C077F021205D47D307C107F0312A4
:1000230005D47F041205D17D077C027F081205D415
:100033007F091205D1E4FDFC7F0A1205D4E4FDFC1F
:100043007F0C1205D4E4FDFC7F0D1205D4E4FDFC06
:100053007F0F1205D4E4FDFC7F101205D47D077CCD
:10006300007F111205D4E4FDFC7F121205D4E4FDD8
:10007300FC7F131205D47D907C127F101205D47D72
:10008300277C027F111205D47D1D7C007F1212058F
:10009300D47D007C157F131205D47D187C007F2945
:1000A3001205D47D0D7C007F2B1205D47D047C00CA
:1000B3007F301205D47D077C037F311205D47D0286
:1000C3007C007F321205D47D067C027F351205D475
:1000D3007D087C047F361205D47D077C057F3712AB
:1000E30005D47D047C027F381205D47407FDFC7FA0
:1000F300391205D47D057C047F3C1205D47D027C36
:100103000F7F3D1205D4E4FDFC7F501205D47DEF33
:100113007C007F511205D4E4FDFC7F521205D47D8F
:100123003F7C017F531205D47D007CA77F601205BD
:10013300D47D017C007F611205D4E4FDFC7F6A124B
:1001430005D4E4FDFC7F801205D4E4FDFC7F81121D
:1001530005D4E4FDFC7F821205D4E4FDFC7F831209
:1001630005D4E4FDFC7F841205D4E4FDFC7F8512F5
:1001730005D47D107C007F901205D47D007C067F22
:10018300921205D47D037C007F931205D47D107CED
:10019300017F951205D4E4FDFC7F971205D4E4FD9D
:0F01A300FC7F981205D47D337C017F070205D4C1
:10052E008E168F178C188D198A1A8B1BAD17AC1659
:10053E007F501205D4AD19AC187F511205D4AD1BE6
:10054E00AC1A7F521205D4AD1DAC1C7F531205D4CC
:10055E00AD17AC167F201205D4AD1BAC1A7F21123D
:09056E0005D47D22E4FF02060021
:0705B7007FFF1205BE7FFF6C
:1005BE007E08C291EF339292EF25E0FFD291DEF2E8
:0205CE00D292C7
:0105D0002208
:100626007E08C291D291EF25E0FF30900343070187
:02063600DEF0F4
:01063800229F
:1005EA00E4FC120626AD07ED6009ED640160040C17
:0505FA00BC09EFAF0594
:0105FF0022D9
:10059700EF4440FF1205BEAF201205BEAF21120582
:1005A700BEAF221205BEAF231205BEAF240205BEA1
:10047E00E4F516F517F518F5197D01D293FC7FFFFB
:10048E001205BE0CBC0AF7C293E4F523F522F52142
:10049E00F520752495FF1205971205EAAD07ED6458
:1004AE000160037F0022BD0124D2937FFF1205BE9F
:1004BE00C2937523007522C07521FF752000752427
:1004CE00FF7F011205971205EAAD0780D9D2937FFF
:0604DE00FF1205BE7F01C4
:0104E40022F5
:0E02E7008B258A2689278F2B8E2A8D298C281D
:1002F500C2938F238E228D218C207524FF7F1812A7
:1003050005971205EAEF706E1205B77FFF1205BE5D
:100315007FFE1205BEE4FDFCC3ED952DEC952C503A
:100325001CAB250527E527AA267002052614F91218
:10033500037EFF1205BE0DBD00010C80DBC3EC94EE
:1003450002500CE4FF1205BE0DBD00010C80EE123B
:1003550005B7120626AD07120626EF60FA53050FFC
:10036500D2937FFF1205BEBD0B037F0022BD05039F
:080375007F01227F00227F00BE
:01037D00225D
:0E0409008B168A1789188F1C8E1B8D1A8C1962
:10041700C2938F238E228D218C207524FF7F11128A
:1004270005971205EAEF704C120626BFFEFAE4FDA7
:10043700FCC3ED951EEC951D501C120626AB160548
:1004470018E518AA177002051714F9EF1203970D8C
:10045700BD00010C80DBC3EC9402500A1206260D86
:10046700BD00010C80F0120626120626D293120652
:06047700267F01227F0038
:01047D00225C
:1001B200751500751402751306751200D2A27F051B
:1001C2007E00120577C2A1120577D2A1120577121D
:1001D200000312047EE4F50FF50EF50DF50CE47F35
:1001E2002C7E01FDFCAB0FAA0EA90DA80CC31203B5
:1001F200F840030202B1E4FF7E02FDFCA80C1203E8
:10020200A9EF2515FFEE3514FEED3513FDEC351281
:10021200FC751D02751E007B017A0079001204092B
:10022200E4F510F511850A1C850B1DAB0BAA0AAD6E
:1002320009AC08AF09AE0812052EE51125E0FDE56F
:100242001033FC74012DF58274003CF583E0FF74D9
:10025200002DF58274003CF583E0FD1206130509BA
:10026200E5097002050864F04508701C050BE50BF2
:100272007002050AE4F508F509E50BB4400AE50A3F
:10028200B40105E4F50AF50B0511E511700205103C
:10029200C3E5109401408EE50F2401F50FE4350EFD
:1002A200F50EE4350DF50DE4350CF50C0201E0E533
:1002B2000F2414FFE4350EFEE4350DFDE4350CFC8D
:1002C200E4FB7A02F9F81203A9E5152FF515E514F6
:1002D2003EF514E5133DF513E5123CF51220B20389
:0502E2000201D780F8C5
:03000000020639BC
:0C063900787FE4F6D8FD7581330201B231
:10037E00BB010689828A83E0225002E722BBFE027D
:09038E00E32289828A83E49322B0
:10039700BB010689828A83F0225002F722BBFE0145
:0203A700F3223F
:1003A900E88FF0A4CC8BF0A42CFCE98EF0A42CFCF3
:1003B9008AF0EDA42CFCEA8EF0A4CDA8F08BF0A471
:1003C9002DCC3825F0FDE98FF0A42CCD35F0FCEBD0
:1003D9008EF0A4FEA9F0EB8FF0A4CFC5F02ECD3995
:0F03E900FEE43CFCEAA42DCE35F0FDE43CFC2202
:1003F800EB9FF5F0EA9E42F0E99D42F0E89C45F05B
:0104080022D1
:00000001FF
