:100082007FBFDFEFF7FBFDFEFFFF00005555AAAA79
:100003007580FEE4F508120092E58025E0F5800591
:1000130008E508C3940840EE75807FE4F5081200F4
:1000230092E580C313F5800508E508C3940840EE04
:100033007580FEE4F508120092E58025E0F5804323
:1000430080010508E508C3940840EB75807FE4F55B
:1000530008120092E580C313F5804380800508E50C
:1000630008C3940840EBE4F508E508C394105090E6
:0F007300120092E50890008293F580050880EA5C
:040092007F207E4EFF
:0A009600EF1F70011E144E70F722D8
:030000000200A05B
:0C00A000787FE4F6D8FD758108020003AB
:00000001FF
