:0F00FC007777772E646F666C79652E6E6574006A
:03012100DFFE22DC
:1000C600AE07AF061EEF600C7FF51201217FF51219
:0500D600012180EE2273
:1000EC007580FFC2A4D2A5C2A600D2A6E580332299
:0C0078007F381200847F051200C67F381C
:100084001200EC40FBC2A4C2A5D2A68F8000C2A677
:010094002249
:1000DB001200EC40FBD2A4C2A5D2A68F8000C2A610
:0100EB0022F2
:0A0117007F011200847F050200C67C
:10003100AE07ED7005EE24808003EE24C0FF1200B0
:1000410084120095FF600C1200DB740129F9E43A77
:04005100FA80EE2221
:1000AE00AE07AC03ED7005EE24808003EE24C0FF96
:0800BE00120084AF040200DB14
:100055001200787F051200C61200787F081200840E
:100065007F011200847F061200841F1200C67F0CD8
:0300750002008402
:100003001200551201177B6FE4FD7F071200AE7BD0
:100013006B7F081200AE7BFF7A0079FC0D7F011223
:0E00230000317FC81200C67F1812008480F4DE
:0300000002010BEF
:0C010B00787FE4F6D8FD75810702000340
:10009500BB010689828A83E0225002E722BBFE0269
:0900A500E32289828A83E493229C
:00000001FF
