:0E19C1001210EE12138D120BCF12184B80F87D
:1019020053636F7265004C4556454C0047414D4547
:10191200204F56455200596F752061726500574934
:031922004E210053
:0319CF00016B00A9
:10000300E4FDFCC3ED9FEC9E500DE4FB0BBB78FCC1
:070013000DBD00010C80ECA3
:01001A0022C3
:0F19B200D2AFD2AB438910E4F58DF58BD28E22E4
:03001B000219E2E5
:0719E200758D00758B0032CA
:10180B00743F2508F8E6FF74532508F8E6FD7BAA1C
:10181B00AE05AC07A903EC240225E025E0FFEE247E
:10182B000225E025E0FDEC240325E025E0FBEE247A
:10183B000325E025E0F50DE9750E00F50F0217C73E
:04187E00AD53AF3F78
:10188200AE05AC07EC240225E025E0FFEE2402259C
:10189200E025E0FDEC240325E025E0FBEE24032512
:0E18A200E025E0F50D750EBE750F5F0217C74D
:10138D001219B27F5F7EBE121736750D78750E007D
:10139D00750FAA7B557D077F0812177F7BFF7A1982
:1013AD0079027511007512FF7513BE75145F7D08F6
:1013BD007C007F587E001214E5750D00750EFF75CB
:1013CD000FBE75105FAB697D187F601216467BFFEF
:1013DD007A1979087511007512FF7513BE75145FB2
:1013ED007D517C007F587E001214E5750D00750E41
:1013FD00FF750FBE75105FAB6A7D617F601216467B
:10140D00756702E4F568F569753E01F56CF56BF5E8
:10141D0009E509C395675017E5092402FF743F25B7
:10142D0009F8A60774532509F87602050980E2E448
:10143D00F509E509C395675012743F2509F8E6FFD4
:0B144D0074532509121816050980E7EA
:011458002271
:1018B0007BFF7A19790E7511007512FF7513BE75CD
:1018C000145F7D287C007F0A7E001214E5E56C64BD
:0B18D00010600512184B80F502138D0C
:1016EC00056A7BFF7A1979187511CC7512887513F8
:1016FC00BE75145F7D287C007F127E001214E57B82
:10170C00FF7A1979207511CC7512887513BE751472
:10171C005F7D387C007F227E001214E5E56C64103E
:0A172C00600512184B80F502138DC2
:100BCF00E4F508E56CB40505E56BB4070CE56C645A
:100BDF00077067E56B6405706112187EE4F508E530
:100BEF006714FFE508C39F502074402508F8E6FFFF
:100BFF00743F2508F8A60774542508F8E6FF7453C8
:100C0F002508F8A607050880D6743D2567F8E60481
:100C1F00FF743E2567F8A60774512567F8E6FF7441
:100C2F00522567F8A607E4F508E508C3956750074E
:100C3F0012180B050880F2756B05E56CB40705E516
:100C4F006BB4050CE56C64057067E56B6407706148
:100C5F0012187EE4F508E56714FFE508C39F5020DE
:100C6F0074402508F8E6FF743F2508F8A60774546A
:100C7F002508F8E6FF74532508F8A607050880D65F
:100C8F00743D2567F8E614FF743E2567F8A60774D0
:100C9F00512567F8E6FF74522567F8A607E4F508B3
:100CAF00E508C39567500712180B050880F2756B9E
:100CBF0007E56CB40A05E56BB4020CE56C640270D1
:100CCF0067E56B640A706112187EE4F508E5671436
:100CDF00FFE508C39F502074402508F8E6FF743FD6
:100CEF002508F8A60774542508F8E6FF745325085D
:100CFF00F8A607050880D6743D2567F8E6FF743E11
:100D0F002567F8A60774512567F8E614FF74522576
:100D1F0067F8A607E4F508E508C3956750071218AA
:100D2F000B050880F2756B0AE56CB40205E56BB430
:100D3F000A0CE56C640A7067E56B64027061121847
:100D4F007EE4F508E56714FFE508C39F5020744063
:100D5F002508F8E6FF743F2508F8A6077454250800
:100D6F00F8E6FF74532508F8A607050880D6743DEA
:100D7F002567F8E6FF743E2567F8A60774512567C7
:100D8F00F8E604FF74522567F8A607E4F508E508AE
:100D9F00C39567500712180B050880F2756B027424
:100DAF003E2567F8E6C39413500B74522567F8E697
:100DBF00C3941C4003756801750803E508C3956764
:100DCF005019743F2508F8E6B53F0C74532508F801
:100DDF00E6B55303756801050880E0E568B40103C3
:100DEF001218B0E567B414031216EC743E2567F8B9
:100DFF00E6653C703774522567F8E6653D702D0542
:100E0F0067743E2567F8A63C74522567F8A63D74B3
:100E1F000A2569F569750D00750EFF750FBE751002
:100E2F005FFB7D187F60121646753E01E53E700927
:100E3F007BAAAD3DAF3C12181BE53E64017037E550
:100E4F008B5424C313F53CE58B541BF53DE4F50897
:100E5F00E508C395675017743F2508F8E6B53C0AB7
:100E6F0074532508F8E6653C6004050880E2E50840
:100E7F00B567CCE4F53EE56A75F032A4FFC3742C78
:0A0E8F009FFF740195F0FE020003BE
:1019A200EEEDEBE7DEDDDBD7BEBDBBB77E7D7B7741
:0619D200016C00016D0034
:10184B00E5B0640F6029E5B0640F6023E5B0540F79
:10185B00FF75B0F0E5B054F02FFFE4FEEE9019A247
:10186B0093B50704EE04F56C0EBE10F075B00F7552
:02187B006D01FD
:01187D002248
:10001E0000000000000000000000000000000000D2
:10002E0000000000000000000000000000000000C2
:10003E0000000000000000000000000000000000B2
:10004E0000000000000000000000000000000000A2
:10022E000000001010101010100010100000000040
:10023E000000002424240000000000000000000044
:10024E0000000024247E2424247E242400000000A8
:10025E00000000107C90907C12127C1000000000B8
:10026E000000000062640810204C8C0000000000AA
:10027E0000000000182420508A844A30000000003C
:10028E000000001010200000000000000000000020
:10029E000000081020202020202020100800000040
:1002AE0000002010080808080808081020000000A8
:1002BE0000000000001054383854100000000000F8
:1002CE00000000000010107C101000000000000064
:1002DE0000000000000000000000101020000000D0
:1002EE00000000000000007C000000000000000084
:1002FE0000000000000000000000001000000000E0
:10030E000000000000020408102040000000000061
:10031E000000003844444C5464444438000000004B
:10032E0000000010301010101010103800000000E7
:10033E0000000038440404081020407C0000000037
:10034E000000007C0408103804040478000000004B
:10035E0000000008182848487C0808080000000023
:10036E000000007C40404078040404780000000047
:10037E000000003C404040784444443800000000F7
:10038E000000007C04040810202020200000000043
:10039E00000000384444443844444438000000000F
:1003AE00000000384444443C0404043800000000BB
:1003BE00000000000000001000001000000000000F
:1003CE0000000000000000001000101020000000CF
:1003DE0000000000000408102010080400000000B7
:1003EE00000000000000007C007C00000000000007
:1003FE00000000000020100804081020000000007B
:10040E0000003844440408101000101000000000D2
:10041E00000000000038445C545C403C00000000CA
:10042E00000018244242427E424242420000000036
:10043E0000007C4242427C424242427C000000006C
:10044E0000003C42404040404040423C0000000022
:10045E0000007C42424242424242427C0000000086
:10046E0000007E40404078404040407E000000004A
:10047E0000007E4040407840404040400000000078
:10048E0000003C4240405E424242423C00000000BE
:10049E000000424242427E4242424242000000007E
:1004AE00000038101010101010101038000000004E
:1004BE0000001C0808080808080848300000000062
:1004CE000000424448506060504844420000000022
:1004DE0000004040404040404040407E0000000050
:1004EE0000008282C6C6AAAA9292828200000000F2
:1004FE00000042626252524A4A46464200000000E2
:10050E0000003C42424242424242423C0000000055
:10051E0000007C424242427C4040404000000000CD
:10052E0000003C424242424242424A3C0E0000001F
:10053E0000007C424242427C50484442000000008F
:10054E0000003C4240403C020202423C00000000DF
:10055E0000007C1010101010101010100000000081
:10056E0000004242424242424242423C00000000EF
:10057E0000004444444428282810101000000000B5
:10058E0000008282828254545428282800000000E1
:10059E000000424224181818242442420000000091
:1005AE00000044444444282810101010000000009D
:1005BE0000007E02020408102040407E0000000071
:1005CE0000003820202020202020203800000000AD
:1005DE00000000000000402010080402000000008F
:1005EE0000001C04040404040404041C00000000A5
:1005FE000000000010284400000000000000000071
:10060E00000000000000000000000000FF000000DD
:10061E0000000010100800000000000000000000A4
:10062E00000000000078043C4444443A00000000FE
:10063E0000004040405C62424242625C00000000AA
:10064E0000000000003C42404040423C00000000E0
:10065E0000000202023A46424242463A00000000C0
:10066E0000000000003C42427E40423C0000000080
:10067E0000000E1010103C101010101000000000A2
:10068E0000000000003E424242423E02023C000098
:10069E0000004040405C6242424242420000000084
:1006AE0000000008000808080808080800000000FC
:1006BE000000000400040404040404044438000090
:1006CE000000404040424448506844420000000050
:1006DE00000010101010101010101010000000006C
:1006EE000000000000EC92929292929200000000A4
:1006FE0000000000007C42424242424200000000E4
:10070E0000000000003C42424242423C0000000019
:10071E0000000000005C62424242625C4040000009
:10072E0000000000003A46424242463A02020000F1
:10073E0000000000005C62404040404000000000AD
:10074E0000000000003C42403C02423C0000000021
:10075E0000000020207820202020221C0000000015
:10076E0000000000004242424242423E00000000B1
:10077E0000000000004242424242241800000000E5
:10078E0000000000008282829292AA4400000000C3
:10079E0000000000004242241824424200000000E3
:1007AE00000000000042424242423E02023C000073
:1007BE0000000000007E02041820407E00000000B1
:1007CE00000008101010204020101010080000002B
:1007DE00001010101010101010101010101010002B
:1007EE000000201010100804081010102000000047
:1007FE0000000000000022548800000000000000ED
:10080E0000000000000000000000000000000000DA
:10081E00C9CF00000001000100010001000100012C
:10082E00F801000100010001000100010001047F38
:10083E00FE0000BAA3002100110011FE020097F87D
:10084E005288524812082FFE2288E248220823FEC0
:10085E00200820282010BAC6002040104012400365
:10086E00FC8A404C40504017FE10002000E3FC2252
:10087E00042204220423FC2204EBE00000007FFE8D
:10088E0048404888798C4E5048A049307A704CA820
:10089E0049284A264C244820A8A09040B5E70001DC
:1008AE0000010001003FF8210821083FF82108212E
:1008BE000821083FF821080102010200FE0000D7BE
:1008CE00D30000003FF00020004000800100010036
:1008DE000104FFFE010001000100010001000500FE
:1008EE000200BFC6000608788808480848FE0818A7
:1008FE00881C482A48280E48788B8808080808085B
:10090E000808080808BCBC00102010201020FDFEAE
:10091E001020142019FC3108D0881090106010603F
:10092E001090110E56042000D3D000010001007F5C
:10093E00FE020004000FF0181028104FF088100867
:10094E00100FF00810089008700820CFDE0000008D
:10095E00FBF8920893F8A208A20893F88A808A48B6
:10096E00AA50922082208210828E83048200B9AB1C
:10097E000000000440064004400820081010182211
:10098E000E430402000420081011F83F1810100046
:10099E0000CBBE0000003FFC000400047FE4000416
:1009AE0000043FC4204420443FC4204420040014CB
:1009BE0000080000D7A800010001003FF802000265
:1009CE0000FFFE040008200FF0002000400280010E
:1009DE0000008000400000D2B500044004400440F6
:1009EE0004444446244C244814501C5014600440C3
:1009FE0004400444FFFE00000000BFAA0000007F78
:100A0E00FE0420042004200420FFFE042004200401
:100A1E0020082008201020202040200000B7A2002F
:100A2E0002002240223022107FFE2400040007E044
:100A3E000C200A200A20114020804160861C1808D4
:100A4E00B0E500101C11E011001100FD0011FC3981
:100A5E0084354855485230921012301448108E1179
:100A6E00040000B9A40000003FFC010001000100D9
:100A7E000100010001000100010001000100010060
:100A8E00FFFE00000000BFD800100010201010FD67
:100A9E00FE11041050148C19043000D1FC102010DB
:100AAE00201020102053FE2000C9E800400021F045
:100ABE003110211001100110E20E25F82108210835
:100ACE002090209028603090230E0C04B1B80008BE
:100ADE00000FF0082014202240418002400C3030DC
:100AEE001EDFF411101FF0111011101FF01010BCAA
:100AFE00BC00102010201020FDFE1020142019FC28
:100B0E003108D0881090106010601090110E5604AD
:100B1E002000CAF5000100012001100100FFFE01B6
:100B2E000003800540052009101118210EC1040193
:100B3E000001000000D6A7000100010001007FFEA9
:100B4E00010001001FF8081004200420024001805B
:100B5E0002400C30700E0004B3D60010401040134B
:100B6E00FCFC40104017FE1410181037FED0101168
:100B7E001010D01090101050502020C2DB004040BA
:100B8E00204030A0209001080206E50421102138F3
:100B9E0021C0210025002904310420FC0000CCB323
:100BAE0000000011FC100010001000FC0013FE10DD
:100BBE0040106010801C883104C27E07C6020400FB
:010BCE000026
:041736008E0A8F0B7D
:10173A00753801753940E4FBFA7DF0FCFFFE12159D
:10174A00FDE4F50CF50DE4F50EF50FAF0BAE0A123C
:10175A0019D9050FE50F7002050EC394F0E50E9432
:10176A000040E8050DE50D7002050CC39440E50C38
:04177A00940140D2C4
:01177E002248
:06156E008B238D828C83AB
:0B157400EF24071215EAE4F528F52922
:10157F00AF23EF3395E0FEEFC4F8540FC868FFEECA
:10158F00C454F048FEE5292FFFE5283EFE741E2FB8
:10159F00F58274003EF583E493F52CE4F52AF52BE0
:1015AF00E52C30E706AF25AE248004AF27AE261218
:1015BF0019D9E52C25E0F52C052BE52B7002052A12
:0915CF00C39408E52A940040D7FA
:1015D8000529E52970020528C39410E528940040E0
:0115E800966C
:0115E90022DF
:0F1945002430FB850D1B850E1C850F1D85101E84
:0F195400851B24851C25851D26851E2702156EE3
:0A12AB008B1A8A1B891C8D828C832C
:1012B500EF240F1215EAE4F525F526AB1AAA1BA9AA
:1012C5001C12169AFF90081E75F023E5261216E0EB
:1012D500E52575F023A42583F583E4936F60030268
:1012E50013789000011216B3FF90081F75F023E5DF
:1012F500261216E0E52575F023A42583F583E493EE
:071305006F7070F521F52265
:10130C0090082175F023E5261216E0E52575F023EB
:10131C00A42583F583E5822522F582E5833521F525
:10132C0083E493752700F528E4F523F524E52830AC
:10133C00E706AF1EAE1D8004AF20AE1F1219D9E513
:10134C002825E0F528E52733F5270524E524700248
:0B135C000523C39408E523940040D251
:101367000522E52270020521C39420E5219400405F
:10137700940526E52670020525C39440E5259400CB
:0513870050030212C03A
:01138C00223E
:0E14E5008E0A8F0B8C0C8D0D8B0E8A0F8910CA
:1014F300E4F515AB0EAA0FA91012169A606CC394EB
:1015030080E51575F008502FA4250BFFE50A35F08B
:10151300FE12169AFB85111B85121C85131D85145B
:101523001EAD0DAC0C12195474012510F510E435E1
:101533000FF50F051580BCA4250BFFE50A35F0FE5A
:10154300AB0EAA0FA91085111D85121E85131F85C9
:101553001420AD0DAC0C1212AB74022510F510E47F
:0A156300350FF50F051505158089F9
:01156D00225B
:03196300E4FDFCA4
:06196600AB05AA04AD0769
:10196C008A3A8B3BE4FF12197CAD3BAF3A02198FDC
:0419D900AD07AC06A4
:0519DD00AF0402198FA8
:10197C00C2A2C2A48F80C2A5D2A58D80C2A5D2A5B9
:03198C00D2A222C2
:10198F00C2A2D2A48F80C2A5D2A58D80C2A5D2A596
:03199F00D2A222AF
:10192500E4FDFCC3ED9FEC9E5015E4FBFA0BBB00F8
:0F193500010ABA01F8BB04F50DBD00010C80E4F6
:011944002280
:1010EE00D2A27F057E00121925C2A1121925D2A106
:1010FE007F321219257D007C017F011219667D0059
:10110E007C077F021219667D307C107F03121966F0
:10111E007F041219637D077C027F081219667F090E
:10112E00121963E4FDFC7F0A121966E4FDFC7F0CC4
:10113E00121966E4FDFC7F0D121966E4FDFC7F0FAB
:10114E00121966E4FDFC7F101219667D077C007F84
:10115E0011121966E4FDFC7F12121966E4FDFC7F84
:10116E00131219667D907C127F101219667D277CF2
:10117E00027F111219667D1D7C007F121219667D89
:10118E00007C157F131219667D187C007F291219B9
:10119E00667D0D7C007F2B1219667D047C007F30EE
:1011AE001219667D077C037F311219667D027C0061
:1011BE007F321219667D067C027F351219667D0814
:1011CE007C047F361219667D077C057F37121966FF
:1011DE007D047C027F381219667407FDFC7F39127C
:1011EE0019667D057C047F3C1219667D027C0F7F9B
:1011FE003D121966E4FDFC7F501219667DEF7C00EE
:10120E007F51121966E4FDFC7F521219667D3F7CF8
:10121E00017F531219667D007CA77F601219667DCF
:10122E00017C007F61121966E4FDFC7F6A1219666B
:10123E00E4FDFC7F80121966E4FDFC7F81121966C5
:10124E00E4FDFC7F82121966E4FDFC7F83121966B1
:10125E00E4FDFC7F84121966E4FDFC7F851219669D
:10126E007D107C007F901219667D007C067F9212A5
:10127E0019667D037C007F931219667D107C017FB9
:10128E0095121966E4FDFC7F97121966E4FDFC7F4A
:0D129E00981219667D337C017F07021966E6
:0818DB00AF21AD23AB15AA14E7
:1018E3008A308B31A905AD077E007C00E9FB7A00C5
:0F18F300753800F5391215FDAF31AE300219D935
:1015EA00FDE43EFCAB82AA83E582240FF539E4359B
:0315FA0083F5383E
:1015FD008E328F338C348D358A368B37AD33AC329A
:10160D007F50121966AD35AC347F51121966AD3766
:10161D00AC367F52121966AD39AC387F531219664C
:10162D00AD33AC327F20121966AD37AC367F211247
:09163D0019667D22E4FF02197C0C
:060E99008F108D118B1279
:100E9F00C3E5129FF517E49400F516C3E5139511FA
:100EAF00F519E49400F518E51925E0FFE51833FE70
:100EBF00C3EF9517F51BEE9516F51A8E1C8F1DC3F4
:100ECF00E5199517FFE5189516FEEF25E0F51FEECE
:100EDF0033F51EE4F520F521F522F523F524F5254C
:100EEF00F526F527F528F529F52AF52BF52CF52DFF
:100EFF00F52EF52FE51745167056F520851021E5CF
:100F0F0011C3951350087522008511238006752291
:100F1F0000851323E4F52EF52FE511C39513500823
:100F2F00C3E5139511FF8006C3E5119513FFD3E5B4
:100F3F002F9FE52E940040030210ED1218DB0523BE
:100F4F00E52370020522052FE52F70CD052E80C9F0
:100F5F00E51945187056F522851123E510C3951232
:100F6F0050087520008510218006752000851221FC
:100F7F00E4F52EF52FE510C395125008C3E5129531
:100F8F0010FF8006C3E5109512FFD3E52F9FE52EC6
:100F9F00940040030210ED1218DB0521E5217002C9
:100FAF000520052FE52F70CD052E80C9D3E51794A9
:100FBF0000E5166480948040087524007525018033
:100FCF000EE51745167002800274FFF524F525D340
:100FDF00E5199400E5186480948040087526007523
:100FEF002701800EE51945187002800274FFF5265F
:100FFF00F527E510D395124007E5109512FF8006EF
:10100F00C3E5129510FF7516008F17E511D39513D1
:10101F004007E5119513FF8006C3E5139511FF7582
:10102F0018008F19D3E5179519E5186480F8E516A0
:10103F00648098400885162885172980068518280A
:10104F00851929752000851021752200851123E44B
:10105F00F52EF52FE5292401FFE43528FED3E52FE2
:10106F009FE52E9E50781218DBE517252BF52BE503
:10107F0016352AF52AE519252DF52DE518352CF508
:10108F002CD3E52B9529E5286480F8E52A64809810
:10109F004018E52B9529F52BE52A9528F52AE52506
:1010AF002521F521E5243520F520D3E52D9529E5DA
:1010BF00286480F8E52C6480984018E52D9529F573
:1010CF002DE52C9528F52CE5272523F523E5263549
:0E10DF0022F522052FE52F7002052E02106368
:0110ED0022E0
:10177F008F0A8D0B8B0C850B13850E14850F15128D
:10178F000E99850D13850E14850F15AB0AAD0BAF92
:10179F000A120E99850D13850E14850F15AB0CAD1E
:1017AF000BAF0C120E99850D13850E14850F15AB0B
:0817BF000CAD0DAF0A020E99FA
:0417C7008F0A8B0CEE
:1017CB00E4F510F5118D11E511C3950D5031E50AB6
:1017DB0004F510E510D3950C5021E510FD7C00FFAE
:1017EB007E00AB117A00E511753800F5391215FD45
:0F17FB00AF0FAE0E1219D9051080D8051180C896
:01180A0022BB
:101646008F0A8D0B8B0C7E007C00E50C75F0648494
:10165600121945E50A2408FFE433FEAD0B7C00E5CC
:101666000C75F00A8475F00A84E5F0121945E50A4E
:101676002410FFE433FEAD0B7C00E50C75F00A8404
:10168600E5F02430FB850D1B850E1C850F1D85108E
:041696001E021954C3
:030000000214598E
:0C145900787FE4F6D8FD75816D0214A0C8
:10169A00BB010689828A83E0225002E722BBFE024E
:0916AA00E32289828A83E4932281
:1016B300BB010CE58229F582E5833AF583E02250EC
:1016C30006E92582F8E622BBFE06E92582F8E22236
:0D16D300E58229F582E5833AF583E4932250
:0C16E000A42582F582E5F03583F5832215
:101465000219C1E493A3F8E493A34003F68001F2C3
:1014750008DFF48029E493A3F85407240CC8C33388
:10148500C4540F4420C8834004F456800146F6DF57
:10149500E4800B01020408102040809019CFE47EFF
:1014A500019360BCA3FF543F30E509541FFEE4934C
:1014B500A360010ECF54C025E060A840B8E493A313
:1014C500FAE493A3F8E493A3C8C582C8CAC583CA3E
:1014D500F0A3C8C582C8CAC583CADFE9DEE780BEF6
:0119D800000E
:00000001FF
