:100DC1001210A9E4F50CF50DE4F50AF50B850C14E8
:100DD100850D15850C16850D17AB0DAA0CAD0BAC49
:100DE1000AAF0BAE0A1214A9050BE50B7002050A36
:100DF100C394F0E50A940040D4050DE50D70020599
:100E01000CC39420E50C940040BE750C00750D20B8
:100E1100E4F50AF50B850C14850D15E50D24E0FFAD
:100E2100E50C34FFFEEF7805C333CE33CED8F9F5A8
:100E3100178E16AB0DAA0CAD0BAC0AAF0BAE0A1296
:100E410014A9050BE50B7002050AC394F0E50A9499
:100E51000040C2050DE50D7002050CC39460E50C60
:100E6100940040AC750C00750D60E4F50AF50B8536
:100E71000C14850D15E50D24A0FFE50C34FFEF756D
:100E8100170033333354F8F516AB0DAA0CAD0BAC88
:100E91000AAF0BAE0A1214A9050BE50B7002050A85
:100EA100C394F0E50A940040C6050DE50D700205F6
:100EB1000CC39480E50C940040B0750C00750D8056
:100EC100E4F50AF50B850C14850D15E50D2480FD5F
:100ED100E50C34FFFCED33333354F84CF516EDF5E6
:100EE10017AB0DAA0CAD0BAC0AAF0BAE0A1214A9CD
:100EF100050BE50B7002050AC394F0E50A94004066
:100F0100C4050DE50D7002050CC394A0E50C940019
:100F110040AE750C00750DA0E4F50AF50B850C14B7
:100F2100850D15E50D2460FDE50C34FFFCEDAE04E7
:100F31007805C333CE33CED8F9FBAA06ED3333336C
:100F410054F84AF516EBF517AB0DAA0CAD0BAC0A2C
:100F5100AF0BAE0A1214A9050BE50B7002050AC30B
:100F610094F0E50A940040B5050DE50D7002050CFD
:100F7100C394C0E50C9400409F750C00750DC0E44E
:100F8100F50AF50B850C14850D15E50D2440FDE5DD
:100F91000C34FFFCEDAE047805C333CE33CED8F963
:100FA100FFEC4EF516ED4FF517AB0DAA0CAD0BACE2
:100FB1000AAF0BAE0A1214A9050BE50B7002050A64
:100FC100C394F0E50A940040BB050DE50D700205E0
:100FD1000CC394E0E50C940040A5750C00750DE080
:100FE100E4F50AF50B850C14850D15E50D2420FD9E
:100FF100E50C34FFFCEDAE047805C333CE33CED817
:10100100F9FBAA06ED33333354F84AFEEBFFE50D45
:101011002420FDE50C34FF4EF516ED4FF517AB0D11
:10102100AA0CAD0BAC0AAF0BAE0A1214A9050BE565
:101031000B7002050AC394F0E50A940040A7050D60
:10104100E50D7002050CC3E50C94014093750C018C
:10105100750D00E4F50AF50B850C14850D15E425D5
:101061000DFFE50C34FFFEEF7805C333CE33CED848
:10107100F9F5178E16AB0DAA0CAD0BAC0AAF0BAE82
:101081000A1214A9050BE50B7002050AC394F0E5D9
:101091000A940040C3050DE50D7002050CC3944090
:0810A100E50C940140AD80FE56
:1000030000000000000000000000000000000000ED
:1000130000000000000000000000000000000000DD
:1000230000000000000000000000000000000000CD
:1000330000000000000000000000000000000000BD
:10021300000000101010101010001010000000005B
:10022300000000242424000000000000000000005F
:1002330000000024247E2424247E242400000000C3
:10024300000000107C90907C12127C1000000000D3
:100253000000000062640810204C8C0000000000C5
:1002630000000000182420508A844A300000000057
:10027300000000101020000000000000000000003B
:10028300000008102020202020202010080000005B
:1002930000002010080808080808081020000000C3
:1002A3000000000000105438385410000000000013
:1002B300000000000010107C10100000000000007F
:1002C30000000000000000000000101020000000EB
:1002D300000000000000007C00000000000000009F
:1002E30000000000000000000000001000000000FB
:1002F300000000000002040810204000000000007D
:100303000000003844444C54644444380000000066
:100313000000001030101010101010380000000002
:1003230000000038440404081020407C0000000052
:100333000000007C04081038040404780000000066
:1003430000000008182848487C080808000000003E
:100353000000007C40404078040404780000000062
:100363000000003C40404078444444380000000012
:100373000000007C0404081020202020000000005E
:10038300000000384444443844444438000000002A
:10039300000000384444443C0404043800000000D6
:1003A300000000000000001000001000000000002A
:1003B30000000000000000001000101020000000EA
:1003C30000000000000408102010080400000000D2
:1003D300000000000000007C007C00000000000022
:1003E3000000000000201008040810200000000096
:1003F30000003844440408101000101000000000EE
:10040300000000000038445C545C403C00000000E5
:10041300000018244242427E424242420000000051
:1004230000007C4242427C424242427C0000000087
:1004330000003C42404040404040423C000000003D
:1004430000007C42424242424242427C00000000A1
:1004530000007E40404078404040407E0000000065
:1004630000007E4040407840404040400000000093
:1004730000003C4240405E424242423C00000000D9
:100483000000424242427E42424242420000000099
:100493000000381010101010101010380000000069
:1004A30000001C080808080808084830000000007D
:1004B300000042444850606050484442000000003D
:1004C30000004040404040404040407E000000006B
:1004D30000008282C6C6AAAA92928282000000000D
:1004E300000042626252524A4A46464200000000FD
:1004F30000003C42424242424242423C0000000071
:1005030000007C424242427C4040404000000000E8
:1005130000003C424242424242424A3C0E0000003A
:1005230000007C424242427C5048444200000000AA
:1005330000003C4240403C020202423C00000000FA
:1005430000007C101010101010101010000000009C
:1005530000004242424242424242423C000000000A
:1005630000004444444428282810101000000000D0
:1005730000008282828254545428282800000000FC
:1005830000004242241818182424424200000000AC
:1005930000004444444428281010101000000000B8
:1005A30000007E02020408102040407E000000008C
:1005B30000003820202020202020203800000000C8
:1005C30000000000000040201008040200000000AA
:1005D30000001C04040404040404041C00000000C0
:1005E300000000001028440000000000000000008C
:1005F300000000000000000000000000FF000000F9
:1006030000000010100800000000000000000000BF
:10061300000000000078043C4444443A0000000019
:1006230000004040405C62424242625C00000000C5
:1006330000000000003C42404040423C00000000FB
:1006430000000202023A46424242463A00000000DB
:1006530000000000003C42427E40423C000000009B
:1006630000000E1010103C101010101000000000BD
:1006730000000000003E424242423E02023C0000B3
:1006830000004040405C624242424242000000009F
:100693000000000800080808080808080000000017
:1006A30000000004000404040404040444380000AB
:1006B300000040404042444850684442000000006B
:1006C3000000101010101010101010100000000087
:1006D3000000000000EC92929292929200000000BF
:1006E30000000000007C42424242424200000000FF
:1006F30000000000003C42424242423C0000000035
:1007030000000000005C62424242625C4040000024
:1007130000000000003A46424242463A020200000C
:1007230000000000005C62404040404000000000C8
:1007330000000000003C42403C02423C000000003C
:1007430000000020207820202020221C0000000030
:1007530000000000004242424242423E00000000CC
:100763000000000000424242424224180000000000
:1007730000000000008282829292AA4400000000DE
:1007830000000000004242241824424200000000FE
:10079300000000000042424242423E02023C00008E
:1007A30000000000007E02041820407E00000000CC
:1007B3000000081010102040201010100800000046
:1007C3000010101010101010101010101010100046
:1007D3000000201010100804081010102000000062
:1007E3000000000000002254880000000000000008
:1007F30000000000000000000000000000000000F6
:10080300C9CF000000010001000100010001000147
:10081300F801000100010001000100010001047F53
:10082300FE0000BAA3002100110011FE020097F898
:100833005288524812082FFE2288E248220823FEDB
:10084300200820282010BAC6002040104012400380
:10085300FC8A404C40504017FE10002000E3FC226D
:10086300042204220423FC2204EBE00000007FFEA8
:1008730048404888798C4E5048A049307A704CA83B
:1008830049284A264C244820A8A09040B5E70001F7
:1008930000010001003FF8210821083FF821082149
:1008A3000821083FF821080102010200FE0000D7D9
:1008B300D30000003FF00020004000800100010051
:1008C3000104FFFE01000100010001000100050019
:1008D3000200BFC6000608788808480848FE0818C2
:1008E300881C482A48280E48788B88080808080876
:1008F3000808080808BCBC00102010201020FDFECA
:100903001020142019FC3108D0881090106010605A
:100913001090110E56042000D3D000010001007F77
:10092300FE020004000FF0181028104FF088100882
:10093300100FF00810089008700820CFDE000000A8
:10094300FBF8920893F8A208A20893F88A808A48D1
:10095300AA50922082208210828E83048200B9AB37
:10096300000000044006400440082008101018222C
:100973000E430402000420081011F83F1810100061
:1009830000CBBE0000003FFC000400047FE4000431
:1009930000043FC4204420443FC4204420040014E6
:1009A30000080000D7A800010001003FF802000280
:1009B30000FFFE040008200FF00020004002800129
:1009C30000008000400000D2B50004400440044011
:1009D30004444446244C244814501C5014600440DE
:1009E30004400444FFFE00000000BFAA0000007F93
:1009F300FE0420042004200420FFFE04200420041D
:100A030020082008201020202040200000B7A2004A
:100A130002002240223022107FFE2400040007E05F
:100A23000C200A200A20114020804160861C1808EF
:100A3300B0E500101C11E011001100FD0011FC399C
:100A430084354855485230921012301448108E1194
:100A5300040000BCBC00102010201020FDFE10205C
:100A6300142019FC3108D088109010601060109089
:100A7300110E56042000CAF50001000120011001E7
:100A830000FFFE0100038005400520091011182115
:100A93000EC104010001000000D6A70001000100FF
:100AA30001007FFE010001001FF80810042004204C
:100AB3000240018002400C30700E0004B3D60010D7
:100AC30040104013FCFC40104017FE141018103760
:100AD300FED010111010D01090101050502020C2D2
:100AE300DB004040204030A0209001080206E504CE
:100AF3002110213821C0210025002904310420FCC4
:100B03000000CCB300000011FC100010001000FC2A
:100B13000013FE1040106010801C883104C27E0751
:100B2300C602040000B5B1000080109008980C9034
:100B330008A000803FFC000400041FFC0004000424
:100B430000043FFC00040000C7B0000810061804AE
:100B530020FFFE00003E0822483E48224822483E2D
:100B630048224822482A0824280010C8D50000003B
:100B73001FF010101010101010101FF01010101094
:100B83001010101010101FF0101000000000C6DA33
:100B9300002200227C7F4422443E44227C3E4422A5
:100BA300442244FF7C0044248422844314810800AB
:100BB30000CAB100001000107C10441047FE44101E
:100BC3007C104510449044907C10001000100010DD
:100BD30000500020BCE400200013FC100440044734
:100BE300E44424442447E44424442447E4400440A4
:100BF30004400440144008CEC200400027F02410F3
:100C030007F09410541017F020002FFCC924492436
:100C13004924492449245FFE4000B6C8000100006E
:100C2300803FFE222022202FFC222023E0200027C9
:100C3300F82210212020C04130460E9804A3BA00A8
:100C430000000000000000000000000000000000A1
:100C530000003000300000003000300000000000D1
:100C6300A1E600700053F4740C080408041000108B
:100C7300001000100010001000080408040408030A
:100C8300F00000D0C70000001FF810081FF810087C
:100C93001FF8010011001FFC210021004FF8010083
:100CA30001007FFE0000C6DA002200227C7F44227E
:100CB300443E44227C3E4422442244FF7C0044249C
:100CC300842284431481080000D2BB00000000008A
:100CD300000000000000000000047FFE0000000090
:100CE300000000000000000000000000B6FE00004D
:100CF3000000103FF80000000000000000000000AA
:100D0300000000000000047FFE000000000000C897
:100D1300FD00000000007FFC000000000000000058
:100D23003FF8000000000000000000007FFE00000C
:100D33000000CBC40000007FFC448444844484440A
:100D430084448444844884487C5004600440047F81
:100D5300FC40040000CEE50000007FF80200020022
:100D63000200020002203FF004200420042004209B
:100D73000424FFFE00000000C1F900040003000189
:100D8300800100FFFE0000000004800640042008EC
:100D9300100818100C200C40080000C6DF000000EB
:100DA300010001000100010001FE7F0001000100BC
:0E0DB3000100010001040104010400F8000029
:04154E008E5C8F5DC3
:10155200752201752340E4FBFA7DF0FCFFFE1214B4
:1015620060E4F55EF55FE4F560F561AF5DAE5C12D7
:1015720016110561E56170020560C394F0E560949F
:101582000040E8055FE55F7002055EC39440E55EDA
:04159200940140D2AE
:011596002232
:0613D1008B3D8D828C8330
:0B13D700EF240712144DE4F542F5432B
:1013E200AF3DEF3395E0FEEFC4F8540FC868FFEE4F
:1013F200C454F048FEE5432FFFE5423EFE74032F3E
:10140200F58274003EF583E493F546E4F544F54530
:10141200E54630E706AF3FAE3E8004AF41AE401234
:101422001611E54625E0F5460545E54570020544F9
:09143200C39408E544940040D77E
:10143B000543E54370020542C39410E54294004016
:01144B00960A
:01144C00227D
:0F15F60085583E85593F855A40855B410213D188
:0A1266008B2A8A2B892C8D828C8341
:10127000EF240F12144DE4F535F536AB2AAA2BA94D
:101280002C1214FCFF90080375F023E5361215426A
:10129000E53575F023A42583F583E4936F6003029D
:1012A0001333900001121515FF90080475F023E523
:1012B00036121542E53575F023A42583F583E493B2
:0712C0006F7070F531F5328B
:1012C70090080675F023E536121542E53575F023CB
:1012D700A42583F583E5822532F582E5833531F54B
:1012E70083E493753700F538E4F533F534E53830A2
:1012F700E706AF2EAE2D8004AF30AE2F121611E5E4
:101307003825E0F538E53733F5370534E53470022D
:0B1317000533C39408E533940040D276
:101322000532E53270020531C39420E53194004064
:10133200940536E53670020535C39440E5359400D0
:05134200500302127BC4
:011347002283
:0E1348008E478F488C498D4A8B4B8A4C894DBD
:10135600E4F552AB4BAA4CA94D1214FC606CC39435
:1013660080E55275F008502FA42548FFE54735F073
:10137600FE1214FCFB854E58854F5985505A8551EF
:101386005BAD4AAC491215F67401254DF54DE435B1
:101396004CF54C055280BCA42548FFE54735F0FEC8
:1013A600AB4BAA4CA94D854E2D854F2E85502F85CA
:1013B6005130AD4AAC491212667402254DF54DE422
:0A13C600354CF54C055205528089A4
:0113D00022FA
:0C14A9008E0E8F0F8C108D118A128B1389
:1014B500851422851523121460851218851319D3F6
:1014C500E5199515E5189514502C850E1A850F1BF1
:1014D500D3E51B9511E51A95105011AF17AE1612ED
:1014E5001611051BE51B70E8051A80E40519E519B9
:0614F50070CD051880C94E
:0114FB0022CE
:0315B700E4FDFC54
:0615BA00AB05AA04AD0719
:1015C0008A248B25E4FF1215D0AD25AF240215E344
:04161100AD07AC066F
:05161500AF040215E323
:1015D000C2A2C2A48F80C2A5D2A58D80C2A5D2A569
:0315E000D2A22272
:1015E300C2A2D2A48F80C2A5D2A58D80C2A5D2A546
:0315F300D2A2225F
:10159700E4FDFCC3ED9FEC9E5015E4FBFA0BBB008A
:0F15A700010ABA01F8BB04F50DBD00010C80E488
:0115B6002212
:1010A900D2A27F057E00121597C2A1121597D2A16F
:1010B9007F321215977D007C017F011215BA7D00E0
:1010C9007C077F021215BA7D307C107F031215BA96
:1010D9007F041215B77D077C027F081215BA7F09B4
:1010E9001215B7E4FDFC7F0A1215BAE4FDFC7F0C6A
:1010F9001215BAE4FDFC7F0D1215BAE4FDFC7F0F51
:101109001215BAE4FDFC7F101215BA7D077C007F29
:10111900111215BAE4FDFC7F121215BAE4FDFC7F29
:10112900131215BA7D907C127F101215BA7D277C97
:10113900027F111215BA7D1D7C007F121215BA7D2E
:10114900007C157F131215BA7D187C007F291215B2
:10115900BA7D0D7C007F2B1215BA7D047C007F308F
:101169001215BA7D077C037F311215BA7D027C0006
:101179007F321215BA7D067C027F351215BA7D08B9
:101189007C047F361215BA7D077C057F371215BAA4
:101199007D047C027F381215BA7407FDFC7F391271
:1011A90015BA7D057C047F3C1215BA7D027C0F7F40
:1011B9003D1215BAE4FDFC7F501215BA7DEF7C0093
:1011C9007F511215BAE4FDFC7F521215BA7D3F7C9E
:1011D900017F531215BA7D007CA77F601215BA7D75
:1011E900017C007F611215BAE4FDFC7F6A1215BA11
:1011F900E4FDFC7F801215BAE4FDFC7F811215BA6B
:10120900E4FDFC7F821215BAE4FDFC7F831215BA56
:10121900E4FDFC7F841215BAE4FDFC7F851215BA42
:101229007D107C007F901215BA7D007C067F92129A
:1012390015BA7D037C007F931215BA7D107C017F5E
:10124900951215BAE4FDFC7F971215BAE4FDFC7FEF
:0D125900981215BA7D337C017F070215BA8B
:10144D00FDE43EFCAB82AA83E582240FF523E4354F
:03145D0083F522F2
:101460008E1C8F1D8C1E8D1F8A208B21AD1DAC1CE8
:101470007F501215BAAD1FAC1E7F511215BAAD21A7
:10148000AC207F521215BAAD23AC227F531215BA8D
:10149000AD1DAC1C7F201215BAAD21AC207F2112EE
:0914A00015BA7D22E4FF0215D00B
:03000000021605E0
:0C160500787FE4F6D8FD758161020DC10C
:1014FC00BB010689828A83E0225002E722BBFE02EE
:09150C00E32289828A83E4932220
:10151500BB010CE58229F582E5833AF583E022508B
:1015250006E92582F8E622BBFE06E92582F8E222D5
:0D153500E58229F582E5833AF583E49322EF
:0C154200A42582F582E5F03583F58322B4
:00000001FF
