:100003007777772E646F666C79652E6E6574004919
:10001300204C4F5645204D59204A4F422000C9CF0E
:10002300BAA3BAC6EBE0B5E7D7D3BFC6BCBCD3D03F
:10003300CFDEB9ABCBBE00D7A8D2B5BCBCCAF5D610
:10004300A7B3D6C2DBCCB300D7A8D2B5BFAAB7A299
:10005300B0E5B9A4BFD8B0E5003132333435363713
:10006300383930006162636465666768696A6B6C1E
:100073006D6E6F707169737475767778797A0060D5
:100083002C2E2F3C3E273B3A5B5D7B7D7C3F292812
:100093002D3D2B2A265E25240000000000000000D1
:1000A300000000000000000000000000000000004D
:1000B300000000000000000000000000000000003D
:1000C300000000000000000000000000000000002D
:1000D300000000000000000000000000000000001D
:1000E300000000000000000000000000000000000D
:1000F30000000000000000000000000000000000FD
:1001030000000000000000000000000000000000EC
:1001130000000000000000000000000000000000DC
:1001230000000000000000000000000000000000CC
:1001330000000000000000000000000000000000BC
:1001430000000000000000000000000000000000AC
:10015300000000000000000000000000000000009C
:10016300000000000000000000000000000000008C
:10017300000000000000000000000000000000007C
:10018300000000000000000000000000000000006C
:10019300000000000000000000000000000000005C
:1001A300000000000000000000000000000000004C
:1001B300000000000000000000000000000000003C
:1001C300000000000000000000000000000000002C
:1001D300000000000000000000000000000000001C
:1001E300000000000000000000000000000000000C
:1001F30000000000000000000000000000000000FC
:1002030000000000000000000000000000000000EB
:1002130000000000000000000000000000000000DB
:1002230000000000000000000000000000000000CB
:1002330000000000000000000000000000000000BB
:1002430000000000000000000000000000000000AB
:10025300000000000000000000000000000000009B
:10026300000000000000000000000000000000008B
:10027300000000000000000000000000000000007B
:10028300000000000000000000000000000000006B
:10029300000000000000000000000000000000005B
:1002A300000000000000000000000000101010100B
:1002B300101000101000000000000000242424008F
:1002C30000000000000000000000000024247E2441
:1002D30024247E242400000000000000107C909061
:1002E3007C12127C10000000000000000062640811
:1002F30010204C8C00000000000000000018242097
:10030300508A844A300000000000000010102000D2
:100313000000000000000000000000081020202062
:1003230020202020100800000000002010080808EA
:100333000808080810200000000000000000105406
:1003430038385410000000000000000000001010B6
:100353007C101000000000000000000000000000FE
:10036300000000101020000000000000000000004A
:100373007C000000000000000000000000000000FE
:100383000000000010000000000000000000020454
:100393000810204000000000000000003844444CD6
:1003A3005464444438000000000000001030101072
:1003B300101010103800000000000000384404043E
:1003C300081020407C000000000000007C0408109E
:1003D30038040404780000000000000008182848CE
:1003E300487C080808000000000000007C404040F2
:1003F3007804040478000000000000003C40404002
:100403007844444438000000000000007C040408E1
:100413001020202020000000000000003844444445
:100423003844444438000000000000003844444489
:100433003C04040438000000000000000000000039
:100443001000001000000000000000000000000089
:10045300001000101020000000000000000004083D
:10046300102010080400000000000000000000003D
:100473007C007C0000000000000000000000201051
:100483000804081020000000000000384444040859
:10049300101000101000000000000000000038449D
:1004A3005C545C403C0000000000001824424242BF
:1004B3007E424242420000000000007C4242427CF5
:1004C300424242427C0000000000003C4240404067
:1004D300404040423C0000000000007C4242424257
:1004E300424242427C0000000000007E40404078CF
:1004F300404040407E0000000000007E40404078C5
:1005030040404040400000000000003C4240405E4C
:10051300424242423C000000000000424242427E0E
:100523004242424242000000000000381010101006
:1005330010101010380000000000001C0808080804
:10054300080808483000000000000042444850609A
:1005530060504844420000000000004040404040DA
:10056300404040407E0000000000008282C6C6AAD0
:10057300AA929282820000000000004262625252FC
:100583004A4A4646420000000000003C42424242C2
:10059300424242423C0000000000007C4242424290
:1005A3007C404040400000000000003C4242424288
:1005B3004242424A3C0E00000000007C424242425A
:1005C3007C504844420000000000003C4240403C54
:1005D300020202423C0000000000007C10101010D8
:1005E300101010101000000000000042424242426E
:1005F300424242423C00000000000044444444287C
:10060300282810101000000000000082828282540B
:1006130054542828280000000000004242241818DF
:1006230018242442420000000000004444444428AB
:1006330028101010100000000000007E02020408C1
:10064300102040407E0000000000003820202020C1
:10065300202020203800000000000000000000409F
:1006630020100804020000000000001C040404041D
:10067300040404041C0000000000000000102844CF
:100683000000000000000000000000000000000067
:100693000000000000FF0000000000001010080030
:1006A30000000000000000000000000000007804CB
:1006B3003C4444443A0000000000004040405C6277
:1006C300424242625C0000000000000000003C4225
:1006D300404040423C0000000000000202023A4653
:1006E300424242463A0000000000000000003C4243
:1006F300427E40423C0000000000000E1010103CFF
:1007030010101010100000000000000000003E4216
:100713004242423E02023C000000004040405C6214
:100723004242424242000000000000000800080864
:100733000808080808000000000000000400040482
:1007430004040404044438000000004040404244D0
:1007530048506844420000000000001010101010C0
:100763001010101010000000000000000000EC92B8
:1007730092929292920000000000000000007C42DE
:1007830042424242420000000000000000003C429E
:10079300424242423C0000000000000000005C6254
:1007A300424242625C4040000000000000003A46C2
:1007B300424242463A0202000000000000005C622E
:1007C30040404040400000000000000000003C4268
:1007D300403C02423C000000000000002020782042
:1007E300202020221C0000000000000000004242E4
:1007F300424242423E00000000000000000042422C
:1008030042424224180000000000000000008282DF
:10081300829292AA440000000000000000004242BD
:10082300241824424200000000000000000042425D
:100833004242423E02023C000000000000007E02F1
:10084300041820407E000000000000081010102053
:10085300402010101008000000001010101010109D
:1008630010101010101010100000002010101008AD
:1008730004081010102000000000000000000022F7
:100883005488000000000000000000000000000089
:10089300000000000000000000C9CF0000000100BC
:1008A300010001000100010001F801000100010045
:1008B30001000100010001047FFE0000BAA3002132
:1008C30000110011FE020097F85288524812082FB7
:1008D300FE2288E248220823FE200820282010BA9E
:1008E300C60020401040124003FC8A404C40504058
:1008F30017FE10002000E3FC22042204220423FC40
:100903002204EBE00000007FFE48404888798C4ECB
:100913005048A049307A704CA849284A264C2448AC
:1009230020A8A09040B5E7000100010001003FF8B6
:10093300210821083FF82108210821083FF8210850
:100943000102010200FE0000D7D30000003FF000C7
:100953002000400080010001000104FFFE010001AE
:100963000001000100010005000200BFC6000608E7
:10097300788808480848FE0818881C482A48280E22
:1009830048788B8808080808080808080808BCBCC9
:1009930000102010201020FDFE1020142019FC311F
:1009A30008D0881090106010601090110E5604202B
:1009B30000D3D000010001007FFE020004000FF00D
:1009C300181028104FF0881008100FF00810089026
:1009D30008700820CFDE000000FBF8920893F8A20D
:1009E30008A20893F88A808A48AA5092208220821B
:1009F30010828E83048200B9AB00000004400640DD
:100A03000440082008101018220E4304020004209A
:100A1300081011F83F1810100000CBBE0000003F73
:100A2300FC000400047FE4000400043FC4204420CD
:100A3300443FC420442004001400080000D7A80049
:100A4300010001003FF802000200FFFE040008203D
:100A53000FF00020004002800100008000400000F1
:100A6300D2B50004400440044004444446244C24CA
:100A73004814501C501460044004400444FFFE001A
:100A8300000000BFAA0000007FFE04200420042011
:100A93000420FFFE04200420042008200820102046
:100AA300202040200000B7A2000200224022302272
:100AB300107FFE2400040007E00C200A200A201106
:100AC3004020804160861C1808B0E500101C11E02E
:100AD30011001100FD0011FC39843548554852308E
:100AE300921012301448108E11040000B9A40000B3
:100AF300003FFC01000100010001000100010001B1
:100B0300000100010001000100FFFE00000000BF22
:100B1300D800100010201010FDFE11041050148C8A
:100B230019043000D1FC102010201020102053FE97
:100B33002000C9E800400021F0311021100110010C
:100B430010E20E25F821082108209020902860301B
:100B530090230E0C04B1B80008000FF008201420F5
:100B63002240418002400C30301EDFF411101FF090
:100B7300111011101FF01010BCBC00102010201019
:100B830020FDFE1020142019FC3108D0881090108D
:100B93006010601090110E56042000CAF500010089
:100BA300012001100100FFFE010003800540052024
:100BB30009101118210EC104010001000000D6A77D
:100BC300000100010001007FFE010001001FF80881
:100BD30010042004200240018002400C30700E00FB
:100BE30004B3D6001040104013FCFC40104017FE25
:100BF3001410181037FED010111010D010901010D0
:100C030050502020C2DB004040204030A020900103
:100C1300080206E5042110213821C02100250029FE
:100C230004310420FC0000CCB300000011FC1000D0
:100C330010001000FC0013FE1040106010801C8890
:0A0C43003104C27E07C6020400005F
:1010AF00D2A21214CAC2A11214CAD2A11214CA1205
:1010BF000E0B7F007EF812148F7BFF7A007903E40A
:1010CF00F50FF51074FFF511F5127D281212E47B60
:1010DF00FF7A007912E4F50FF5107511F8F5127D0E
:1010EF003CFC7F28FE1212EA7BFF7A007921E4F59F
:1010FF000FF5107511F8F5127D50FC7F0AFE1212D4
:10110F00EA7BFF7A00793A750F077510E07511F8D1
:10111F007512007D641212E47BFF7A00794B750F14
:10112F000075101F7511F87512007D781212E47B8F
:10113F00FF7A00795C750F0075101F7511F8751225
:10114F00007D8C1212E47BFF7A007967750F0075B2
:10115F00101F7511F87512007DA07C00E4FFFE12C0
:10116F0012EA7BFF7A007982750F0075101F7511D7
:10117F00F87512007DB47C00E4FFFE1212EA80FEC7
:04148F008E088F092B
:101493001213E5E4F50AF50BE4F50CF50DAF09AE0F
:1014A3000812154C050DE50D7002050CC394F0E50B
:1014B3000C940040E8050BE50B7002050AC3944049
:0614C300E50A940140D28D
:0114C9002200
:061255008B218D828C83C9
:10125B00EF2407FDE43EFCAB82AA83E582240FF565
:0E126B0032E43583F5311213F3E4F526F5274E
:10127900AF21EF3395E0FEEFC4F8540FC868FFEED5
:10128900C454F048FEE5272FFFE5263EFE749C2F47
:10129900F58274003EF583E493F52AE4F528F529EF
:1012A900E52A30E706AF23AE228004AF25AE24122B
:1012B900154CE52A25E0F52A0529E52970020528B6
:0912C900C39408E528940040D705
:1012D2000527E52770020526C39410E526940040F1
:0112E2009675
:0112E30022E8
:0F153100851922851A23851B24851C2502125536
:0A0FBA008B188A19891A8D828C8326
:100FC400EF240FFDE43EFCAB82AA83E582240FF5F7
:100FD40032E43583F5311213F3E4F523F524AB1829
:100FE400AA19A91A121373FF90089C75F023E5241B
:100FF4001213D9E52375F023A42583F583E4936FB5
:10100400600302109A90000112138CFF90089D75E2
:10101400F023E5241213D9E52375F023A42583F5E1
:0A10240083E4936F7070F51FF52050
:10102E0090089F75F023E5241213D9E52375F0235C
:10103E00A42583F583E5822520F582E583351FF50A
:10104E0083E493752500F526E4F521F522E5263097
:10105E00E706AF1CAE1B8004AF1EAE1D12154CE58D
:10106E002625E0F526E52533F5250522E522700235
:0B107E000521C39408E521940040D236
:101089000520E5207002051FC39420E51F94004048
:10109900940524E52470020523C39440E5239400B4
:0510A9005003020FE2FC
:0110AE00221F
:0612E4007C007F287E0063
:0E12EA008E088F098C0A8D0B8B0C8A0D890ED5
:1012F800E4F513AB0CAA0DA90E121373606CC3941A
:1013080080E51375F008502FA42509FFE50835F08E
:10131800FE121373FB850F1985101A85111B851290
:101328001CAD0BAC0A1215317401250EF50EE4350F
:101338000DF50D051380BCA42509FFE50835F0FE61
:10134800AB0CAA0DA90E850F1B85101C85111D85D8
:10135800121EAD0BAC0A120FBA7402250EF50EE47C
:0A136800350DF50D051305138089FE
:011372002258
:0C143C008E358F368C378D388A398B3A0C
:10144800853B31853C321213F385393F853A40D3C9
:10145800E540953CE53F953B502C85354185364226
:10146800D3E5429538E54195375011AF3EAE3D1270
:10147800154C0542E54270E8054180E40540E54029
:0614880070CD053F80C994
:01148E00223B
:100C4D001213E5E4F54CF54DE4F54AF54BE4FD7F63
:100C5D00F812150B054BE54B7002054AC39428E5B8
:100C6D004A6480948040E6054DE54D7002054CC305
:100C7D0094F0E54C6480948040CEE4F54CF54D75D0
:100C8D004A00754B287DE07F0712150B054BE54B90
:100C9D007002054AC39450E54A6480948040E6058D
:100CAD004DE54D7002054CC394F0E54C6480948085
:100CBD0040CDE4F54CF54D754A00754B507D1FE464
:100CCD00FF12150B054BE54B7002054AC39478E5F1
:100CDD004A6480948040E6054DE54D7002054CC395
:100CED0094F0E54C6480948040CDE4F54CF54D7561
:100CFD004A00754B787DE07FFF12150B054BE54BD8
:100D0D007002054AC394A0E54A6480948040E605CC
:100D1D004DE54D7002054CC394F0E54C6480948014
:100D2D0040CDE4F54CF54D754A00754BA07D1F7F08
:100D3D00F812150B054BE54B7002054AC394C8E537
:100D4D004A6480948040E6054DE54D7002054CC324
:100D5D0094F0E54C6480948040CDE4F54CF54D75F0
:100D6D004A00754BC87DFF7F0712150B054BE54BF0
:100D7D007002054AC394F0E54A6480948040E6050C
:100D8D004DE54D7002054CC394F0E54C64809480A4
:100D9D0040CDE4F54CF54D754A00754BF012150735
:100DAD00054BE54B7002054AC39418E54A648094DF
:100DBD008140EA054DE54D7002054CC394F0E54CBC
:100DCD006480948040D1E4F54CF54D754A01754B26
:100DDD0018E4FDFF12150B054BE54B7002054AC3D8
:100DED009440E54A6480948140E7054DE54D7002DD
:0D0DFD00054CC394F0E54C6480948040CE1A
:010E0A0022C5
:10118F00E4F549F548F547F54675310175324012DA
:10119F0013ECE4F544F545E4F5431215070543E573
:1011AF0043C394F040F40545E54570020544C394EC
:1011BF004BE544940040E0E4F544F545E4F5431273
:1011CF0015070543E543C3943740F4E4F5437846E8
:1011DF001213B974002FF58274003EF583E493FF68
:1011EF00C0071213B974002FF58274003EF583E423
:1011FF0093FDD00712150B0543E543C3948240CEF0
:10120F00E4F5431215070543E543C3943740F4054E
:10121F0045E54570020544C394AAE5449400409CFB
:10122F00E4F544F545E4F5431215070543E543C3DB
:10123F0094F040F40545E54570020544C3944BE531
:05124F0044940040E0A2
:011254002277
:0314EE00E4FDFC1E
:0614F100AB05AA04AD07E3
:1014F7008A338B34E4FF12151EAD34AF3302150B5C
:04154C00AD07AC0635
:05155000AF0402150BC1
:10151E00C2A2C2A48F80C2A5D2A58D80C2A5D2A51B
:03152E00D2A22224
:041507007DFF7FFFE6
:10150B00C2A2D2A48F80C2A5D2A58D80C2A5D2A51E
:03151B00D2A22237
:0414CA007F057E001C
:1014CE00E4FDFCC3ED9FEC9E5015E4FBFA0BBB0054
:0F14DE00010ABA01F8BB04F50DBD00010C80E452
:0114ED0022DC
:100E0B007F327E001214CE7D007C017F011214F123
:100E1B007D007C077F021214F17D307C107F031262
:100E2B0014F17F041214EE7D077C027F081214F17B
:100E3B007F091214EEE4FDFC7F0A1214F1E4FDFCB1
:100E4B007F0C1214F1E4FDFC7F0D1214F1E4FDFC98
:100E5B007F0F1214F1E4FDFC7F101214F17D077C5F
:100E6B00007F111214F1E4FDFC7F121214F1E4FD6A
:100E7B00FC7F131214F17D907C127F101214F17D04
:100E8B00277C027F111214F17D1D7C007F1212143E
:100E9B00F17D007C157F131214F17D187C007F29E6
:100EAB001214F17D0D7C007F2B1214F17D047C005C
:100EBB007F301214F17D077C037F311214F17D0218
:100ECB007C007F321214F17D067C027F351214F107
:100EDB007D087C047F361214F17D077C057F371269
:100EEB0014F17D047C027F381214F17407FDFC7F32
:100EFB00391214F17D057C047F3C1214F17D027CC8
:100F0B000F7F3D1214F1E4FDFC7F501214F17DEFC5
:100F1B007C007F511214F1E4FDFC7F521214F17D21
:100F2B003F7C017F531214F17D007CA77F6012146C
:100F3B00F17D017C007F611214F1E4FDFC7F6A12EC
:100F4B0014F1E4FDFC7F801214F1E4FDFC7F8112AF
:100F5B0014F1E4FDFC7F821214F1E4FDFC7F83129B
:100F6B0014F1E4FDFC7F841214F1E4FDFC7F851287
:100F7B0014F17D107C007F901214F17D007C067FB4
:100F8B00921214F17D037C007F931214F17D107C7F
:100F9B00017F951214F1E4FDFC7F971214F1E4FD2F
:0F0FAB00FC7F981214F17D337C017F070214F153
:0E13E500753101753240E4FBFA7DF0FCFFFE2D
:1013F3008E2B8F2C8C2D8D2E8A2F8B30AD2CAC2BDE
:101403007F501214F1AD2EAC2D7F511214F1AD307B
:10141300AC2F7F521214F1AD32AC317F531214F161
:10142300AD2CAC2B7F201214F1AD30AC2F7F2112E9
:0914330014F17D22E4FF02151EF4
:03000000021540A6
:0C154000787FE4F6D8FD75814D0210AFF5
:10137300BB010689828A83E0225002E722BBFE0278
:09138300E32289828A83E49322AB
:10138C00BB010CE58229F582E5833AF583E0225016
:10139C0006E92582F8E622BBFE06E92582F8E22260
:0D13AC00E58229F582E5833AF583E493227A
:1013B9007401FF3395E0FEFDFC080808E6CF2FF61F
:1013C90018E6CE3EF618E6CD3DF618E6CC3CF622F8
:0C13D900A42582F582E5F03583F583221F
:00000001FF
