:100000000200F702001003000000000200100B00C5
:1000100000000002001013000000000200101B008E
:1000200000000002000329000000000200102B0065
:1000300000000002001033000000000200103B002E
:1000400000000002001043000000000200104B00FE
:1000500000000002001053000000000200105B00CE
:1000600000000002001063000000000200106B009E
:1000700000000002001073000000000200107B006E
:1000800000000002001083000000000200108B003E
:1000900000000002001093000000000200109B000E
:1000A000000000020010A300000000020010AB00DE
:1000B000000000020010B300000000020010BB00AE
:1000C000000000020010C300000000020010CB007E
:1000D000000000020010D300000000020010DB004E
:1000E000000000020010E300000000020010F30016
:1000F000000000020010FB75C7AA75C75575C60140
:1001000075C7AA75C755759D027592377800790035
:100110007401F59023000000D8FBD9F92325E07085
:10012000F17590FF0200012843878075985043893C
:1001300021758DF8438E1075885043980202000394
:10014000394D4F4E49544F522D3339302055534974
:100150004E472054494D4552203120464F522042AF
:10016000415544524154455300439001C299F59979
:10017000439001223099FD224390023098FDE59989
:10018000C29843900222C299D2AC22C2ACD2992228
:040190002222F02215
:1002000000000000000000000000000000000000EE
:1002100000000000000000000000000000000000DE
:1002200000000000000000000000000000000000CE
:1002300000000000000000000000000000000000BE
:1002400000000000000000000000000000000000AE
:10025000000000000000000000000000000000009E
:10026000000000000000000000000000000000008E
:10027000000000000000000000000000000000007E
:10028000000000000000000000000000000000006E
:10029000000000000000000000000000000000005E
:1002A000000000000000000000000000000000004E
:1002B000000000000000000000000000000000003E
:1002C000000000000000000000000000000000002E
:1002D000000000000000000000000000000000001E
:1002E000000000000000000000000000000000000E
:1002F000000000000000000000000000000000C03E
:10030000D0C0E0740310AF02C2E0804A110174E86B
:10031000110169110174E9110169110174EA1101F6
:1003200069110174EB11016922759055C0D0C0E0CC
:10033000740710AF02C2E0801D7400C0E07410C0EA
:10034000E07400C0E0C0D0C0E09001FFFEE4F074B3
:100350000110AF02C2E01200019175D000C082C04E
:1003600083C093C0867586009001FFECF0A3D0E0B7
:10037000F0A3D0E0F0A3D0E0F0A3D0E0F0A3E8F049
:10038000A3E9F0A3EAF0A3EBF0A3ECF0A3EDF0A354
:10039000EEF0A3EFF0A3D0E0F0D0E0A3F0D0E0A324
:1003A000F0D0E0A3F0D0E0A3F09001FFFEE0F8E48D
:1003B000F0E8600311018B9001FFECE030E20311E3
:1003C000070711017474FE11016911017474A511FC
:1003D0000169110178B4D6EA801C110174E8110199
:1003E00069110174EB110169110174EA11016911BC
:1003F0000174E911016911017810E011C811017847
:10040000F582110178F583110178F593C810E105A3
:10041000C8110178C8B4040C110174E0A31101697A
:10042000D8F680D2B4680D110174E493110169A368
:10043000D8F580C2B4CC0E110174A982E71101690C
:10044000A3D8F480B1B4D0177C00110178BC000BA4
:10045000A982F76760047C018001A3D8ED8054B4C1
:10046000B0111101747C00E02CFCA3D8FA110174C6
:10047000EC8080B41825ABC6110321A8F0A981AA8D
:100480009BAB9D11030CA8A8A995AA85AB84110369
:100490000C78129001FFEC02000418B4081D7C00D7
:1004A000110178BC000BF0FDE06D60047C0180015F
:1004B000A3D8ED110174EC020003F3B46C1C7C00B2
:1004C000110178BC001012000192F0FDE4936D6000
:1004D000047C018001A3D8E880D9B4AC0AA982AA1F
:1004E00083AB93020003DAB40C719001FFFEE8F0D5
:1004F00060031101869001FFFDE0C0E09001FFFC68
:10050000E0C0E09001FFFBE0C0E09001FFECE013F1
:10051000E5A892E7C0E09001FFEDE0C0E0A3E0C0F5
:10052000E0A3E0C0E0A3E0C0E0A3E0F8A3E0F9A30B
:10053000E0FAA3E0FBA3E0FCA3E0FDA3E0FEA3E060
:10054000FF9001FFFAE0F5D09001FFF9E0D082D0F2
:1005500083D093D086D0A802000190B4D40C1101AE
:10056000747483110169020003F6B49C0C78FF795E
:10057000087A077B00020003DAB4102F110178FC1F
:100580009001FFE074E5F0E8A3F07402A3F07400BA
:10059000A3F07405A3F074A1A3F01101740201FF8C
:1005A000E011016908DCD9020003F6B4143411012A
:1005B00078FC9001FFE074F5F0A3E8F0A37402F07A
:1005C0007400A3F07405A3F074D3A3F011017802B2
:1005D00001FFE008DCDC1101747401110169020003
:1005E00003F6B4B40B1101740201FFE0020003F33F
:1005F000B4A0028004020003F6AF95AE85AD8490EE
:1006000001FFFBE0F595A3E0F585A3E0F584E85450
:1006100007FC9001FFDF758621E0A3A3F0DCFA75EB
:100620008600E830E7037404F0A37402F07400A3BA
:10063000F07406A3F074ACA3F07402A3F07400A3EA
:10064000F07406A3F074A4A3F09001FFFBE595F00D
:10065000A3E585F0A3E584F08F958E858D849001C8
:10066000FFECE01392AFA3E0C0E0A3E0C0E0A3E0A2
:10067000C0E0A3E0C0E0A3E0F8A3E0F9A3E0FAA3A0
:10068000E0FBA3E0FCA3E0FDA3E0FEA3E0FFA3E00A
:10069000C0E0A3E0F5D0D0E0D082D083D093D08664
:1006A0000201FFE0C0D0C0E074018005C0D0C0E00E
:1006B000E475D000C082C083C093C0867586009068
:1006C00001FFFAF09001FFECE0A2AFC2AF92E0F0C0
:1006D000A3D0E0F0A3D0E0F0A3D0E0F0A3D0E0F00E
:1006E000A3E8F0A3E9F0A3EAF0A3EBF0A3ECF0A3F6
:1006F000EDF0A3EEF0A3EFF0A3D0E0F0A3E0F8D08C
:10070000E0F0E8020003F3320001200000001000D6
:100710000201FFE001000141000010000001EFFFB5
:1007200000000000000000000000100001000200B6
:0407300000000023A2
:00000001FF
