:1000B6007777772E646F666C79652E6E6574005758
:0A00C600656C636F6D6520746F00B8
:03014D00DFFE22B0
:10010100AE07AF061EEF600C7FF512014D7FF512B1
:05011100014D80EE220B
:100127007580FFC2A4D2A5C2A600D2A6E58033225D
:0C0099007F381200A57F051201017F389E
:1000A50012012740FBC2A4C2A5D2A68F8000C2A61A
:0100B5002228
:1001160012012740FBD2A4C2A5D2A68F8000C2A698
:0101260022B6
:0A0143007F011200A57F05020101F3
:10005200AE07ED7005EE24808003EE24C0FF12008F
:10006200A51200D0FF600C120116740129F9E43ABE
:04007200FA80EE2200
:1000E900AE07AC03ED7005EE24808003EE24C0FF5B
:0800F9001200A5AF040201167C
:100076001200997F051201011200997F081200A54E
:100086007F011200A57F061200A51F1201017F0C39
:030096000200A5C0
:100003001200767508017509FF750A00750BB612A3
:1000130001437BFF7A0079C5E4FD7F021200528021
:1000230020AB09AA0AA90B1200D0FB601B7D01AF0C
:10003300081200E905087401250BF50BE4350AF5F0
:0F0043000A7FFA12010180D97FFA12010180B4FD
:03000000020137C3
:0C013700787FE4F6D8FD75810B02000310
:1000D000BB010689828A83E0225002E722BBFE022E
:0900E000E32289828A83E4932261
:00000001FF
