:040EF0008E3D8F3E66
:100EF400757301757440E4FBFA7DF0FCFFFE120F7C
:100F040039E4F53FF540E4F541F542AF3EAE3D121C
:100F140011170542E54270020541C394F0E541947E
:100F24000040E80540E5407002053FC39440E53FBA
:040F3400940140D212
:010F38002296
:0310CC00E4FDFC44
:0610CF00AB05AA04AD0709
:1010D5008A758B76E4FF1210E5AD76AF750210F8D0
:04111700AD07AC066E
:05111B00AF040210F812
:1010E500C2A2C2A48F80C2A5D2A58D80C2A5D2A559
:0310F500D2A22262
:1010F800C2A2D2A48F80C2A5D2A58D80C2A5D2A536
:03110800D2A2224E
:10108F00E4FDFCC3ED9FEC9E5015E4FBFA0BBB0097
:0F109F00010ABA01F8BB04F50DBD00010C80E495
:0110AE00221F
:100A8D00C2A17F147E0012108FD2A17F3212108F5F
:100A9D007D007C017F011210CF7D007C077F02124B
:100AAD0010CF7D307C107F031210CF7F041210CC3D
:100ABD007D077C027F081210CF7F091210CCE4FD58
:100ACD00FC7F0A1210CFE4FDFC7F0C1210CFE4FD69
:100ADD00FC7F0D1210CFE4FDFC7F0F1210CFE4FD53
:100AED00FC7F101210CF7D077C007F111210CFE418
:100AFD00FDFC7F121210CFE4FDFC7F131210CF7D91
:100B0D00907C127F101210CF7D277C027F11121066
:100B1D00CF7D1D7C007F121210CF7D007C157F13C1
:100B2D001210CF7D187C007F291210CF7D0D7C0017
:100B3D007F2B1210CF7D047C007F301210CF7D07EC
:100B4D007C037F311210CF7D027C007F321210CFDB
:100B5D007D067C027F351210CF7D087C047F361216
:100B6D0010CF7D077C057F371210CF7D047C027F6F
:100B7D00381210CF7407FDFC7F391210CF7D057C24
:100B8D00047F3C1210CF7D027C0F7F3D1210CFE40D
:100B9D00FDFC7F501210CF7DEF7C007F511210CFE6
:100BAD00E4FDFC7F521210CF7D3F7C017F5312106C
:100BBD00CF7D007CA77F601210CF7D017C007F610F
:100BCD001210CFE4FDFC7F6A1210CFE4FDFC7F8094
:100BDD001210CFE4FDFC7F811210CFE4FDFC7F826B
:100BED001210CFE4FDFC7F831210CFE4FDFC7F8457
:100BFD001210CFE4FDFC7F851210CF7D107C007F9D
:100C0D00901210CF7D007C067F921210CF7D037C59
:100C1D00007F931210CF7D107C017F951210CFE4D1
:100C2D00FDFC7F971210CFE4FDFC7F981210CF7D55
:080C3D00337C017F070210CF98
:0C103B00AB50AA4FAD5EAC5DAF5CAE5B8D
:101047008A6B8B6C8D828C83AD07AC06AB82AA83CF
:10105700858373858274120F39AF6CAE6B021117DB
:100F39008E6D8F6E8C6F8D708A718B72AD6EAC6D8C
:100F49007F501210CFAD70AC6F7F511210CFAD72C0
:100F5900AC717F521210CFAD74AC737F531210CFA6
:100F6900AD6EAC6D7F201210CFAD72AC717F2112C6
:090F790010CF7D22E4FF0210E517
:0C07F1008E478F488C498D4A8A4B8B4CF8
:1007FD00C3E54C9548F552E54B9547F551C3E54E8C
:10080D00954AF554E54D9549F553E55425E0FFE539
:10081D005333FEC3EF9552F556EE9551F5558E5760
:10082D008F58C3E5549552FFE5539551FEEF25E0E2
:10083D00F55AEE33F559E4F55BF55CF55DF55EF5CE
:10084D005FF560F561F562F563F564F565F566F5DF
:10085D0067F568F569F56AE5524551706885475B3E
:10086D0085485CC3E54A954EE549954D5008854947
:10087D005D854A5E8006854D5D854E5EE4F569F5C4
:10088D006AC3E54A954EE549954D500DC3E54E9524
:10089D004AFFE54D9549FE800BC3E54A954EFFE5B0
:1008AD0049954DFED3E56A9FE5699E4003020A8C8A
:1008BD0012103B055EE55E7002055D056AE56A7026
:1008CD00C0056980BCE5544553706885495D854A0E
:1008DD005EC3E548954CE547954B500885475B85CC
:1008ED00485C8006854B5B854C5CE4F569F56AC315
:1008FD00E548954CE547954B500DC3E54C9548FFA4
:10090D00E54B9547FE800BC3E548954CFFE54795B4
:10091D004BFED3E56A9FE5699E4003020A8C1210D7
:10092D003B055CE55C7002055B056AE56A70C00518
:10093D006980BCD3E5529400E551648094804008F1
:10094D00755F00756001800EE552455170028002A1
:10095D0074FFF55FF560D3E5549400E5536480941E
:10096D00804008756100756201800EE55445537035
:10097D0002800274FFF561F562D3E548954CE547B9
:10098D00954B400CE548954CFFE547954BFE800B8C
:10099D00C3E54C9548FFE54B9547FE8E518F52D3DD
:1009AD00E54A954EE549954D400CE54A954EFFE5D6
:1009BD0049954DFE800BC3E54E954AFFE54D954992
:1009CD00FE8E538F54D3E5529554E5536480F8E56C
:1009DD005164809840088551638552648006855323
:1009ED006385546485475B85485C85495D854A5EB2
:1009FD00E4F569F56AE5642401FFE43563FED3E5AA
:100A0D006A9FE5699E507812103BE5522566F566A2
:100A1D00E5513565F565E5542568F568E5533567A8
:100A2D00F567D3E5669564E5636480F8E5656480F4
:100A3D00984018E5669564F566E5659563F565E599
:100A4D0060255CF55CE55F355BF55BD3E56895642A
:100A5D00E5636480F8E5676480984018E5689564FF
:100A6D00F568E5679563F567E562255EF55EE56119
:0F0A7D00355DF55D056AE56A70020569020A02DA
:010A8C002247
:100E84008E3D8F3E8C3F8D408A418B42853F4D8500
:100E9400404E85454F8546501207F185434D8544A4
:100EA4004E85454F854650AB3EAA3DAD40AC3FAF65
:100EB4003EAE3D1207F185434D85444E85454F8531
:100EC4004650AB42AA41AD40AC3FAF42AE411207DF
:100ED400F185434D85444E85454F854650AB42AA26
:0C0EE40041AD44AC43AF3EAE3D0207F10F
:101067000005000700090003000200060004000055
:101077000003000100050007000900030002000645
:08108700000400000003000159
:100526007F007E1F120EF012100675430075440BF5
:1005360075450075461F7B137A007D097C007F0197
:100546007E00120E8475430075441375450075468A
:100556001F7B0B7A007D017C007F097E00120E84D2
:100566002095FD120D12AC06AD07EC1203138F3069
:100576008E2F8D2E8C2D120DCBAC06AD07EC1203F3
:10058600138F348E338D328C3175430075440B7561
:10059600451F7546007B137A007D097C007F017E2E
:1005A60000120E8475430075441375451F75460089
:1005B6007B0B7A007D017C007F097E00120E843061
:1005C60095FD75430175443775450075461F7BEFEC
:1005D6007A007D357C017FDD7E00120E8475430135
:1005E60075443F75450075461F7BE77A007D2D7C77
:1005F600017FE57E00120E842095FD120D12AC06D9
:10060600AD07EC1203138F388E378D368C35120DED
:10061600CBAC06AD07EC1203138F3C8E3B8D3A8CA8
:100626003975430175443775451F7546007BEF7A6A
:10063600007D357C017FDD7E00120E8475430175D9
:10064600443F75451F7546007BE77A007D2D7C018A
:100656007FE57E00120E847FC87E0012108F2095E3
:10066600FD120D12AC06AD07EC1203138F288E2770
:100676008D268C25AB30AA2FA92EA82D120006E4B4
:10068600FBFA795C78431200FBC004C005C006C0C3
:1006960007AB30AA2FA92EA82DAF38AE37AD36AC92
:1006A60035120006A804A905AA06AB07D007D0068E
:1006B600D005D004120204E4FBFA79207841120036
:1006C6000A12034C8E218F22120DCBAC06AD07EC1D
:1006D6001203138F2C8E2B8D2A8C29AB34AA33A9A7
:1006E60032A831120006E4FBFA799678431200FB31
:1006F600C004C005C006C007AB34AA33A932A8316E
:10070600AF3CAE3BAD3AAC39120006A804A905AA27
:1007160006AB07D007D006D005D004120204E4FBCE
:10072600FA7920784112000A12034C8E238F247F17
:10073600007EF07D7F7C45AB28AA27A926A8251236
:1007460002A160054003020667E4FFFEFDFCAB283C
:10075600AA27A926A8251202A150030206677F0030
:100766007EF07D7F7C45AB2CAA2BA92AA8291202F4
:10077600A160054003020667E4FFFEFDFCAB2CAA60
:100786002BA92AA8291202A15003020667D3E52243
:1007960094BEE52194004026D3E52294DCE521941D
:1007A60000501BE524944AE52394014011E5249466
:1007B60054E5239401500774FFFFFE120EF0D3E5B3
:1007C600249400E52394005003020664E524944033
:1007D600E523940140030206647B1F7A00AD24AC36
:0B07E60023AF22AE21120C4502066476
:100C45008E3D8F3E8C3F8D408A418B42E53E24FF91
:100C5500FFE53D34FFFE121047E54024FFFDE53F6B
:100C650034FFFCAB42AA41AF3EAE3D121047E53E14
:100C750024FFFFE53D34FFFEE54024FFFDE53F345D
:100C8500FFFCAB42AA41121047AB42AA41AD40ACB2
:100C95003FAF3EAE3D121047E53E2401FFE4353D32
:100CA500FEAB42AA41AD40AC3F121047E5402401DE
:100CB500FDE4353FFCAB42AA41AF3EAE3D121047C5
:100CC500E53E2401FFE4353DFEE5402401FDE43524
:100CD5003FFCAB42AA41121047E53E24FFFFE53D2C
:100CE50034FFFEE5402401FDE4353FFCAB42AA415B
:100CF500121047E53E2401FFE4353DFEE54024FFA3
:0D0D0500FDE53F34FFFCAB42AA4102104760
:10100600C291C292C2907FA01210AFC292D290C279
:10101600907FE01210AFC292D290C2907FF0121071
:10102600AFC292D290C2907F801210AFC292D2907D
:05103600C290D29122DE
:100F8200E4F557F558C2917FD01210AFC292D290B9
:100F9200C290A2949200A200E4334258E4FDE558C4
:100FA20025E0F558E55733F557D290C290A29492B6
:100FB20000A200E43342580DBD0BE3D291AE57AF0D
:010FC20058D6
:010FC300220B
:100FC400E4F557F558C2917F901210AFC292D290B7
:100FD400C290A2949200A200E4334258E4FDE55882
:100FE40025E0F558E55733F557D290C290A2949274
:100FF40000A200E43342580DBD0BE3D291AE57AFCB
:011004005893
:0110050022C8
:1010AF00C291C292C290E4FEEF339201A2019292DA
:0C10BF00D290C290EF25E0FF0EBE08ECBE
:0110CB002202
:100D1200E4F53DF53E783F7C00FD7BFF7A10796774
:100D2200FE7F1412049DE4F553F554F555F5561261
:100D32000F82E53E25E0243FF8A60608A607053EF9
:100D4200E53EC3940A40E8E53E640A7077E4FFF5A5
:100D52003DE53E14FEE53DC39E504BE53D25E024B6
:100D620041F8E6FC08E6FDE53D25E0243FF8E6FA19
:100D720008E6D39DEA9C402A8C538D54E53D25E03C
:100D8200243FF8E6FE08E6FFE53D25E02441F8A60B
:100D92000608A607E53D25E0243FF8A65308A65419
:100DA2007F01053D80ABEF70A4E5462548CFE545C0
:100DB2003547CF254ACF3549FE7C007D031204C357
:080DC2008E558F56AE55AF5659
:010DCA002206
:100DCB00E4F53DF53E783F7C00FD7BFF7A10797BA7
:100DDB00FE7F1412049DE4F553F554F555F55612A8
:100DEB000FC4E53E25E0243FF8A60608A607053EFE
:100DFB00E53EC3940A40E8E53E640A7077E4FFF5EC
:100E0B003DE53E14FEE53DC39E504BE53D25E024FC
:100E1B0041F8E6FC08E6FDE53D25E0243FF8E6FA5F
:100E2B0008E6D39DEA9C402A8C538D54E53D25E082
:100E3B00243FF8E6FE08E6FFE53D25E02441F8A651
:100E4B000608A607E53D25E0243FF8A65308A6545F
:100E5B007F01053D80ABEF70A4E5462548CFE54506
:100E6B003547CF254ACF3549FE7C007D031204C39D
:080E7B008E558F56AE55AF569F
:010E8300224C
:08112000120A8D12052680FE63
:100003000203B8E86480F8E933E83360110460F070
:10001300ED33EC337009E8FCE9FDEAFEEBFF220463
:1000230060DED3EB9FEA9EE99DE8C2E78CF0C2F75E
:1000330095F0400CE8CCF8E9CDF9EACEFAEBCFFB2A
:1000430012038385D0F05804700320D5B3E80470FD
:10005300075002B2D50203C292D5EC0460F7E4CC98
:10006300C0E0C398F8603B94186008400DD0E0FBF3
:1000730002039AE4FBFAC9FC8028E830E406E4C9E9
:10008300FBE4CAFCE830E305E4C9CACBFCE8540747
:100093006010F8C3E913F9EA13FAEB13FBEC13FC52
:1000A300D8F130F52FC3E49CFCEF9BFFEE9AFEEDF5
:1000B30099FDD0E0FBEF4E4D4C701222DB0302039F
:1000C300BFEC2CFCEF33FFEE33FEED33FDED30E7F9
:1000D300EB02039AEF2BFFEE3AFEED39FDD0E0FB86
:1000E30050130BBB00030203C2ED13FDEE13FEEF2F
:0800F30013FFEC13FC02039A59
:1000FB00EC4D6011E8497017ED33EC3304600DE4FF
:10010B00FCFFFEFD22E933E8330470F80203B8125A
:10011B00038358046009E4CC24815006285009025B
:10012B0003C22840030203BFC0E0EB4A7044B9800E
:10013B0006D0E0FB0203AEEF4E701CBD8008EBFF58
:10014B00EAFEE9FD80EBE98DF0A4FEE5F00201E4A7
:10015B00E9CDF9EAFEEBFFEF89F0A4FCE5F0CE89DF
:10016B00F0A42EFFE435F0CD89F0A42DFEE435F09C
:10017B008067EF4E7005BD80D780C3EF8BF0A4ACCA
:10018B00F0EE8BF0A42CFCE435F0F8EF8AF0A42C05
:10019B00E5F038FCE433CB8DF0A42CFCE5F03BF818
:1001AB00EE8AF0A42CFCE5F038F8E433CF89F0A408
:1001BB002CFCE5F038CF3400CE89F0A42FFFE5F00E
:1001CB003EFEE433C98DF0A42EFEE5F039CD8AF066
:1001DB00A42FFFE5F03EFEE43DFD33D0E0FB5007DE
:1001EB000BBB000F0203C2EC2CFCEF33FFEE33FE14
:0601FB00ED33FD02039A42
:100201000203C2EC5D046005E8590470030203B8FF
:10021100120383580460F6EC4860F2EC7004FDFEB2
:10022100FF22C860DB2481C85009C39860025006D0
:100231000203BF9850CAF582E9294B4A7005AB8287
:100241000203AE75F0007C1A7880C3EF9BEE9AED45
:1002510099400DC3EF9BFFEE9AFEED99FDE842F048
:10026100DC23ACF0D0E0FFD0E0FED0E0FDAB82209B
:10027100E7101BEB60BAEC2CFCEF33FFEE33FEED25
:1002810033FD02039AE803F830E705C0F075F0008A
:10029100EF2FFFEE33FEED33FD40B830E7C280AA09
:1002A10074F8CC6480CCC86480C8F582046043C310
:1002B100EB9FF5F0EA9E42F0E99D42F0E89C45F0A3
:1002C10060305018E5825FFFE582F42B5582FB50C8
:1002D100210ABA001D09B90019088016E5825BFBE5
:1002E100E582F42F5582FF50090EBE00050DBD00B9
:1002F100010CC3EB9FF5F0EA9E42F0E99D42F0E864
:0D0301009C45F06007CC4820E701B3EC22DA
:10030E0075F020800E75F010800575F0087D007E6A
:10031E00007F003392D530D503120518EC33401010
:10032E00EF33FFEE33FEED33FDEC33FCD5F0ED2273
:0E033E00E5F0247EA2D513CC92E7CDCEFF22AF
:10034C00EDD2E7CD33EC3392D524814006E4FFFEA9
:10035C00FDFC22FCE4CFCECDCC24E0501174FF8008
:10036C00EDC3CC13CCCD13CDCE13CECF13CF0470A5
:07037C00F030D5DE02051888
:10038300E9D2E7C933E833F892D5EDD2E7CD33ECC0
:0703930033FC5002B2D52239
:10039A00EC30E7100FBF000C0EBE00080DBD0004C4
:1003AA000BEB6014A2D5EB13FCED92E7FD2274FF70
:1003BA00FCFDFEFF22E480F8A2D574FF13FC7D80C9
:0303CA00E480EFDD
:0300000002110BDF
:0C110B00787FE4F6D8FD75817602112093
:1003CD00E709F608DFFA8046E709F208DFFA803E12
:1003DD0088828C83E709F0A3DFFA8032E309F608FF
:1003ED00DFFA8078E309F208DFFA807088828C8367
:1003FD00E309F0A3DFFA806489828A83E0A3F6081B
:10040D00DFFA805889828A83E0A3F208DFFA804CF4
:10041D0080D280FA80C680D4806980F280338010CB
:10042D0080A680EA809A80A880DA80E280CA803334
:10043D0089828A83ECFAE493A3C8C582C8CCC583AC
:10044D00CCF0A3C8C582C8CCC583CCDFE9DEE7807C
:10045D000D89828A83E493A3F608DFF9ECFAA9F0FB
:10046D00EDFB2289828A83ECFAE0A3C8C582C8CC51
:10047D00C583CCF0A3C8C582C8CCC583CCDFEADE6A
:10048D00E880DB89828A83E493A3F208DFF980CCCC
:10049D0088F0EF60010E4E60C388F0ED2402B404C5
:1004AD000050B9F582EB2402B4040050AF2323456C
:0604BD00822390041D7370
:1004C300BC000BBE0029EF8DF084FFADF022E4CC1D
:1004D300F875F008EF2FFFEE33FEEC33FCEE9DECE6
:1004E300984005FCEE9DFE0FD5F0E9E4CEFD22ED2C
:1004F300F8F5F0EE8420D21CFEADF075F008EF2F76
:10050300FFED33FD4007985006D5F0F222C398FD66
:050513000FD5F0EA2203
:0E051800C3E49FFFE49EFEE49DFDE49CFC22F4
:00000001FF
