:100003007777772E646F666C79652E6E6574004919
:10001300204C4F5645204D59204A4F422000C9CF0E
:10002300BAA3BAC6EBE0B5E7D7D3BFC6BCBCD3D03F
:10003300CFDEB9ABCBBE00D7A8D2B5BCBCCAF5D610
:10004300A7B3D6C2DBCCB300D7A8D2B5BFAAB7A299
:10005300B0E5B9A4BFD8B0E5003132333435363713
:10006300383930006162636465666768696A6B6C1E
:100073006D6E6F707169737475767778797A0060D5
:100083002C2E2F3C3E273B3A5B5D7B7D7C3F292812
:100093002D3D2B2A265E252400CED200B0AE00B51E
:1000A300A500C6AC00BBFA00000000000000000081
:1000B300000000000000000000000000000000003D
:1000C300000000000000000000000000000000002D
:1000D300000000000000000000000000000000001D
:1000E300000000000000000000000000000000000D
:1000F30000000000000000000000000000000000FD
:1001030000000000000000000000000000000000EC
:1001130000000000000000000000000000000000DC
:1001230000000000000000000000000000000000CC
:1001330000000000000000000000000000000000BC
:1001430000000000000000000000000000000000AC
:10015300000000000000000000000000000000009C
:10016300000000000000000000000000000000008C
:10017300000000000000000000000000000000007C
:10018300000000000000000000000000000000006C
:10019300000000000000000000000000000000005C
:1001A300000000000000000000000000000000004C
:1001B300000000000000000000000000000000003C
:1001C300000000000000000000000000000000002C
:1001D300000000000000000000000000000000001C
:1001E300000000000000000000000000000000000C
:1001F30000000000000000000000000000000000FC
:1002030000000000000000000000000000000000EB
:1002130000000000000000000000000000000000DB
:1002230000000000000000000000000000000000CB
:1002330000000000000000000000000000000000BB
:1002430000000000000000000000000000000000AB
:10025300000000000000000000000000000000009B
:10026300000000000000000000000000000000008B
:10027300000000000000000000000000000000007B
:10028300000000000000000000000000000000006B
:10029300000000000000000000000000000000005B
:1002A300000000000000000000000000000000004B
:1002B30000000000000000000000001010101010EB
:1002C300100010100000000000000024242400008F
:1002D300000000000000000000000024247E24240D
:1002E300247E242400000000000000107C90907CF9
:1002F30012127C100000000000000000626408106D
:10030300204C8C0000000000000000001824205046
:100313008A844A3000000000000000101020000012
:100323000000000000000000000008102020202032
:1003330020202010080000000000201008080808F2
:1003430008080810200000000000000000105438C6
:100353003854100000000000000000000010107C62
:10036300101000000000000000000000000000006A
:100373000000101020000000000000000000007CBE
:10038300000000000000000000000000000000006A
:10039300000000100000000000000000000204083C
:1003A30010204000000000000000003844444C547A
:1003B30064444438000000000000001030101010A6
:1003C3001010103800000000000000384404040836
:1003D3001020407C000000000000007C040810385E
:1003E30004040478000000000000000818284848AE
:1003F3007C080808000000000000007C40404078B2
:1004030004040478000000000000003C40404078F1
:1004130044444438000000000000007C0404081039
:10042300202020200000000000000038444444380D
:100433004444443800000000000000384444443C75
:100443000404043800000000000000000000001055
:100453000000100000000000000000000000000089
:10046300100010102000000000000000000408101D
:100473002010080400000000000000000000007CC1
:10048300007C0000000000000000000000201008B5
:100493000408102000000000000038444404081041
:1004A3001000101000000000000000000038445C41
:1004B300545C403C00000000000018244242427E8D
:1004C300424242420000000000007C4242427C4221
:1004D3004242427C0000000000003C424040404059
:1004E3004040423C0000000000007C424242424245
:1004F3004242427C0000000000007E4040407840C1
:100503004040407E0000000000007E4040407840B4
:10051300404040400000000000003C4240405E423A
:100523004242423C000000000000424242427E42FE
:100533004242424200000000000038101010101028
:10054300101010380000000000001C0808080808FC
:100553000808483000000000000042444850606032
:1005630050484442000000000000404040404040EA
:100573004040407E0000000000008282C6C6AAAA56
:100583009292828200000000000042626252524A4C
:100593004A4646420000000000003C4242424242BA
:1005A3004242423C0000000000007C424242427C46
:1005B300404040400000000000003C4242424242B2
:1005C30042424A3C0E00000000007C424242427C10
:1005D300504844420000000000003C4240403C02BE
:1005E3000202423C0000000000007C1010101010BA
:1005F300101010100000000000004242424242422C
:100603004242423C00000000000044444444282885
:1006130028101010000000000000828282825454CF
:10062300542828280000000000004242241818180B
:10063300242442420000000000004444444428288B
:10064300101010100000000000007E0202040810C9
:100653002040407E000000000000382020202020A1
:10066300202020380000000000000000000040208F
:10067300100804020000000000001C040404040429
:100683000404041C000000000000000010284400C3
:100693000000000000000000000000000000000057
:1006A30000000000FF000000000000101008000020
:1006B3000000000000000000000000000078043C7F
:1006C3004444443A0000000000004040405C624261
:1006D3004242625C0000000000000000003C424017
:1006E3004040423C0000000000000202023A464241
:1006F3004242463A0000000000000000003C424233
:100703007E40423C0000000000000E1010103C1020
:10071300101010100000000000000000003E4242D4
:1007230042423E02023C000000004040405C624204
:10073300424242420000000000000008000808088E
:100743000808080800000000000000040004040476
:10075300040404044438000000004040404244487C
:1007630050684442000000000000101010101010E8
:1007730010101010000000000000000000EC929226
:10078300929292920000000000000000007C42421E
:10079300424242420000000000000000003C42428E
:1007A3004242423C0000000000000000005C624244
:1007B3004242625C4040000000000000003A4642B2
:1007C3004242463A0202000000000000005C624020
:1007D300404040400000000000000000003C424058
:1007E3003C02423C00000000000000202078202052
:1007F3002020221C000000000000000000424242B2
:100803004242423E0000000000000000004242421B
:10081300424224180000000000000000008282828F
:100823009292AA440000000000000000004242240B
:10083300182442420000000000000000004242422F
:1008430042423E02023C000000000000007E02041F
:100853001820407E00000000000008101010204007
:1008630020101010080000000010101010101010BD
:1008730010101010101010000000201010100804A9
:100883000810101020000000000000000000225497
:1008930088000000000000000000000000000000CD
:1008A3000000000000000000C9CF000000010001AB
:1008B3000001000100010001F80100010001000135
:1008C300000100010001047FFE0000BAA300210023
:1008D300110011FE020097F85288524812082FFEA9
:1008E3002288E248220823FE200820282010BAC6C6
:1008F3000020401040124003FC8A404C40504017F7
:10090300FE10002000E3FC22042204220423FC2224
:1009130004EBE00000007FFE48404888798C4E508D
:1009230048A049307A704CA849284A264C244820CC
:10093300A8A09040B5E7000100010001003FF821A5
:100943000821083FF82108210821083FF821080160
:1009530002010200FE0000D7D30000003FF0002098
:1009630000400080010001000104FFFE01000100BE
:1009730001000100010005000200BFC6000608785F
:100983008808480848FE0818881C482A48280E4842
:10099300788B8808080808080808080808BCBC0001
:1009A300102010201020FDFE1020142019FC310807
:1009B300D0881090106010601090110E5604200023
:1009C300D3D000010001007FFE020004000FF018E5
:1009D3001028104FF0881008100FF0081008900826
:1009E300700820CFDE000000FBF8920893F8A208FD
:1009F300A20893F88A808A48AA5092208220821003
:100A0300828E83048200B9AB0000000440064004D8
:100A130040082008101018220E4304020004200886
:100A23001011F83F1810100000CBBE0000003FFC6F
:100A3300000400047FE4000400043FC42044204475
:100A43003FC420442004001400080000D7A800017C
:100A53000001003FF802000200FFFE040008200F1F
:100A6300F00020004002800100008000400000D21E
:100A7300B50004400440044004444446244C244844
:100A830014501C501460044004400444FFFE000052
:100A93000000BFAA0000007FFE04200420042004FD
:100AA30020FFFE042004200420082008201020201A
:100AB3002040200000B7A200020022402230221072
:100AC3007FFE2400040007E00C200A200A201140C6
:100AD30020804160861C1808B0E500101C11E0114D
:100AE300001100FD0011FC398435485548523092FD
:100AF3001012301448108E11040000B9A400000035
:100B03003FFC0100010001000100010001000100A0
:100B13000100010001000100FFFE00000000BFD83A
:100B230000100010201010FDFE11041050148C1939
:100B3300043000D1FC102010201020102053FE2080
:100B430000C9E800400021F031102110011001100C
:100B5300E20E25F82108210820902090286030908B
:100B6300230E0C04B1B80008000FF0082014202253
:100B730040418002400C30301EDFF411101FF01191
:100B83001011101FF01010BCBC00102010201020FA
:100B9300FDFE1020142019FC3108D088109010603D
:100BA30010601090110E56042000CAF500010001D8
:100BB3002001100100FFFE0100038005400520090C
:100BC300101118210EC104010001000000D6A70076
:100BD3000100010001007FFE010001001FF8081061
:100BE300042004200240018002400C30700E0004F7
:100BF300B3D6001040104013FCFC40104017FE1405
:100C030010181037FED010111010D0109010105083
:100C1300502020C2DB004040204030A0209001083B
:100C23000206E5042110213821C0210025002904F2
:100C3300310420FC0000CCB300000011FC100010B4
:100C4300001000FC0013FE1040106010801C88315F
:100C530004C27E07C602040000CED20000000000DA
:100C6300000000000009C000007DF80003FDCE0075
:100C73003FC1C70000C1C70000C1C30000C1C3001A
:100C830000C1C0C03FFFFFE020C0C00000C0C200E1
:100C930000C0C78000C2C78000DECF0000F8CE00CE
:100CA3000FE0FC007FC0F8003CC0780030C070202B
:100CB30000C1F82000C3B82000C71E2000DC0F606D
:100CC3000FF007E003C003F0018000700000000094
:100CD300000000000000000000000000B0AE0000B3
:100CE3000000000000030000003F80003FFF800F72
:100CF300FF060001860F0000C30E0000E39C0008FE
:100D0300639800084110C00FFFFFE0181801C038B6
:100D13001C0180381C03000FFFFF000FFFFF0000C2
:100D2300380000003FFC00003FFE00007C1C000078
:100D33006C380000C6700001C3E0000381C00007E7
:100D430007FC000C1E3FF038F80FE003C000C000A2
:100D5300000000000000000000000000000000B5DB
:100D6300A500000000000080300000E038000070A3
:100D7300380000386000003860000610C60007FF26
:100D8300FF0007060600070606000706060007FF22
:100D9300FE0007FFFE00070606000706060007061B
:100DA300060007FFFE000706060006060000000611
:100DB30000E07FFFFFF020060000000600000006B1
:100DC3000000000600000006000000060000000608
:100DD3000000000000000000000000000000000010
:100DE3000000C6AC00000000000000C0000100F0DD
:100DF3000001C0E00001C0E0000180E0000180E0EC
:100E0300000180E0000180E0800180E1C001FFFF7C
:100E1300E0018000000180000001800000018030BB
:100E23000001FFF80001FFF800018030000380306B
:100E3300000380300003003000070030000600305C
:100E4300000E0030000C0030001800300030003875
:100E5300002000300000000000000000000000003F
:100E63000000000000BBFA000000000003000000C7
:100E730003800000030606000307FF0003070F00BB
:100E830003070E0003370E007FF70E003FFF0E002F
:100E930003070E0007070E0007870E0007E70E0083
:100EA3000F770E000F3F0E000F170E001B070E00EB
:100EB3001B060E0033060E0033060E20630E0E6073
:100EC300430C0E60031C0E6003180E70033007F012
:100ED300036007E003400000000000000000000082
:080EE300000000000000000007
:10126600D2A21218ECC2A11218ECD2A11218EC12DA
:1012760010B77F1F7E001218A37BFF7A00790374D4
:10128600FFF50FF51075110075121F7D28121678DF
:101296007BFF7A007912E4F50FF510F51175121F30
:1012A6007D3CFCFFFE12167D7BFF7A007921750FCF
:1012B600F875101F75110075121F7D501216787B78
:1012C600FF7A00793A750F0575101F7511007512B2
:1012D6001F7D641216787BFF7A00794B750FF875BF
:1012E600100075110075121F7D781216787BFF7A33
:1012F60000795C750F077510E075110075121F7D7A
:101306008C1216787BFF7A007967750F7F7510FF50
:1013160075110075121F7DA01216787BFF7A007971
:1013260082750FFF7510E075110075121F7DB412DE
:1013360016787BFF7A00799C74FFF50FF51075110E
:101346000075121F7DC87C00E4FFFE1213DB7BFFD5
:101356007A00799F74FFF50FF51075110075121F4D
:101366007F201213D57BFF7A0079A274FFF50FF563
:101376001075110075121F7F401213D57BFF7A007E
:1013860079A574FFF50FF51075110075121F7DC84C
:101396007C007F607E001213DB7BFF7A0079A874E5
:1013A600FFF50FF51075110075121F7DC87C007FC3
:1013B600807E001213DB7BFF7A00794B74FFF50FFA
:0F13C600F51075110075121F7DF012167880FE5C
:0418A3008E088F0913
:1018A700753101753240E4FBFA7DF0FCFFFE12183A
:1018B70007E4F50AF50BE4F50CF50DAF09AE0812D0
:1018C700196E050DE50D7002050CC394F0E50C9437
:1018D7000040E8050BE50B7002050AC39440E50AD2
:0418E700940140D256
:0118EB0022DA
:061706008B218D828C8313
:0B170C00EF24071217F4E4F526F52780
:10171700AF21EF3395E0FEEFC4F8540FC868FFEE32
:10172700C454F048FEE5272FFFE5263EFE74AB2F95
:10173700F58274003EF583E493F52AE4F528F5294C
:10174700E52A30E706AF23AE228004AF25AE241288
:10175700196EE52A25E0F52A0529E52970020528ED
:09176700C39408E528940040D762
:101770000527E52770020526C39410E5269400404E
:0117800096D2
:011781002245
:0F195300851922851A23851B24851C250217065A
:0A14C9008B188A19891A8D828C8312
:1014D300EF240F1217F4E4F523F524AB18AA19A986
:1014E3001A121782FF9008AB75F023E5241217E850
:1014F300E52375F023A42583F583E4936F6003024A
:10150300159690000112179BFF9008AC75F023E528
:10151300241217E8E52375F023A42583F583E493C8
:071523006F7070F51FF52049
:10152A009008AE75F023E5241217E8E52375F02339
:10153A00A42583F583E5822520F582E583351FF509
:10154A0083E493752500F526E4F521F522E5263096
:10155A00E706AF1CAE1B8004AF1EAE1D12196EE566
:10156A002625E0F526E52533F5250522E522700234
:0B157A000521C39408E521940040D235
:101585000520E5207002051FC39420E51F94004047
:10159500940524E52470020523C39440E5239400B3
:0515A50050030214DEFA
:0115AA00221E
:0613D5007DC87C007E00D3
:0A13DB008B0C8A0D890E8D828C8325
:1013E500EF241FFDE43EFCAB82AA83E582241F1295
:1013F5001800E4F517F518AB0CAA0DA90E12178203
:10140500FF900C5C75F083E5181217E8E51775F089
:1014150083A42583F583E4936F60030214B49000DD
:101425000112179BFF900C5D75F083E5181217E804
:10143500E51775F083A42583F583E4936F7070F544
:0314450013F51488
:10144800900C5F75F083E5181217E8E51775F083BF
:10145800A42583F583E5822514F582E5833513F504
:1014680083E493751900F51AE4F515F516E51A30B5
:10147800E706AF10AE0F8004AF12AE1112196EE579
:101488001A25E0F51AE51933F5190516E51670025F
:0B1498000515C39408E515940040D230
:1014A3000514E51470020513C39480E513940040FA
:1014B300940518E51870020517C39405E517940001
:0514C30050030213FCC0
:0114C8002201
:051678007C00E4FFFE10
:0E167D008E088F098C0A8D0B8B0C8A0D890E3E
:10168B00E4F513AB0CAA0DA90E121782606CC39470
:10169B0080E51375F008502FA42509FFE50835F0F8
:1016AB00FE121782FB850F1985101A85111B8512E7
:1016BB001CAD0BAC0A1219537401250EF50EE43553
:1016CB000DF50D051380BCA42509FFE50835F0FECB
:1016DB00AB0CAA0DA90E850F1B85101C85111D8542
:1016EB00121EAD0BAC0A1214C97402250EF50EE4D2
:0A16FB00350DF50D05130513808968
:0117050022C1
:0C1850008E358F368C378D388A398B3AF4
:10185C00853B31853C3212180785393F853A40D398
:10186C00E540953CE53F953B502C8535418536420E
:10187C00D3E5429538E54195375011AF3EAE3D1258
:10188C00196E0542E54270E8054180E40540E540EB
:06189C0070CD053F80C97C
:0118A2002223
:100EEB00753101753240E4FBFA7DF0FCFFFE121800
:100EFB0007E4F54CF54DE4F54AF54BE4FD7FF812AC
:100F0B00192D054BE54B7002054AC39428E54A643D
:100F1B0080948040E6054DE54D7002054CC394F07E
:100F2B00E54C6480948040CEE4F54CF54D754A0059
:100F3B00754B287DE07F0712192D054BE54B700291
:100F4B00054AC39450E54A6480948040E6054DE51C
:100F5B004D7002054CC394F0E54C6480948040CDF9
:100F6B00E4F54CF54D754A00754B507D1FE4FF12AF
:100F7B00192D054BE54B7002054AC39478E54A647D
:100F8B0080948040E6054DE54D7002054CC394F00E
:100F9B00E54C6480948040CDE4F54CF54D754A00EA
:100FAB00754B787DE07FFF12192D054BE54B7002D9
:100FBB00054AC394A0E54A6480948040E6054DE55C
:100FCB004D7002054CC394F0E54C6480948040CD89
:100FDB00E4F54CF54D754A00754BA07D1F7FF8125B
:100FEB00192D054BE54B7002054AC394C8E54A64BD
:100FFB0080948040E6054DE54D7002054CC394F09E
:10100B00E54C6480948040CDE4F54CF54D754A0079
:10101B00754BC87DFF7F0712192D054BE54B7002F1
:10102B00054AC394F0E54A6480948040E6054DE59B
:10103B004D7002054CC394F0E54C6480948040CD18
:10104B00E4F54CF54D754A00754BF0121929054B1B
:10105B00E54B7002054AC39418E54A6480948140BD
:10106B00EA054DE54D7002054CC394F0E54C6480E8
:10107B00948040D1E4F54CF54D754A01754B18E45D
:10108B00FDFF12192D054BE54B7002054AC3944029
:10109B00E54A6480948140E7054DE54D7002054CAF
:0B10AB00C394F0E54C6480948040CEBC
:0110B6002217
:1015AB00E4F549F548F547F546753101753240FBD1
:1015BB00FA7DF0FCFFFE121807E4F544F545E4F55F
:1015CB00431219290543E543C394F040F40545E55F
:1015DB004570020544C3944BE544940040E0E4F5A8
:1015EB0044F545E4F5431219290543E543C3943704
:1015FB0040F4E4F54378461217C874002FF5827453
:10160B00003EF583E493FFC0071217C874002FF553
:10161B008274003EF583E493FDD00712192D054328
:10162B00E543C3948240CEE4F5431219290543E503
:10163B0043C3943740F40545E54570020544C39414
:10164B00AAE5449400409CE4F544F545E4F54312C7
:10165B0019290543E543C394F040F40545E545706E
:0C166B00020544C3944BE544940040E0A9
:011677002250
:03191000E4FDFCF7
:06191300AB05AA04AD07BC
:101919008A338B34E4FF121940AD34AF3302192DE9
:04196E00AD07AC060F
:05197200AF0402192D75
:10194000C2A2C2A48F80C2A5D2A58D80C2A5D2A5F5
:03195000D2A222FE
:041929007DFF7FFFC0
:10192D00C2A2D2A48F80C2A5D2A58D80C2A5D2A5F8
:03193D00D2A22211
:0418EC007F057E00F6
:1018F000E4FDFCC3ED9FEC9E5015E4FBFA0BBB002E
:0F190000010ABA01F8BB04F50DBD00010C80E42B
:01190F0022B5
:1010B7007F327E001218F07D007C017F0112191328
:1010C7007D007C077F021219137D307C107F03128D
:1010D70019137F041219107D077C027F0812191358
:1010E7007F09121910E4FDFC7F0A121913E4FDFCB5
:1010F7007F0C121913E4FDFC7F0D121913E4FDFC9C
:101107007F0F121913E4FDFC7F101219137D077C62
:10111700007F11121913E4FDFC7F12121913E4FD6D
:10112700FC7F131219137D907C127F101219137D07
:10113700277C027F111219137D1D7C007F12121963
:10114700137D007C157F131219137D187C007F29EE
:101157001219137D0D7C007F2B1219137D047C005F
:101167007F301219137D077C037F311219137D021B
:101177007C007F321219137D067C027F351219130A
:101187007D087C047F361219137D077C057F371293
:1011970019137D047C027F381219137407FDFC7F35
:1011A700391219137D057C047F3C1219137D027CCB
:1011B7000F7F3D121913E4FDFC7F501219137DEFC9
:1011C7007C007F51121913E4FDFC7F521219137D25
:1011D7003F7C017F531219137D007CA77F60121992
:1011E700137D017C007F61121913E4FDFC7F6A12F5
:1011F7001913E4FDFC7F80121913E4FDFC7F8112B3
:101207001913E4FDFC7F82121913E4FDFC7F83129E
:101217001913E4FDFC7F84121913E4FDFC7F85128A
:1012270019137D107C007F901219137D007C067FB7
:10123700921219137D037C007F931219137D107C82
:10124700017F95121913E4FDFC7F97121913E4FD32
:0F125700FC7F981219137D337C017F0702191356
:1017F400FDE43EFCAB82AA83E582240FF532E43596
:0318040083F53138
:101807008E2B8F2C8C2D8D2E8A2F8B30AD2CAC2BC5
:101817007F50121913AD2EAC2D7F51121913AD3015
:10182700AC2F7F52121913AD32AC317F53121913FB
:10183700AD2CAC2B7F20121913AD30AC2F7F2112AA
:0918470019137D22E4FF0219408F
:0300000002196280
:0C196200787FE4F6D8FD75814D02126616
:10178200BB010689828A83E0225002E722BBFE0265
:09179200E32289828A83E4932298
:10179B00BB010CE58229F582E5833AF583E0225003
:1017AB0006E92582F8E622BBFE06E92582F8E2224D
:0D17BB00E58229F582E5833AF583E4932267
:1017C8007401FF3395E0FEFDFC080808E6CF2FF60C
:1017D80018E6CE3EF618E6CD3DF618E6CC3CF622E5
:0C17E800A42582F582E5F03583F583220C
:00000001FF
