:10017800507265737320746865206B65792021005F
:1001880030313233343536373839414243444546C5
:03021900DFFE22E3
:1001CD00AE07AF061EEF600C7FF51202197FF51218
:0501DD00021980EE2272
:1001F3007580FFC2A4D2A5C2A600D2A6E580332291
:0C0198007F381201A47F051201CD7F38D2
:1001A4001201F340FBC2A4C2A5D2A68F8000C2A64E
:0101B4002228
:1001E2001201F340FBD2A4C2A5D2A68F8000C2A600
:0101F20022EA
:0A020F007F011201A47F050201CD5A
:10013100AE07ED7005EE24808003EE24C0FF1201AE
:10014100A41200BCFF600C1201E2740129F9E43A27
:04015100FA80EE2220
:1001B500AE07AC03ED7005EE24808003EE24C0FF8E
:0801C5001201A4AF040201E2E3
:100155001201987F051201CD1201987F081201A4A2
:100165007F011201A47F061201A41F1201CD7F0C8D
:030175000201A4E0
:1000FB0075900FE590540FFD640F60277F0A120176
:10010B00CDE590540F640F601AE590540FFD44F049
:10011B00F590E59054F0FFE59054F0FEBEF0F8ED4D
:05012B002FFF227FFF01
:0101300022AC
:100003001200FBEF1200D500477700447B00417DCF
:10001300003E7E0053B70050BB004DBD004ABE00FA
:100023005FD7005CDB0059DD0056DE006BE700683C
:10003300EB0065ED0062EE0000006E7F00227F01A1
:10004300227F02227F03227F04227F05227F062252
:100053007F07227F08227F09227F0A227F0B227FCC
:0E0063000C227F0D227F0E227F0F227FFF22B4
:100071001201557F0F1201A47BFF7A017978E4FD0B
:10008100FF120131120003AA07EAF460F7E50870D4
:1000910007E509700312020FEA90018893FBAD098D
:1000A100AF081201B50508E508B410D8E4F5080554
:0B00B10009E509B402CEE4F50980C99E
:03000000020203F6
:0C020300787FE4F6D8FD758109020071D7
:1000BC00BB010689828A83E0225002E722BBFE0242
:0900CC00E32289828A83E4932275
:1000D500D083D082F8E4937012740193700DA3A3BA
:1000E50093F8740193F5828883E4737402936860CE
:0600F500EFA3A3A380DFCE
:00000001FF
