:0300000002012BCF
:0C012B00787FE4F6D8FD75810702000320
:10000300C2901200F5C2911200F5C2921200F5C21D
:10001300931200F5C2941200F5C2951200F5C29630
:100023001200F5C2971200F57590FFC2B01200F5E9
:10003300C2B11200F5C2B21200F5C2B31200F5C28A
:10004300B41200F5C2B51200F5C2B61200F5C2B77C
:100053001200F575B0FFC2A01200F5C2A11200F59F
:10006300C2A21200F5C2A31200F5C2A41200F5C287
:10007300A51200F5C2A61200F5C2A71200F575A0DD
:10008300FFC2871200F5C2861200F5C2851200F581
:10009300C2841200F5C2831200F5C2821200F5C2B7
:1000A300811200F5C2801200F57580FFC2E81200CC
:1000B300F5C2E91200F5C2EA1200F5C2EB1200F52F
:1000C30075E8FFE4F5901200F57590FFE4F5B012C2
:1000D30000F575B0FFE4F5A01200F575A0FFE4F597
:1000E300801200F57580FFE4F5E81200F575E8FF6E
:0200F30080D1BA
:1000F5007EEA7F60000000000000000000000000B4
:1001050000000000000000000000000000000000EA
:10011500000000000000000000000000EF1F70015B
:050125001EEF4E70CF3B
:01012A0022B2
:00000001FF
