:030000000200AF4C
:0C00AF00787FE4F6D8FD7581070200039D
:10000300C290120079C291120079C292120079C291
:1000130093120079C294120079C295120079C296A4
:10002300120079C2971200797590FFC2B01200795D
:10003300C2B1120079C2B2120079C2B3120079C2FE
:10004300B4120079C2B5120079C2B6120079C2B7F0
:1000530012007975B0FFE4F590120079120079125D
:1000630000797590FFE4F5B012007912007912005F
:060073007975B0FF80E08A
:100079007EEA7F6000000000000000000000000030
:100089000000000000000000000000000000000067
:10009900000000000000000000000000EF1F7001D8
:0500A9001EEF4E70CFB8
:0100AE00222F
:00000001FF
