:10002600B5B1C7B0C8D5C6DA00B5B1C7B0CAB1BC9C
:10003600E4000000000000000000000000000000D6
:1000460000000000000000000000000000000000AA
:10005600000000000000000000000000000000009A
:10006600000000000000000000000000000000008A
:10007600000000000000000000000000000000007A
:10008600000000000000000000000000000000006A
:10009600000000000000000000000000000000005A
:1000A600000000000000000000000000000000004A
:1000B600000000000000000000000000000000003A
:1000C600000000000000000000000000000000002A
:1000D600000000000000000000000000000000001A
:1000E600000000000000000000000000000000000A
:1000F60000000000000000000000000000000000FA
:1001060000000000000000000000000000000000E9
:1001160000000000000000000000000000000000D9
:1001260000000000000000000000000000000000C9
:1001360000000000000000000000000000000000B9
:1001460000000000000000000000000000000000A9
:100156000000000000000000000000000000000099
:100166000000000000000000000000000000000089
:100176000000000000000000000000000000000079
:100186000000000000000000000000000000000069
:100196000000000000000000000000000000000059
:1001A6000000000000000000000000000000000049
:1001B6000000000000000000000000000000000039
:1001C6000000000000000000000000000000000029
:1001D6000000000000000000000000000000000019
:1001E6000000000000000000000000000000000009
:1001F60000000000000000000000000000000000F9
:1002060000000000000000000000000000000000E8
:1002160000000000000000000000000000000000D8
:1002260000000000000000000000000000000000C8
:1002360000000000000000000000000000000000B8
:100246000000000000101010101010001010000028
:10025600000000000024242400000000000000002C
:10026600000000000024247E2424247E2424000090
:100276000000000000107C90907C12127C100000A0
:1002860000000000000062640810204C8C00000092
:10029600000000000000182420508A844A30000024
:1002A6000000000000101020000000000000000008
:1002B6000000000008102020202020202010080028
:1002C6000000000020100808080808080810200090
:1002D60000000000000000105438385410000000E0
:1002E6000000000000000010107C1010000000004C
:1002F60000000000000000000000000010102000B8
:100306000000000000000000007C0000000000006B
:1003160000000000000000000000000000100000C7
:100326000000000000000002040810204000000049
:1003360000000000003844444C5464444438000033
:1003460000000000001030101010101010380000CF
:10035600000000000038440404081020407C00001F
:1003660000000000007C0408103804040478000033
:10037600000000000008182848487C08080800000B
:1003860000000000007C404040780404047800002F
:1003960000000000003C40404078444444380000DF
:1003A60000000000007C040408102020202000002B
:1003B60000000000003844444438444444380000F7
:1003C6000000000000384444443C040404380000A3
:1003D60000000000000000000010000010000000F7
:1003E60000000000000000000000100010102000B7
:1003F600000000000000000408102010080400009F
:100406000000000000000000007C007C00000000EE
:100416000000000000000020100804081020000062
:1004260000000000384444040810100010100000BA
:100436000000000000000038445C545C403C0000B2
:100446000000000018244242427E4242424200001E
:10045600000000007C4242427C424242427C000054
:10046600000000003C42404040404040423C00000A
:10047600000000007C42424242424242427C00006E
:10048600000000007E40404078404040407E000032
:10049600000000007E404040784040404040000060
:1004A600000000003C4240405E424242423C0000A6
:1004B60000000000424242427E4242424242000066
:1004C6000000000038101010101010101038000036
:1004D600000000001C08080808080808483000004A
:1004E600000000004244485060605048444200000A
:1004F600000000004040404040404040407E000038
:10050600000000008282C6C6AAAA929282820000D9
:100516000000000042626252524A4A4646420000C9
:10052600000000003C42424242424242423C00003D
:10053600000000007C424242427C404040400000B5
:10054600000000003C424242424242424A3C0E0007
:10055600000000007C424242427C50484442000077
:10056600000000003C4240403C020202423C0000C7
:10057600000000007C101010101010101010000069
:10058600000000004242424242424242423C0000D7
:10059600000000004444444428282810101000009D
:1005A60000000000828282825454542828280000C9
:1005B6000000000042422418181824244242000079
:1005C6000000000044444444282810101010000085
:1005D600000000007E02020408102040407E000059
:1005E6000000000038202020202020202038000095
:1005F6000000000000000000402010080402000077
:10060600000000001C04040404040404041C00008C
:100616000000000000001028440000000000000058
:100626000000000000000000000000000000FF00C5
:10063600000000000010100800000000000000008C
:100646000000000000000078043C4444443A0000E6
:10065600000000004040405C62424242625C000092
:10066600000000000000003C42404040423C0000C8
:10067600000000000202023A46424242463A0000A8
:10068600000000000000003C42427E40423C000068
:10069600000000000E1010103C101010101000008A
:1006A600000000000000003E424242423E02023C80
:1006B600000000004040405C62424242424200006C
:1006C60000000000000800080808080808080000E4
:1006D6000000000000040004040404040404443878
:1006E6000000000040404042444850684442000038
:1006F6000000000010101010101010101010000054
:1007060000000000000000EC92929292929200008B
:10071600000000000000007C4242424242420000CB
:10072600000000000000003C42424242423C000001
:10073600000000000000005C62424242625C4040F1
:10074600000000000000003A46424242463A0202D9
:10075600000000000000005C624040404040000095
:10076600000000000000003C42403C02423C000009
:10077600000000000020207820202020221C0000FD
:10078600000000000000004242424242423E000099
:1007960000000000000000424242424224180000CD
:1007A600000000000000008282829292AA440000AB
:1007B60000000000000000424224182442420000CB
:1007C6000000000000000042424242423E02023C5B
:1007D600000000000000007E02041820407E000099
:1007E6000000000008101010204020101010080013
:1007F6000000001010101010101010101010101023
:10080600100000002010101008040810101020001E
:1008160000000000000000002254880000000000D4
:1008260000000000000000000000000000000000C2
:100836000000C9CF00000001000100010001000115
:100846000001F801000100010001000100010001A2
:10085600047FFE0000BAA3002100110011FE020071
:1008660097F85288524812082FFE2288E24822083A
:1008760023FE200820282010BAC60020401040126F
:100886004003FC8A404C40504017FE10002000E315
:10089600FC22042204220423FC2204EBE0000000D4
:1008A6007FFE48404888798C4E5048A049307A707F
:1008B6004CA849284A264C244820A8A09040B5E7D1
:1008C600000100010001003FF8210821083FF8213E
:1008D60008210821083FF821080102010200FE0054
:1008E60000D7D30000003FF0002000400080010048
:1008F60001000104FFFE01000100010001000100EA
:1009060005000200BFC6000608788808480848FEA9
:100916000818881C482A48280E48788B8808080832
:1009260008080808080808BCBC0010201020102081
:10093600FDFE1020142019FC3108D088109010609C
:1009460010601090110E56042000D3D00001000153
:10095600007FFE020004000FF0181028104FF088E8
:100966001008100FF00810089008700820CFDE005D
:100976000000FBF8920893F8A208A20893F88A8070
:100986008A48AA50922082208210828E8304820096
:10099600B9AB0000000440064004400820081010CF
:1009A60018220E430402000420081011F83F181004
:1009B600100000CBBE0000003FFC000400047FE4F2
:1009C600000400043FC4204420443FC420442004C3
:1009D600001400080000D7A800010001003FF8023B
:1009E600000200FFFE040008200FF0002000400275
:1009F600800100008000400000D2B50004400440A1
:100A0600044004444446244C244814501C501460AA
:100A1600044004400444FFFE00000000BFAA00009A
:100A2600007FFE0420042004200420FFFE0420048E
:100A3600200420082008201020202040200000B795
:100A4600A20002002240223022107FFE2400040071
:100A560007E00C200A200A20114020804160861CF5
:100A66001808B0E500101C11E011001100FD00117E
:100A7600FC398435485548523092101230144810CB
:100A86008E11040000B9A40000003FFC0100010023
:100A96000100010001000100010001000100010048
:100AA6000100FFFE00000000BFD80010001020105B
:100AB60010FDFE11041050148C19043000D1FC10E6
:100AC6002010201020102053FE2000C9E80040000E
:100AD60021F03110211001100110E20E25F8210835
:100AE60021082090209028603090230E0C04B1B885
:100AF6000008000FF0082014202240418002400C1C
:100B060030301EDFF411101FF0111011101FF010FD
:100B160010BCBC00102010201020FDFE1020142058
:100B260019FC3108D0881090106010601090110EDA
:100B360056042000CAF5000100012001100100FF43
:100B4600FE010003800540052009101118210EC181
:100B560004010001000000D6A70001000100010009
:100B66007FFE010001001FF8081004200420024047
:100B7600018002400C30700E0004B3D60010401005
:100B86004013FCFC40104017FE1410181037FED01E
:100B960010111010D01090101050502020C2DB0001
:100BA6004040204030A0209001080206E5042110B4
:100BB600213821C0210025002904310420FC000031
:100BC600CCB300000011FC100010001000FC001354
:100BD600FE1040106010801C883104C27E07C602D9
:100BE600040000B5B1000080109008980C9008A091
:100BF60000803FFC000400041FFC00040004000405
:100C06003FFC00040000C7B000081006180420FFCF
:100C1600FE00003E0822483E48224822483E48221E
:100C26004822482A0824280010C8D50000001FF0D2
:100C360010101010101010101FF0101010101010BF
:100C4600101010101FF0101000000000C6DA00226D
:100C560000227C7F4422443E44227C3E442244229D
:100C660044FF7C004424842284431481080000CA83
:100C7600B100001000107C10441047FE44107C1098
:100C86004510449044907C10001000100010005055
:100C96000020BCE400200013FC1004400447E44498
:100CA60024442447E44424442447E44004400440C4
:050CB600044014400899
:0A15160008591409030D12330006F2
:0713F6001213FDAD787F8AA0
:1013FD00D2B55307FEE4FEEF30E004D2B48002C252
:10140D00B4D2B6C2B6EFC313FF0EBE08EAE4FEEDCA
:10141D0030E004D2B48002C2B4D2B6C2B6EDC3136A
:07142D00FD0EBE08EAC2B586
:011434002295
:10147200D2B5430701E4FDEF30E004D2B48002C2EA
:10148200B4D2B6C2B6EFC313FF0DBD08EAE4FDEE57
:10149200C313FE30B405430680800353067FD2B6E1
:0A14A200C2B60DBD08E9C2B5AF06E1
:0114AC00221D
:10123C00E4FF74592FF8E6FE75F00A84FDEE75F0A4
:10124C000A8474712FF8A6F0EDC454F0FE74712F5B
:10125C00F8EE26F60FBF08DAE4FD7F8E1213FD7D43
:10126C00807F801213FDAD727F8C1213FDAD737FE6
:10127C00881213FDAD747F861213F6AD757F841240
:10128C0013FDAD767F821213FDAD777F801213F6BE
:07129C007D807F8E0213FD2F
:1012A3007F8C1214728F727F881214728F737F86F1
:1012B3001214728F747F841214728F757F821214CA
:1012C300728F767F80121472EF547FF5777F8A12C4
:1012D30014728F78E4FF74712FF8E6FEC4540FFD87
:1012E300EE540FFE74592FF8A606ED75F00AA4FE0E
:0B12F30074592FF8EE26F60FBF08DB41
:0112FE0022CD
:0B150B00C2B5C2B6E4FD7F800213FDF4
:0413AD008E228F23DA
:1013B100755501755640E4FBFA7DF0FCFFFE1213F2
:1013C10012E4F524F525E4F526F527AF23AE221224
:1013D100152B0527E52770020526C394F0E5269411
:1013E1000040E80525E52570020524C39440E52465
:0413F100940140D251
:0113F50022D5
:061151008B458D828C83AA
:0B115700EF24071212FFE4F54AF54BED
:10116200AF45EF3395E0FEEFC4F8540FC868FFEEC9
:10117200C454F048FEE54B2FFFE54A3EFE74382F7B
:10118200F58274003EF583E493F54EE4F54CF54D9B
:10119200E54E30E706AF47AE468004AF49AE48128F
:1011A200152BE54E25E0F54E054DE54D7002054C3B
:0911B200C39408E54C940040D7F9
:1011BB00054BE54B7002054AC39410E54A94004079
:0111CB00968D
:0111CC002200
:0F14FC00853D46853E47853F4885404902115151
:0A0E7B008B3C8A3D893E8D828C83FA
:100E8500EF240F1212FFE4F547F548AB3CAA3DA944
:100E95003E12135BFF90083875F023E5481213A145
:100EA500E54775F023A42583F583E4936F6003027A
:100EB5000F48900001121374FF90083975F023E56F
:100EC500481213A1E54775F023A42583F583E49320
:070ED5006F7070F543F54456
:100EDC0090083B75F023E5481213A1E54775F02304
:100EEC00A42583F583E5822544F582E5833543F516
:100EFC0083E493754900F54AE4F545F546E54A3037
:100F0C00E706AF40AE3F8004AF42AE4112152BE571
:100F1C004A25E0F54AE54933F5490546E5467002B0
:0B0F2C000545C39408E545940040D241
:100F37000544E54470020543C39420E5439400400B
:100F4700940548E54870020547C39440E547940077
:050F57005003020E90A2
:010F5C002272
:061036007C007F507E00EB
:0E103C008E2C8F2D8C2E8D2F8B308A31893289
:10104A00E4F537AB30AA31A93212135B606CC39452
:10105A0080E53775F008502FA4252DFFE52C35F0D3
:10106A00FE12135BFB85333D85343E85353F85365D
:10107A0040AD2FAC2E1214FC74012532F532E43542
:10108A0031F531053780BCA4252DFFE52C35F0FE5E
:10109A00AB30AA31A93285333F8534408535418545
:1010AA003642AD2FAC2E120E7B74022532F532E495
:0A10BA003531F5310537053780891F
:0110C4002209
:0314AD00E4FDFC5F
:0614B000AB05AA04AD0724
:1014B6008A578B58E4FF1214C6AD58AF570214D999
:04152B00AD07AC0656
:05152F00AF040214D915
:1014C600C2A2C2A48F80C2A5D2A58D80C2A5D2A574
:0314D600D2A2227D
:1014D900C2A2D2A48F80C2A5D2A58D80C2A5D2A551
:0314E900D2A2226A
:10000300E4FDFCC3ED9FEC9E5015E4FBFA0BBB0033
:0F001300010ABA01F8BB04F50DBD00010C80E431
:0100220022BB
:100CBB00D2A27F057E00120003C2A1120003D2A1B3
:100CCB001200037F321200037D007C017F0112149E
:100CDB00B07D007C077F021214B07D307C107F0347
:100CEB001214B07F041214AD7D077C027F0812141E
:100CFB00B07F091214ADE4FDFC7F0A1214B0E4FDC1
:100D0B00FC7F0C1214B0E4FDFC7F0D1214B0E4FD5B
:100D1B00FC7F0F1214B0E4FDFC7F101214B07D07A2
:100D2B007C007F111214B0E4FDFC7F121214B0E4AE
:100D3B00FDFC7F131214B07D907C127F101214B047
:100D4B007D277C027F111214B07D1D7C007F121257
:100D5B0014B07D007C157F131214B07D187C007FBE
:100D6B00291214B07D0D7C007F2B1214B07D047CF6
:100D7B00007F301214B07D077C037F311214B07DDD
:100D8B00027C007F321214B07D067C027F35121478
:100D9B00B07D087C047F361214B07D077C057F374D
:100DAB001214B07D047C027F381214B07407FDFC62
:100DBB007F391214B07D057C047F3C1214B07D0288
:100DCB007C0F7F3D1214B0E4FDFC7F501214B07DFC
:100DDB00EF7C007F511214B0E4FDFC7F521214B073
:100DEB007D3F7C017F531214B07D007CA77F601286
:100DFB0014B07D017C007F611214B0E4FDFC7F6AAE
:100E0B001214B0E4FDFC7F801214B0E4FDFC7F8172
:100E1B001214B0E4FDFC7F821214B0E4FDFC7F835E
:100E2B001214B0E4FDFC7F841214B0E4FDFC7F854A
:100E3B001214B07D107C007F901214B07D007C06E4
:100E4B007F921214B07D037C007F931214B07D103F
:100E5B007C017F951214B0E4FDFC7F971214B0E473
:100E6B00FDFC7F981214B07D337C017F070214B018
:1012FF00FDE43EFCAB82AA83E582240FF556E4356C
:03130F0083F5550E
:101312008E4F8F508C518D528A538B54AD50AC4F9F
:101322007F501214B0AD52AC517F511214B0AD5473
:10133200AC537F521214B0AD56AC557F531214B059
:10134200AD50AC4F7F201214B0AD54AC537F21127C
:0913520014B07D22E4FF0214C670
:0A152100EF1F70011E144E70F72238
:1014EC00759850438920758DFDD28ED2AFD2AC2227
:1011CD001214EC12150B120CBB7F007EFF1213AD27
:1011DD007BFF7A0079267533007534FF7535FF7501
:1011ED0036007D641210367BFF7A00792F7533003F
:1011FD007534FF7535FF7536007D8C121036121261
:10120D00A3120F5D3000F7E4FFEF25E02461F8E64F
:10121D0075F00AA4FEEF25E02462F8E62EFE74595F
:0F122D002FF8A6060FBF08E112123CC20080CFB7
:030023000214358F
:0D143500C0E0C0D075D000C000C006C007E8
:1014420030981DC298AF99EF540FFE74612521F8B0
:10145200A6060521E521B41005752100D2008F9959
:05146200309902C2995F
:0B146700D007D006D000D0D0D0E0327B
:100F5D00752232752330E55A75F00A842430F52454
:100F6D00E55A75F00A84E5F02430F52575262DE552
:100F7D005B75F00A842430F527E55B75F00A84E58E
:100F8D00F02430F52875292DE55C75F00A842430A0
:100F9D00F52AE55C75F00A84E5F02430F52B7B002D
:100FAD007A0079227533007534FF7535FF7536007B
:100FBD007D78121036E55D75F00A842430F522E552
:100FCD005D75F00A84E5F02430F52375243AE55E6D
:100FDD0075F00A842430F525E55E75F00A84E5F098
:100FED002430F52675273AE55F75F00A842430F52F
:100FFD0028E55F75F00A84E5F02430F529752A207F
:10100D00E56075F00A84E5F02430F52B7B007A005D
:10101D0079227533007534FF7535FF7536007DA067
:09102D007C007F507E0002103CA3
:030000000210C526
:0C10C500787FE4F6D8FD75817802110CEC
:10135B00BB010689828A83E0225002E722BBFE0290
:09136B00E32289828A83E49322C3
:10137400BB010CE58229F582E5833AF583E022502E
:1013840006E92582F8E622BBFE06E92582F8E22278
:0D139400E58229F582E5833AF583E4932292
:0C13A100A42582F582E5F03583F5832257
:1010D1000211CDE493A3F8E493A34003F68001F257
:1010E10008DFF48029E493A3F85407240CC8C33320
:1010F100C4540F4420C8834004F456800146F6DFEF
:10110100E4800B0102040810204080901516E47E53
:10111100019360BCA3FF543F30E509541FFEE493E3
:10112100A360010ECF54C025E060A840B8E493A3AA
:10113100FAE493A3F8E493A3C8C582C8CAC583CAD5
:10114100F0A3C8C582C8CAC583CADFE9DEE780BE8D
:0115200000CA
:00000001FF
