:101B0D00B5B1C7B0C8D5C6DAA3BA00B5B1C7B0CAAA
:101B1D00B1BCE4A3BA00D0C7C6DA00CEC2B6C8A322
:101B2D00BA202020A1E600D2BB00B6FE00C8FD0001
:0C1B3D00CBC400CEE500C1F900C8D50003
:101CA600759850438920758DFDD28ED2AFD2AC2265
:10103900121CA6121CC11211F9E4FFFE1219BC758B
:101049002800752996752AFF752B007B0A7A007D81
:10105900737C007F0F7E0012191775280075299679
:10106900752A00752BFF7B0A7A007DEB7C007F8750
:101079007E00121917752801752936752A0F752BE7
:10108900F07BAA7A007D737C007F0F7E001219170E
:10109900752801752936752AF0752B0F7BAA7A00F8
:1010A9007DEB7C007F877E0012191775259674FFEA
:1010B900F526F5277B737D0A7F0F121A057525958D
:1010C90074FFF526F5277B727D0B7F10121A057BBD
:1010D900FF7A1B790D74FFF533F534E4F535F536F0
:1010E9007D14FC7F19FE12169F7BFF7A1B791874F9
:1010F900FFF533F534E4F535F5367D3CFC7F19FE13
:1011090012169F7BFF7A1B792374FFF533F534E4BC
:10111900F535F5367D64FC7F19FE12169F7BFF7A43
:101129001B792874FFF533F534E4F535F5367D7A06
:10113900FC7F19FE12169F752B2674FFF52CF52DD1
:101149007B737D267F0F120DE4752B3A74FFF52C06
:10115900F52D7B737D3A7F0F120DE4752B4E74FFCD
:10116900F52CF52D7B737D4E7F0F120DE4752B62E7
:1011790074FFF52CF52D7B737D627F0F120DE475DD
:101189002B7674FFF52CF52D7B737D767F0F120D71
:10119900E4855F1C12180BE51C655F6028121B496A
:1011A9008E188F19E518C4F854F0C8E519C4540FFE
:1011B90048F51AEF540FF51B75F006A475F00A846B
:1011C900F51B1213B63000C9E4FFEF25E02408F837
:1011D900E675F00AA4FEEF25E02409F8E62EFE7470
:1011E900592FF8A6060FBF08E11217A4C20080A163
:03002300021AD0EE
:0D1AD000C0E0C0D075D000C000C006C00747
:101ADD0030981DC298AF99EF540FFE74082521F868
:101AED00A6060521E521B41005752100D2008F99B8
:051AFD00309902C299BE
:0B1B0200D007D006D000D0D0D0E032D9
:1013B600752232752330E55A75F00A842430F524F7
:1013C600E55A75F00A84E5F02430F52575262DE5F5
:1013D6005B75F00A842430F527E55B75F00A84E531
:1013E600F02430F52875292DE55C75F00A84243043
:1013F600F52AE55C75F00A84E5F02430F52B7B00D0
:101406007A00792274FFF533F534E4F535F5367D47
:1014160028FC7F19FE12169FE55D75F00A842430BC
:10142600F522E55D75F00A84E5F02430F523752490
:101436003AE55E75F00A842430F525E55E75F00A16
:1014460084E5F02430F52675273AE55F75F00A84C1
:101456002430F528E55F75F00A84E5F02430F52997
:10146600752A20752B207B007A00792274FFF533CC
:10147600F534E4F535F5367D50FC7F19FE12169FDE
:10148600E56014B40700506D90149C75F003A4C574
:101496008325F0C583730214B10214B90214C10284
:1014A60014C90214D10214D90214E17BFF7A1B7904
:1014B60034802E7BFF7A1B793780267BFF7A1B7957
:1014C6003A801E7BFF7A1B793D80167BFF7A1B795B
:1014D60040800E7BFF7A1B794380067BFF7A1B795F
:1014E6004674FFF533F534E4F535F5367D64FC7F57
:1014F60039FE12169FE51A75F06484AFF0EF75F0A9
:101506000A842430F52AEF75F00A84E5F02430F5D4
:101516002B7B007A00792A74FFF533F534E4F53530
:0B152600F5367D7AFC7F49FE02169F1F
:0B1CB600EF1FAC0670011E4C70F62200
:101BE700E4D2937F08FE121CB6C2937F507E001288
:101BF7001CB6D2937F0A7E00121CB6A2937F057E85
:041C070000021CB605
:101C2B00E4FB7D08C293EBC313FBD29330930343C6
:0D1C3B0003807F057E00121CB6DDE9AF03BB
:011C48002279
:02000300AD0747
:100005007B08C293ED1392937F057E00121CB6D236
:0E00150093EDC313FDDBEB7F057E00021CB6EE
:101B4900E4FAFFFEFDFC121BE77FCC1200037F4481
:101B59001200037FC87E00121CB6121BE77FCC124D
:101B690000037FBE120003121C2BAA07121C2BEFC5
:0B1B79007F00FEEF2AFDE43EFEAF05FA
:011B8400223E
:0A1CCC000859140A06050C3700063B
:071A9100121A98AD687F8A6C
:101A9800D2B55307FEE4FEEF30E004D2B48002C2B0
:101AA800B4D2B6C2B6EFC313FF0EBE08EAE4FEED29
:101AB80030E004D2B48002C2B4D2B6C2B6EDC313C9
:071AC800FD0EBE08EAC2B5E5
:011ACF0022F4
:101B8500D2B5430701E4FDEF30E004D2B48002C2D0
:101B9500B4D2B6C2B6EFC313FF0DBD08EAE4FDEE3D
:101BA500C313FE30B405430680800353067FD2B6C7
:0A1BB500C2B60DBD08E9C2B5AF06C7
:011BBF002203
:1017A400E4FF74592FF8E6FE75F00A84FDEE75F037
:1017B4000A8474612FF8A6F0EDC454F0FE74612F0E
:1017C400F8EE26F60FBF08DAE4FD7F8E121A987D34
:1017D400807F80121A98AD627F8C121A98AD637F55
:1017E40088121A98AD647F86121A91AD657F8412AF
:1017F4001A98AD667F82121A98AD677F80121A918B
:071804007D807F8E021A981F
:10180B007F8C121B858F627F88121B858F637F866F
:10181B00121B858F647F84121B858F657F82121B41
:10182B00858F667F80121B85EF547FF5677F8A1249
:10183B001B858F68E4FF74612FF8E6FEC4540FFD1F
:10184B00EE540FFE74592FF8A606ED75F00AA4FEA0
:0B185B0074592FF8EE26F60FBF08DBD3
:01186600225F
:0B1CC100C2B5C2B6E4FD7F80021A9895
:1000260000000000000000000000000000000000CA
:1000360000000000000000000000000000000000BA
:1000460000000000000000000000000000000000AA
:10005600000000000000000000000000000000009A
:100236000000001010101010100010100000000038
:10024600000000242424000000000000000000003C
:1002560000000024247E2424247E242400000000A0
:10026600000000107C90907C12127C1000000000B0
:100276000000000062640810204C8C0000000000A2
:1002860000000000182420508A844A300000000034
:100296000000001010200000000000000000000018
:1002A6000000081020202020202020100800000038
:1002B60000002010080808080808081020000000A0
:1002C60000000000001054383854100000000000F0
:1002D600000000000010107C10100000000000005C
:1002E60000000000000000000000101020000000C8
:1002F600000000000000007C00000000000000007C
:1003060000000000000000000000001000000000D7
:100316000000000000020408102040000000000059
:100326000000003844444C54644444380000000043
:1003360000000010301010101010103800000000DF
:1003460000000038440404081020407C000000002F
:100356000000007C04081038040404780000000043
:1003660000000008182848487C080808000000001B
:100376000000007C4040407804040478000000003F
:100386000000003C404040784444443800000000EF
:100396000000007C0404081020202020000000003B
:1003A6000000003844444438444444380000000007
:1003B600000000384444443C0404043800000000B3
:1003C6000000000000000010000010000000000007
:1003D60000000000000000001000101020000000C7
:1003E60000000000000408102010080400000000AF
:1003F600000000000000007C007C000000000000FF
:100406000000000000201008040810200000000072
:1004160000003844440408101000101000000000CA
:10042600000000000038445C545C403C00000000C2
:10043600000018244242427E42424242000000002E
:1004460000007C4242427C424242427C0000000064
:1004560000003C42404040404040423C000000001A
:1004660000007C42424242424242427C000000007E
:1004760000007E40404078404040407E0000000042
:1004860000007E4040407840404040400000000070
:1004960000003C4240405E424242423C00000000B6
:1004A6000000424242427E42424242420000000076
:1004B6000000381010101010101010380000000046
:1004C60000001C080808080808084830000000005A
:1004D600000042444850606050484442000000001A
:1004E60000004040404040404040407E0000000048
:1004F60000008282C6C6AAAA9292828200000000EA
:10050600000042626252524A4A46464200000000D9
:1005160000003C42424242424242423C000000004D
:1005260000007C424242427C4040404000000000C5
:1005360000003C424242424242424A3C0E00000017
:1005460000007C424242427C504844420000000087
:1005560000003C4240403C020202423C00000000D7
:1005660000007C1010101010101010100000000079
:1005760000004242424242424242423C00000000E7
:1005860000004444444428282810101000000000AD
:1005960000008282828254545428282800000000D9
:1005A6000000424224181818242442420000000089
:1005B6000000444444442828101010100000000095
:1005C60000007E02020408102040407E0000000069
:1005D60000003820202020202020203800000000A5
:1005E6000000000000004020100804020000000087
:1005F60000001C04040404040404041C000000009D
:100606000000000010284400000000000000000068
:10061600000000000000000000000000FF000000D5
:10062600000000101008000000000000000000009C
:10063600000000000078043C4444443A00000000F6
:1006460000004040405C62424242625C00000000A2
:1006560000000000003C42404040423C00000000D8
:1006660000000202023A46424242463A00000000B8
:1006760000000000003C42427E40423C0000000078
:1006860000000E1010103C1010101010000000009A
:1006960000000000003E424242423E02023C000090
:1006A60000004040405C624242424242000000007C
:1006B60000000008000808080808080800000000F4
:1006C6000000000400040404040404044438000088
:1006D6000000404040424448506844420000000048
:1006E6000000101010101010101010100000000064
:1006F6000000000000EC929292929292000000009C
:1007060000000000007C42424242424200000000DB
:1007160000000000003C42424242423C0000000011
:1007260000000000005C62424242625C4040000001
:1007360000000000003A46424242463A02020000E9
:1007460000000000005C62404040404000000000A5
:1007560000000000003C42403C02423C0000000019
:1007660000000020207820202020221C000000000D
:1007760000000000004242424242423E00000000A9
:1007860000000000004242424242241800000000DD
:1007960000000000008282829292AA4400000000BB
:1007A60000000000004242241824424200000000DB
:1007B600000000000042424242423E02023C00006B
:1007C60000000000007E02041820407E00000000A9
:1007D6000000081010102040201010100800000023
:1007E6000010101010101010101010101010100023
:1007F600000020101010080408101010200000003F
:1008060000000000000022548800000000000000E4
:1008160000000000000000000000000000000000D2
:10082600C9CF000000010001000100010001000124
:10083600F801000100010001000100010001047F30
:10084600FE0000BAA3002100110011FE020097F875
:100856005288524812082FFE2288E248220823FEB8
:10086600200820282010BAC600204010401240035D
:10087600FC8A404C40504017FE10002000E3FC224A
:10088600042204220423FC2204EBE00000007FFE85
:1008960048404888798C4E5048A049307A704CA818
:1008A60049284A264C244820A8A09040B5E70001D4
:1008B60000010001003FF8210821083FF821082126
:1008C6000821083FF821080102010200FE0000D7B6
:1008D600D30000003FF0002000400080010001002E
:1008E6000104FFFE010001000100010001000500F6
:1008F6000200BFC6000608788808480848FE08189F
:10090600881C482A48280E48788B88080808080852
:100916000808080808BCBC00102010201020FDFEA6
:100926001020142019FC3108D08810901060106037
:100936001090110E56042000D3D000010001007F54
:10094600FE020004000FF0181028104FF08810085F
:10095600100FF00810089008700820CFDE00000085
:10096600FBF8920893F8A208A20893F88A808A48AE
:10097600AA50922082208210828E83048200B9AB14
:100986000000000440064004400820081010182209
:100996000E430402000420081011F83F181010003E
:1009A60000CBBE0000003FFC000400047FE400040E
:1009B60000043FC4204420443FC4204420040014C3
:1009C60000080000D7A800010001003FF80200025D
:1009D60000FFFE040008200FF00020004002800106
:1009E60000008000400000D2B500044004400440EE
:1009F60004444446244C244814501C5014600440BB
:100A060004400444FFFE00000000BFAA0000007F6F
:100A1600FE0420042004200420FFFE0420042004F9
:100A260020082008201020202040200000B7A20027
:100A360002002240223022107FFE2400040007E03C
:100A46000C200A200A20114020804160861C1808CC
:100A5600B0E500101C11E011001100FD0011FC3979
:100A660084354855485230921012301448108E1171
:100A7600040000BCBC00102010201020FDFE102039
:100A8600142019FC3108D088109010601060109066
:100A9600110E56042000CAF50001000120011001C4
:100AA60000FFFE01000380054005200910111821F2
:100AB6000EC104010001000000D6A70001000100DC
:100AC60001007FFE010001001FF808100420042029
:100AD6000240018002400C30700E0004B3D60010B4
:100AE60040104013FCFC40104017FE14101810373D
:100AF600FED010111010D01090101050502020C2AF
:100B0600DB004040204030A0209001080206E504AA
:100B16002110213821C0210025002904310420FCA0
:100B26000000CCB300000011FC100010001000FC07
:100B36000013FE1040106010801C883104C27E072E
:100B4600C602040000B5B1000080109008980C9011
:100B560008A000803FFC000400041FFC0004000401
:100B660000043FFC00040000C7B00008100618048B
:100B760020FFFE00003E0822483E48224822483E0A
:100B860048224822482A0824280010C8D500000018
:100B96001FF010101010101010101FF01010101071
:100BA6001010101010101FF0101000000000C6DA10
:100BB600002200227C7F4422443E44227C3E442282
:100BC600442244FF7C004424842284431481080088
:100BD60000CAB100001000107C10441047FE4410FB
:100BE6007C104510449044907C10001000100010BA
:100BF60000500020BCE400200013FC100440044711
:100C0600E44424442447E44424442447E440044080
:100C160004400440144008CEC200400027F02410CF
:100C260007F09410541017F020002FFCC924492413
:100C36004924492449245FFE4000B6C8000100004B
:100C4600803FFE222022202FFC222023E0200027A6
:100C5600F82210212020C04130460E9804A3BA0085
:100C6600000000000000000000000000000000007E
:100C760000003000300000003000300000000000AE
:100C8600A1E600700053F4740C0804080410001068
:100C960000100010001000100008040804040803E7
:100CA600F00000D0C70000001FF810081FF8100859
:100CB6001FF8010011001FFC210021004FF8010060
:100CC60001007FFE0000C6DA002200227C7F44225B
:100CD600443E44227C3E4422442244FF7C00442479
:100CE600842284431481080000D2BB000000000067
:100CF600000000000000000000047FFE000000006D
:100D0600000000000000000000000000B6FE000029
:100D16000000103FF8000000000000000000000086
:100D2600000000000000047FFE000000000000C874
:100D3600FD00000000007FFC000000000000000035
:100D46003FF8000000000000000000007FFE0000E9
:100D56000000CBC40000007FFC44844484448444E7
:100D660084448444844884487C5004600440047F5E
:100D7600FC40040000CEE50000007FF802000200FF
:100D86000200020002203FF0042004200420042078
:100D96000424FFFE00000000C1F900040003000166
:100DA600800100FFFE0000000004800640042008C9
:100DB600100818100C200C40080000C6DF000000C8
:100DC600010001000100010001FE7F000100010099
:0E0DD6000100010001040104010400F8000006
:0419BC008E228F23C5
:1019C000755501755640E4FBFA7DF0FCFFFE1218D8
:1019D0007AE4F524F525E4F526F527AF23AE2212A7
:1019E0001CD70527E52770020526C394F0E5269449
:1019F0000040E80525E52570020524C39440E52450
:041A0000940140D23B
:011A040022BF
:061728008B458D828C83CD
:0B172E00EF2407121867E4F54AF54BA2
:10173900AF45EF3395E0FEEFC4F8540FC868FFEEEC
:10174900C454F048FEE54B2FFFE54A3EFE74262FB0
:10175900F58274003EF583E493F54EE4F54CF54DBE
:10176900E54E30E706AF47AE468004AF49AE4812B2
:101779001CD7E54E25E0F54E054DE54D7002054CAB
:09178900C39408E54C940040D71C
:10179200054BE54B7002054AC39410E54A9400409C
:0117A20096B0
:0117A3002223
:0F1C49002430FB85743D85753E85763F85774059
:0F1C5800853D46853E47853F4885404902172810
:0A1531008B3C8A3D893E8D828C833D
:10153B00EF240F121867E4F547F548AB3CAA3DA919
:10154B003E12196AFF90082675F023E5481219B070
:10155B00E54775F023A42583F583E4936F600302BD
:10156B0015FE900001121983FF90082775F023E5F3
:10157B00481219B0E54775F023A42583F583E4934E
:07158B006F7070F543F54499
:1015920090082975F023E5481219B0E54775F02344
:1015A200A42583F583E5822544F582E5833543F559
:1015B20083E493754900F54AE4F545F546E54A307A
:1015C200E706AF40AE3F8004AF42AE41121CD7E502
:1015D2004A25E0F54AE54933F5490546E5467002F4
:0B15E2000545C39408E545940040D285
:1015ED000544E54470020543C39420E5439400404F
:1015FD00940548E54870020547C39440E5479400BB
:05160D00500302154628
:0116120022B5
:0E169F008E2C8F2D8C2E8D2F8B308A31893220
:1016AD00E4F537AB30AA31A93212196A606CC394D4
:1016BD0080E53775F008502FA4252DFFE52C35F06A
:1016CD00FE12196AFB85333D85343E85353F8536DF
:1016DD0040AD2FAC2E121C5874012532F532E43575
:1016ED0031F531053780BCA4252DFFE52C35F0FEF5
:1016FD00AB30AA31A93285333F85344085354185DC
:10170D003642AD2FAC2E12153174022532F532E46E
:0A171D003531F531053705378089B5
:01172700229F
:0C1917008E228F238C248D258A268B279E
:1019230085285585295612187A85262C85272DD387
:10193300E52D9529E52C9528502C85222E85232FDE
:10194300D3E52F9525E52E95245011AF2BAE2A1202
:101953001CD7052FE52F70E8052E80E4052DE52D16
:0619630070CD052C80C9C7
:01196900225B
:031C6700E4FDFC9D
:061C6A00AB05AA04AD0762
:101C70008A578B58E4FF121C80AD58AF57021C9353
:041CD700AD07AC06A3
:051CDB00AF04021C93A0
:101C8000C2A2C2A48F80C2A5D2A58D80C2A5D2A5B2
:031C9000D2A222BB
:101C9300C2A2D2A48F80C2A5D2A58D80C2A5D2A58F
:031CA300D2A222A8
:101C0B00E4FDFCC3ED9FEC9E5015E4FBFA0BBB000F
:0F1C1B00010ABA01F8BB04F50DBD00010C80E40D
:011C2A002297
:1011F900D2A27F057E00121C0BC2A1121C0BD2A128
:101209007F32121C0B7D007C017F01121C6A7D005C
:101219007C077F02121C6A7D307C107F03121C6AD6
:101229007F04121C677D077C027F08121C6A7F09F4
:10123900121C67E4FDFC7F0A121C6AE4FDFC7F0CAA
:10124900121C6AE4FDFC7F0D121C6AE4FDFC7F0F91
:10125900121C6AE4FDFC7F10121C6A7D077C007F6A
:1012690011121C6AE4FDFC7F12121C6AE4FDFC7F6A
:1012790013121C6A7D907C127F10121C6A7D277CD8
:10128900027F11121C6A7D1D7C007F12121C6A7D6F
:10129900007C157F13121C6A7D187C007F29121CA3
:1012A9006A7D0D7C007F2B121C6A7D047C007F30D7
:1012B900121C6A7D077C037F31121C6A7D027C0047
:1012C9007F32121C6A7D067C027F35121C6A7D08FA
:1012D9007C047F36121C6A7D077C057F37121C6AE5
:1012E9007D047C027F38121C6A7407FDFC7F391269
:1012F9001C6A7D057C047F3C121C6A7D027C0F7F81
:101309003D121C6AE4FDFC7F50121C6A7DEF7C00D3
:101319007F51121C6AE4FDFC7F52121C6A7D3F7CDE
:10132900017F53121C6A7D007CA77F60121C6A7DB5
:10133900017C007F61121C6AE4FDFC7F6A121C6A51
:10134900E4FDFC7F80121C6AE4FDFC7F81121C6AAB
:10135900E4FDFC7F82121C6AE4FDFC7F83121C6A97
:10136900E4FDFC7F84121C6AE4FDFC7F85121C6A83
:101379007D107C007F90121C6A7D007C067F921292
:101389001C6A7D037C007F93121C6A7D107C017F9F
:1013990095121C6AE4FDFC7F97121C6AE4FDFC7F30
:0D13A90098121C6A7D337C017F07021C6ACC
:081BC000AF39AD3BAB2DAA2C9F
:101BC8008A488B49A905AD077E007C00E9FB7A00AD
:0F1BD800755500F55612187AAF49AE48021CD762
:10186700FDE43EFCAB82AA83E582240FF556E435FE
:0318770083F555A1
:10187A008E4F8F508C518D528A538B54AD50AC4F32
:10188A007F50121C6AAD52AC517F51121C6AAD5482
:10189A00AC537F52121C6AAD56AC557F53121C6A68
:1018AA00AD50AC4F7F20121C6AAD54AC537F21124D
:0918BA001C6A7D22E4FF021C807F
:060DE4008F288D298B2AE7
:100DEA00C3E52A9FF52FE49400F52EC3E52B952938
:100DFA00F531E49400F530E53125E0FFE53033FEC6
:100E0A00C3EF952FF533EE952EF5328E348F35C319
:100E1A00E531952FFFE530952EFEEF25E0F537EE0B
:100E2A0033F536E4F538F539F53AF53BF53CF53D59
:100E3A00F53EF53FF540F541F542F543F544F545F4
:100E4A00F546F547E52F452E7056F538852839E5DC
:100E5A0029C3952B5008753A0085293B8006753AB7
:100E6A0000852B3BE4F546F547E529C3952B500849
:100E7A00C3E52B9529FF8006C3E529952BFFD3E50A
:100E8A00479FE54694004003021038121BC0053BF9
:100E9A00E53B7002053A0547E54770CD054680C92E
:100EAA00E53145307056F53A85293BE528C3952A40
:100EBA0050087538008528398006753800852A3922
:100ECA00E4F546F547E528C3952A5008C3E52A956F
:100EDA0028FF8006C3E528952AFFD3E5479FE54604
:100EEA0094004003021038121BC00539E53970021C
:100EFA0005380547E54770CD054680C9D3E52F94E7
:100F0A0000E52E648094804008753C00753D0180A0
:100F1A000EE52F452E7002800274FFF53CF53DD395
:100F2A00E5319400E530648094804008753E007590
:100F3A003F01800EE53145307002800274FFF53EB4
:100F4A00F53FE528D3952A4007E528952AFF80062C
:100F5A00C3E52A9528FF752E008F2FE529D3952BF7
:100F6A004007E529952BFF8006C3E52B9529FF75D8
:100F7A0030008F31D3E52F9531E5306480F8E52EC6
:100F8A006480984008852E40852F41800685304030
:100F9A00853141753800852839753A0085293BE441
:100FAA00F546F547E5412401FFE43540FED3E54720
:100FBA009FE5469E5078121BC0E52F2543F543E571
:100FCA002E3542F542E5312545F545E5303544F5FE
:100FDA0044D3E5439541E5406480F8E5426480984E
:100FEA004018E5439541F543E5429540F542E53D14
:100FFA002539F539E53C3538F538D3E5459541E5E8
:10100A00406480F8E5446480984018E5459541F5C8
:10101A0045E5449540F544E53F253BF53BE53E353E
:0E102A003AF53A0547E54770020546020FAE5B
:011038002295
:101A05008F228D238B2485232B85262C85272D122C
:101A15000DE485252B85262C85272DAB22AD23AFFF
:101A250022120DE485252B85262C85272DAB24AD8B
:101A350023AF24120DE485252B85262C85272DAB78
:081A450024AD25AF22020DE4DF
:041A4D008F698B6BA7
:101A5100E4F56FF5708D70E570C3956C5031E569F3
:101A610004F56FE56FD3956B5021E56FFD7C00FFA9
:101A71007E00AB707A00E570755500F55612187A44
:0F1A8100AF6EAE6D121CD7056F80D8057080C890
:011A90002233
:1018C3008F718D728B737E007C00E57375F0648479
:1018D300121C49E5712408FFE433FEAD727C00E578
:1018E3007375F00A8475F00A84E5F0121C49E571FA
:1018F3002410FFE433FEAD727C00E57375F00A84B7
:10190300E5F02430FB85743D85753E85763F85770C
:0419130040021C581A
:03000000021613D2
:0C161300787FE4F6D8FD75817702165A46
:10196A00BB010689828A83E0225002E722BBFE027B
:09197A00E32289828A83E49322AE
:10198300BB010CE58229F582E5833AF583E0225019
:1019930006E92582F8E622BBFE06E92582F8E22263
:0D19A300E58229F582E5833AF583E493227D
:0C19B000A42582F582E5F03583F5832242
:10161F00021039E493A3F8E493A34003F68001F298
:10162F0008DFF48029E493A3F85407240CC8C333CC
:10163F00C4540F4420C8834004F456800146F6DF9B
:10164F00E4800B0102040810204080901CCCE47E43
:10165F00019360BCA3FF543F30E509541FFEE49390
:10166F00A360010ECF54C025E060A840B8E493A357
:10167F00FAE493A3F8E493A3C8C582C8CAC583CA82
:10168F00F0A3C8C582C8CAC583CADFE9DEE780BE3A
:011CD600000D
:00000001FF
