:100282003F065B4F666D7D077F6F777C395E7971C4
:0C029200FEFDFBF7EFDFBF7F010203045D
:03030800DFFE22F3
:1002B400AE07AF061EEF600C7FF51203087FF51240
:0502C400030880EE229A
:10029E00D2A100D2A00000000000C2A10000000008
:0602AE0000C2A0000022C6
:1002C900C2A100D2A00000000000D2A100000000DD
:0102D9002202
:1001E800E4FEEFA806088002C333D8FC30E704D247
:1001F800A18002C2A100D2A00000000000C2A00E8F
:10020800BE08DF0000D2A10000D2A000000030A18B
:0B02180004C2008002D200C2A000005F
:0102230022B8
:10025E00E4FFD2A1FE00C2A00000000000D2A00068
:10026E0000EF25E0FF30A1010F00000EBE08E6C230
:03027E00A00000DD
:01028100225A
:1002DA00C2A1000000D2A00000000000C2A00000DD
:0102EA0022F1
:1002EB00D2A1000000D2A00000000000C2A00000BC
:0102FB0022E0
:02022400AE0723
:1002260012029E1201E8200002C322AF051201E865
:10023600200002C322E4FDEDC3951250161200F908
:10024600FF1201E8200002C322740129F9E43AFAF8
:070256000D80E41202C9D380
:01025D00227E
:02019500AC07B5
:1001970012029E1201E8200002C322AF051201E8F5
:1001A700200002C32212029EEC04FF1201E8200085
:1001B70002C322E4FDE51214FFEDC39F501412029F
:1001C7005EEF1201121202DA740129F9E43AFA0D0C
:1001D70080E312025EEF1201121202EB1202C9D380
:0101E70022F5
:1001240078087C007D007BFF7A02799A7E007F0448
:100134001200D37B007A0079087512047D047FAE27
:100144001202247FC81202B4E4F508F509F50AF591
:100154000B7A0079087512047D047FAE1201957440
:1001640008250CF8E690028293F580D2A2C2A2E59B
:100174000C90029293F580D2A3C2A37FC81202B45A
:100184007FC81202B4050CE50CB404D3E4F50C806A
:01019400CE9C
:030000000202FCFD
:0C02FC00787FE4F6D8FD75812002012413
:10000300E709F608DFFA8046E709F208DFFA803EDF
:1000130088828C83E709F0A3DFFA8032E309F608CC
:10002300DFFA8078E309F208DFFA807088828C8334
:10003300E309F0A3DFFA806489828A83E0A3F608E8
:10004300DFFA805889828A83E0A3F208DFFA804CC2
:1000530080D280FA80C680D4806980F28033801099
:1000630080A680EA809A80A880DA80E280CA803302
:1000730089828A83ECFAE493A3C8C582C8CCC5837A
:10008300CCF0A3C8C582C8CCC583CCDFE9DEE7804A
:100093000D89828A83E493A3F608DFF9ECFAA9F0C9
:1000A300EDFB2289828A83ECFAE0A3C8C582C8CC1F
:1000B300C583CCF0A3C8C582C8CCC583CCDFEADE38
:1000C300E880DB89828A83E493A3F208DFF980CC9A
:1000D30088F0EF60010E4E60C388F0ED2402B40493
:1000E3000050B9F582EB2402B4040050AF2323453A
:0600F3008223900053730C
:1000F900BB010689828A83E0225002E722BBFE0205
:09010900E32289828A83E4932237
:10011200BB010689828A83F0225002F722BBFE01CC
:02012200F322C6
:00000001FF
