:100000003BC0CCC154C053C052C051C050C04FC0FF
:100010004EC04DC04CC04BC04AC049C048C047C08C
:1000200046C045C044C0040309041C0377007700A0
:1000300077002E00660069007300630068006C00A2
:100040002E00640065000E0355005300420061005D
:100050007300700012011001FF000008C016DC05DB
:1000600002010102000109021200010100801909C8
:10007000040000000000000011241FBECFE5D4E002
:10008000DEBFCDBF10E0A0E6B0E0EEEDFFE002C0C5
:1000900005900D92A436B107D9F710E0A4E6B0E0C0
:1000A00001C01D92A73AB107E1F719D597C7A8CFAC
:1000B00085B7836085BF8BB780648BBF08950F932E
:1000C0001F93CF93DF9360918B00161604F5635056
:1000D00080918800CBE9D0E0C81BD10980918700CE
:1000E0008D3209F44DC08091640087FD4EC0CE0171
:1000F0000DD58F3F09F485C0882309F05AC02FEF32
:1001000030E0309364002093600010928B00809167
:10011000610084FF29C0809160008F3F29F1682F22
:10012000893008F03DC0861B809360008091640098
:1001300080FF34C003EC8F5F8093640087FD69C04B
:10014000662309F455C08CE790E0A6D5682F772781
:10015000162F693008F479C08FEF809360009EE11C
:1001600000937B00909361009AE086B3837009F05E
:10017000F7C09150D1F710928C0010928600F0C019
:100180008AE5809361006830B9F020E030E8309370
:1001900064002093600010928B00B9CF0BE4CBCFAA
:1001A00068E0861B809360008091640080FFF6CF3A
:1001B000C1CF20E030E0EBCF8881807609F05CC0D1
:1001C00024E830E0109284008981882309F05BC024
:1001D0001092850030938A002093890022E030E855
:1001E0008F818823A1F68E81821788F6282FCFCFA2
:1001F00060E08CE790E0CED094E08FEF80936000D9
:10020000AFCF809360008EE1809361002FEF30E0EC
:1002100078CF2091890030918A0086FD1FC0462F3B
:1002200041504F3F61F0F901942FACE7B0E081916C
:100230008D939150E0F7240F311D2F5F3F4F309386
:100240008A0020938900772783CF8CE790E0A2D0A3
:10025000912F9C5F183008F083CFCFCF462F4150AD
:100260004F3F69F3F901942FACE7B0E084918D938F
:1002700031969150D8F7DFCFCE0160D5282F8F3F30
:10028000A9F030E8ADCF853059F08630A9F088303C
:10029000E9F0893021F18A3041F120E030E8A0CF47
:1002A0008A8180938C0020E030E89ACF888187FF94
:1002B00027CF2E8130E025CF8B818130E9F082304D
:1002C00081F1833011F120E030EC8ACF8EE890E0AC
:1002D00090938A008093890021E030E881CF8A8161
:1002E00080938E0020E030E87BCF30938A0020930B
:1002F000890021E030E874CF84E590E090938A0093
:100300008093890022E130EC6BCF8A81882391F4BD
:1003100086E290E090938A008093890024E030EC9C
:100320005FCF86E690E090938A008093890022E177
:1003300030EC56CF813059F0823029F686E490E0D7
:1003400090938A00809389002EE030EC49CF8AE2B6
:1003500090E090938A00809389002CE130EC40CFAC
:10036000DF91CF911F910F910895A82FB92F80E0B1
:1003700090E041E050EA60956F5F58F42D9138EFBE
:1003800082279795879510F0842795273F5FC8F3BC
:10039000F3CF0895EADF8D939D930895CF93CFB760
:1003A000CF93B09BFECFB09B09C0B09B07C0B09B62
:1003B00005C0B09B03C0B09B01C0A1C0DF93C0913A
:1003C0008800DD27C157DF4FB09B02C0DF91EBCF24
:1003D0002F930F931F9306B32FEF00FB20F94F933A
:1003E0003F9316B34FEF012700FB21F93BE031C0EB
:1003F0004E7F012F16B3216028C0102F4D7F226041
:10040000000006B329C04B7F2460012F000016B303
:100410002BC016B3477F28602AC04F7E06B32061E9
:100420002CC04F7D16B320622FC04F7B06B32064D3
:1004300032C0422706B349934FEF0000102710FB4C
:1004400020F916B31370C9F1297F91F2012700FB3F
:1004500021F906B3237F89F2315058F1102710FBA0
:1004600022F916B3277E79F2012700FB23F92F7CAE
:1004700081F206B3102710FB24F92F7971F200C026
:1004800016B3012700FB25F92F7359F200C006B3FC
:10049000102710FB26F9223040F200C016B30127C6
:1004A00000FB27F9243028F64F77206816B30000A8
:1004B000F9CF10E41ABF002717C03B503195C31B7A
:1004C000D04010E41ABF0881033CE9F00B34D9F0A6
:1004D000209186001981110F1213EDCF093641F1D9
:1004E0000D3211F0013E39F700938D003F914F918D
:1004F0001F910F912F91DF91CAB7C6FD52CFCF91B7
:10050000CFBFCF91189500918D00002379F3109102
:100510008B00112349F534304AF130938B0000935E
:100520008700109188003BE0311B309388001EC08B
:1005300000918B000130C4F40AE53091610034FD74
:1005400017C000936100CBE7D0E016C0052710E08C
:1005500008BB1FC0052722C0052727C005272CC0C0
:10056000052710E008BB33C04AE503C042ED01C0D7
:10057000432FC4E1D0E032E017B31360C09A08B350
:1005800017BB5F9353E020E820FF052708BB2795A2
:1005900017951C3FD8F620FF0527279508BB179510
:1005A0001C3FC0F620FF05272795179508BB1C3F69
:1005B00098F620FF0527279517951C3F08BB70F676
:1005C00000C0499120FF052708BB279517951C3FC0
:1005D00038F620FF0527279508BB17951C3F38F5EF
:1005E00020FF05272795179508BB1C3F10F520FF16
:1005F0000527279517951C3F08BBE8F4242F3A954B
:1006000019F60C7F5F9108BB10918C00110FC65139
:10061000D04011F01093860010E41ABF016017B3A8
:100620001C7F402F4C7F08BB17BB48BB5FCF052703
:10063000D3CF0527D8CF0527DDCF80916200843046
:1006400041F0853051F0833069F083E58DB91EB8F3
:10065000089581E58DB91EB8089581E58DB981E0D1
:100660008EB9089582E58DB981E08EB908958091A3
:100670006200813039F085E793E09093A600809383
:10068000A50008951DB888E593E09093A600809397
:10069000A500089592B782B7891B8C30E0F30895C6
:1006A00087B3837D87BB88B3837D88BB1DB80895DE
:1006B000FF920F931F93182FFF2400E00CC0C398E4
:1006C000FF0CB499F394C59AE5DFC598E3DF0F5F9B
:1006D000083029F0110F17FFF2CFC39AF1CF8F2DF9
:1006E00099271F910F91FF9008958FB9779BFECFA7
:1006F0008FB1992708950F931F930FE11DC0E091CB
:10070000A500F091A6000995182FE091A500F091A1
:10071000A60080E00995133569F11DB8C59ABADFC6
:10072000C598B8DF8091A5009091A60085579340A9
:1007300021F101500F3F21F1E091A500F091A600B9
:100740008CEA0995E091A500F091A60083E5099552
:1007500080916500882399F2E091A500F091A600B0
:1007600080E00995E091A500F091A60080E0099550
:10077000893699F680E090E005C05FDF0150E0F631
:1007800081E090E01F910F910895EF92FF920F93F7
:100790001F937B018C0180916500882321F58E2DAC
:1007A0008170880F880F880FE091A500F091A60056
:1007B00080620995D801C70129E0B695A79597955C
:1007C00087952A95D1F7E091A500F091A6000995AB
:1007D00016950795F794E794E091A500F091A6008F
:1007E0008E2D099515C0E091A500F091A60080E23C
:1007F0000995BB27A12F902F8F2DE091A500F09197
:10080000A6000995E091A500F091A6008E2D09950E
:10081000E091A500F091A60080E0099599271F912D
:100820000F91FF90EF900895CF93DF93EC018091AB
:1008300065008130D9F0E091A500F091A60080EA32
:1008400009958D2F9927E091A500F091A6000995B3
:10085000E091A500F091A6008C2F0995E091A500EC
:10086000F091A60080E00995992702C080E090E011
:10087000DF91CF9108951F93CF93DF93EC01162F53
:10088000809165008130D9F0E091A500F091A6003B
:1008900080EC09958D2F9927E091A500F091A60095
:1008A0000995E091A500F091A6008C2F0995E091A3
:1008B000A500F091A600812F09958EE103D180E07B
:1008C00090E0DF91CF911F910895CF92DF92EF9248
:1008D000FF920F931F937B018C01D42E80916500B2
:1008E0008130D9F1E091A500F091A6008CE4099542
:1008F000D801C70179E0B695A795979587957A9520
:10090000D1F7E091A500F091A6000995D801C701A3
:10091000B695A79597958795E091A500F091A600CB
:100920000995E091A500F091A60080E009958FEF70
:10093000D816B1F0C2B65EE1D52EC801B70125DFE9
:100940008F3F59F482B78C198D3310F0C2B6DA9408
:10095000DD2099F781E090E007C080E090E004C0DE
:100960008FE0B0D080E090E01F910F91FF90EF906A
:10097000DF90CF900895CF92DF92EF92FF920F9386
:100980001F937B018C01D42EC22E80916500813093
:1009900009F442C08E2D8170880F880F880FE09176
:1009A000A500F091A60080640995D801C70129E04F
:1009B000B695A795979587952A95D1F7E091A500CB
:1009C000F091A6000995D801C701B695A79597950E
:1009D0008795E091A500F091A6000995E091A5000A
:1009E000F091A6008D2D0995CC20B1F18FE7D81696
:1009F000B1F1C2B6EEE1DE2EC801B701C6DE8F3717
:100A000059F582B78C198D3310F0C2B6DA94DD2017
:100A100099F781E090E027C0E091A500F091A60051
:100A200080E40995BB27A12F902F8F2DE091A50081
:100A3000F091A6000995E091A500F091A6008E2DF9
:100A40000995E091A500F091A6008D2D099592B72A
:100A500082B7891B8435E0F380E090E004C08FE02A
:100A600031D080E090E01F910F91FF90EF90DF90E8
:100A7000CF90089587B38C6287BB809165008823EF
:100A800081F4C298C5988EE11DD0C29A8EE11AD029
:100A9000C2988091A5009091A6008557934081F05F
:100AA0000895C29AC5988EE10DD0C2988EE10AD001
:100AB000C29A8091A5009091A6008557934081F736
:100AC000BCDD0895382F882349F020E092B782B723
:100AD000891B8C33E0F32F5F3217C1F7089512BAE8
:100AE00018BA8BEF81BB8FEF87BB9EEF9150F1F768
:100AF0008150E1F717BA93E094BB8EEF85BB93BFAB
:100B0000B6DDD6DA7894DBDADADAFDCFBF92CF92AF
:100B1000DF92EF92FF920F931F93CF93DF937C01AD
:100B2000C62E80916600813029F0843019F08FEF55
:100B300090E0A8C0CC2009F4A3C0BB24DD245AC097
:100B40008091760090917700892B09F065C0CD2DBA
:100B5000DD27F701EC0FFD1F6091720070917300AB
:100B6000809174009091750021E0408104DF8091B4
:100B700067009091680001979093680080936700E8
:100B8000892BF9F4109266008091780081FF41C0B2
:100B90002091790030917A008091760090917700D1
:100BA00028173907B1F1CE0DDF1D609172007091E9
:100BB00073008091740090917500488186DE91E009
:100BC000B92E8091720090917300A0917400B09141
:100BD00075000196A11DB11D809372009093730062
:100BE000A0937400B0937500D394CD1409F445C05C
:100BF00080916600813009F4A3CFCD2DDD27F70168
:100C0000EC0FFD1F6081809172009091730033DEC4
:100C1000AECF81E0B82ED5CFCD2DDD2787010C0FCB
:100C20001D1F60917200709173008091740090910B
:100C3000750020E0F80140819EDE8091790090915E
:100C40007A00019790937A0080937900892B09F0BC
:100C50008ECF6091720070917300809174009091BA
:100C60007500F801408131DE809176009091770027
:100C700090937A00809379007ACF8B2D992702C0C8
:100C800080E090E0DF91CF911F910F91FF90EF9066
:100C9000DF90CF90BF9008950F931F93CF93DF9372
:100CA000EC01062F90916600892F8250823018F057
:100CB0008FEF90E03EC06623C1F110E021C080912B
:100CC000720090917300B0DDFE01E10FF11D808391
:100CD0008091720090917300A0917400B0917500A2
:100CE0000196A11DB11D8093720090937300A09393
:100CF0007400B09375001F5F011791F0909166002A
:100D00009230E9F6609172007091730080917400E6
:100D1000909175003ADDFE01E10FF11D8083D8CF7F
:100D2000083018F0802F992704C010926600802F99
:100D30009927DF91CF911F910F910895CF93DF9362
:100D4000EC018981813009F485C0823009F4BAC090
:100D5000833009F4BCC0843001F1873009F488C0C5
:100D6000853009F426C1863009F441C0883009F481
:100D7000D1C0893079F481E0809369008A819B81B8
:100D8000AC81BD818093720090937300A093740036
:100D9000B093750020E030E017C18091690088238E
:100DA000A1F48B812A819927982F88273327822BBA
:100DB000932BAA2797FDA095BA2F8093720090934A
:100DC0007300A0937400B09375008F812E819927D2
:100DD000982F88273327822B932B9093680080933A
:100DE000670082E0809366002FEF30E0EDC08091D5
:100DF0006900882309F4B3C08C819D819F70909312
:100E000078002D813327207F307022953295307FF6
:100E10003227207F3227280F311D3093770020930F
:100E2000760080916500813009F4C9C090FD8EC0C4
:100E30008F812E819927982F88273327822B932BF8
:100E4000909368008093670081E0809366002FEFA5
:100E500030E0BAC08A81809362008B818093650004
:100E600006DC1092690006DEA99820E030E0ACC0F4
:100E7000809169008823A1F48B812A819927982F7A
:100E800088273327822B932BAA2797FDA095BA2F6B
:100E90008093720090937300A0937400B0937500D8
:100EA0008F812E819927982F88273327822B932B88
:100EB000909368008093670083E0809366002FEF33
:100EC00030E082C0EDDBA99A20E030E07DC0E09107
:100ED000A500F091A6008A81099580936A00E091AF
:100EE000A500F091A6008B81099580936B00E0919D
:100EF000A500F091A6008C81099580936C00E0918B
:100F0000A500F091A6008D81099580936D0024E0E5
:100F100030E05AC0809169008823B1F110927700C7
:100F200010927600109278008F812E819927982F49
:100F300088273327822B932B909368008093670038
:100F400084E0809366002FEF30E03EC08091760011
:100F50009091770090937A008093790069CF8B818C
:100F60002A819927982F88273327822B932BAA270A
:100F700097FDA095BA2F8093720090937300A09371
:100F80007400B093750038CF8B812A819927982FF0
:100F900088273327822B932BAA2797FDA095BA2F5A
:100FA0008093720090937300A0937400B0937500C7
:100FB000B5CFA1DB80936A0021E030E005C010923C
:100FC00077001092760032CF8AE690E090938A0004
:0E0FD00080938900C901DF91CF910895FFCF72
:040FDE00FF5A0100B5
:00000001FF
